:20000000003A0120F143020039FB021039FB021039FB021039FB021039FB021039FB0210AB
:1C00200039FB021039FB021039FB021039FB021039FB021039FB021011FB021002
:200040002DE9F04FAF4E04460120ADF15C0DA578317812902078432832DC432800F078860A
:20006000092816DC092801F0D482002801F05783801E01F03F83401E01F0B883401E01F0C8
:20008000B183C01E01F02383401E01F0CA8201F056BBA0F11001DFF8CC82DFF8CCC2B048F6
:2000A0001C2933D92A3900F09386491E01F08683491E01F07F83481F00F05C8601F03FBBA4
:2000C000E42815DCE42801F03F83453800F01C86DFF8FCC25B381C2837D9373800F0E88111
:2000E000401E00F0AB80093801F0328301F027BBE63800F08780401F59D00F3851D0401E6A
:2001000042D0401E01F01D8301F019BBDFE811F0780A3D0A660B170B610B260A170A170B16
:20012000F509D409170B9C096909170B5D0B5A0B9A0870089B07170B820769075F07540724
:200140004407170B32072107BC06DFE810F02F0B2B0B270BA405230B1F0B1B0B9A05150BC0
:200160007E0541050F05E304D104C004AF04A3049A049104100B8504070B4B041004ED038C
:20018000E2036F035E0336036768002F00F037873878032814BF02200320C349087000F05B
:2001A00035BF6068002800F02A8701F017BB6068007878B900202AF0EBF929F091FA12981A
:2001C0000FA98DF83C00522027F05AFC2AF02CFE01F010BB4FF6FF702AF0DAF930784FF43B
:2001E000807123F079FF30784FF4807122F006FD00200DF13D018DF83D00522027F040FCAF
:2002000001F0F8BA6068002801F0F482A74C01886180807A60B92CF0CFFA40F28A21B0FB07
:20022000F1F220780821521D2CF083FB01F0E2BA708F12992BF07FFA01F0DCBA6068139450
:20024000002800F02D810468A07E2AF08BFA071C08BF022000F00681D4F81C800026354623
:2002600098F80000A84200F30081042101EB0011C8B280191EF086FB0028149000F0F1809F
:2002800026F02AFC002840F0E980149800210E46017047E04FEA860A08EB0A0794F81AB085
:2002A000B4F80C90149DBA885846494627F0FCFE159008AB08EB0A00BA881190584625F0DA
:2002C00092FC159905EB06152D1D07F1040AFF291AD0C8B1AE489DF827700168F80838BF7A
:2002E0008C2012D39DF82600159F1622287102FB0710C188E980018900F10E032981002011
:20030000EB6002E08447002086202870119880786870BAF80000149968800878761CF6B20D
:20032000401C087098F80000B042B3DC149EA07EB4F80CA094F80A9004F10E0700211597B3
:200340003278119035460C468A426BDC20462CF096FB5FEA00085ED00246002643E0C04649
:20036000984B0020945300206C540020300129182818077902F8017B477902F8017B8779B5
:2003800002F8017BC7883F1202F8017B07790B1D3FBB4F79F7B9087A02F8010B887A02F833
:2003A000010B4889001202F8010B087B02F8010B8889001202F8010B087A83462BF031FA05
:2003C00078B10969584619F089FC024609E0C046104E0020987A02F8010B5889001202F89C
:2003E000010B761CF6B22878B042BFDC002100911298019002900391CDF810900594CDF8B4
:2004000018801198079115995246092310F0E4FD40462CF072FA284628F0EAF92BF076F8B0
:2004200000201FE0080143191F79241DA4B297B92818401D077867B9C07803462BF0F1F9F7
:20044000641DA4B238B118461EF0B4FB001984B201E0A41CA4B2491CC9B275E7149828F07B
:20046000C7F9102013991191A5E108EB85023878A189928808AB25F0B6FB70B19DF82600F5
:2004800001462BF0CEF940B108461EF093FB410824BF401CC0B23618F6B26D1CEDB2DFE67B
:2004A0002046119061E2C046003F00201C52002060681194002800F0588200681390807E97
:2004C0002AF050F9002800F075811398D0F81CB09BF80000002800F06D818000801C1EF0A9
:2004E00051FA0028149000F063812BF08DFF26F0F3FA002840F059810024169415949BF82B
:200500000000A04200F3E1801698012840F08E80C44DA878EA68162111FB00F081B2562031
:200520002CF002F905F10C0440B9A8782268162111FB00F081B256202CF0FCF8BA48007895
:20054000802123F0C9FD2F78B8001EF01BFAB8465FEA000B6AD02E78B8F1000F0CD005F1E3
:200560001800594642784A70428810F8144B4A807F1E01F8044BF5D1002E3DD037464FF0B3
:2005800000094FF0140AAEB305F1180412E0C046FC5F0020002808BF4E4607D0416806689E
:2005A000216128F025F9207B401E2073304628F01FF92E7820690028ECD1761EF6B216FBF0
:2005C0000AF2A0184188618041786170C188E1808188A18001890C30218109C804F10C0124
:2005E00081E80900105D2070A318C3F8109083F80C902E707F1EC6D110F01EFCB8F1000FBB
:2006000011D018355C4647466078618828F058F9FF2804D02678810001EB00116E547F1EDD
:2006200004F10404F0D1584628F0E2F815981499087018B900208870129F0F70139890F84E
:200640001AA08689857A00F10E09084600780C46800080462CF013FA071C1ED001460020CB
:200660002278824222DC012A03D1A4780CB9DDF848800020009012990191029103900495F5
:200680003246CDF814800723069749460790504610F0A2FC38462CF030F9149828F0A8F841
:2006A0002AF034FF28F054FD002084E004EB800293780B70D3784B7013798B709288401C06
:2006C000C0B21212CA70091DCAE71398B0F80C8090F81A900BEB04152F1DAD1D2E88414600
:2006E0004846324627F0E0FC824608AB484625F07AFABAF1FF0F48D0002846D03E78002E7C
:2007000050D19DF82600A97888423CD19DF82700C00836D3B248A98800684FF6FF728A4263
:2007200001D1EE88B6B1FD88162101FB0A06F5803889308138792BF074F8F8B10E36002115
:20074000042230461FF089FF38791EF033FAFD6802460FE0162101FB0A056889E880A88912
:20076000042205F10E060021288130461FF075FF12350422304629462BF0C0F81298169011
:2007800010E08C2002E08D2000E087201499159A01EB820188703878C8707888561C888082
:2007A000F0B21590641CE4B2A9E6149828F020F8102000E00220119CA9E0254668680028A6
:2007C00000F0D380C9490978064600F11207C1B1AFB121F08FF8044606F110002BF02CFFEC
:2007E000A0420CD108A8009032469023002001460EF0B0F908A839461AF02EFA02E002205C
:2008000000E012982C46064676E06068002800F0AC80626810785188928819F039FB00F0BC
:20082000E5BCC046F05F0020114E00206068002800F09B8090F8009045888188B0F806B0DC
:20084000B0F808A00A301390C74807791191002F5CD0C4490F68002F56D0804678680078E8
:2008600081454ED12AF024FF00284AD0037C002B47D04669002E44D000200C22834243DD2F
:2008800010FB02F1715A8D4238D10E201EF07AF8071C3BD0002607F10A0004235B1E00F81B
:2008A000016BFBD1BE80FF2038704FF6FF737B803E81FE8087F80090119A7D801399BA806F
:2008C00007F10A00A7F806B00422A7F808A02BF015F808201EF056F8D8F8141018B9384665
:2008E00027F086FF12E007604160C8F8140098F81000401C88F81000304608E0401CC0B2D6
:20090000BCE73F68002FA9D1022000E0129825461CE3606848B300206070606820F0EAFF5A
:20092000A168088000F066BFA768F7B10022A56862706446267860786F1C002E08BF2A701F
:200940000ED0402126F01EFB4FF47A710F2300F2E730B0FBF1F116FB03100F382870267892
:20096000002F00F0478730467FE0204616E02046614687688A8E91F8373091F8385091F8BB
:200980003A6091F839E091F83B8091F83C9091F83DA091F83640D1F830C00FB904462EE341
:2009A0000027477087683A818268D3728268947282681573826896738268C2F804C08268D9
:2009C00082F80DE0C96A82681160816881F80F80816881F81090806880F811A000F00ABF65
:2009E000FC5F00206768002F00F00983002060706068077C1FB1C089614634310880606852
:200A0000077B1FB18268614630310A60877CCF4927B1427C08460D300270606807791FB162
:200A20000268084602606068077D27B1C27C08460F3002706068877D27B1427D084610304A
:200A400002706068077E002F00F0D486C27D08461130027000F0CEBEA068002800F0CF8231
:200A6000002060702BF084FEA768387000F0C2BED548A1680078002900F0C18200216170D6
:200A8000F2E76068002800F0BA826068007824F055FFABE36068002800F0B1820020607028
:200AA0006068007806F0CCFF00F0A4BE2546A868002800F0A4820020687025F067FB002893
:200AC00008BF129800F08B860078AF68CDE725466868002800F093820020687069680888A0
:200AE000897823F0B7FF00F085BEC046004C00206068002800F08382B44D6168082205F1B8
:200B000010002AF0FBFE606801896980807A287000F085BD25466868002800F070820188E5
:200B2000ADF838104088ADF83A000EA9532026F0A7FF50200DF13A0126F0A2FFE1200DF1DC
:200B40003E0129F039FB68689DF83E100079884200F05C828DF83E000DF13E01E12026F02E
:200B60008FFF53E2A0530020F05F002025466868002800F04482007827F0ECFD686896F841
:200B80003C104078884213D086F83C000DF13F01E12029F011FB68689DF83F104078884250
:200BA00006D08DF83F000DF13F01E12026F068FF6868129C407804FA00F0F0642AF060FCF1
:200BC0000027A6F89470204623F096FC3846CFE16768002F00F013827D887587387886F861
:200BE0004A007B6886F83C303989F187F3647889A6F84800387B86F85C00787B86F829003F
:200C0000B87B86F827003A697265786996F89650B065387EA84201D027F09CFD616806F137
:200C20005D0019312BF0A9FE96F84A0006F12405082840F0EB81212074212A462BF07AFDAF
:200C40000020022127F044FCE0E1616800297AD00888498827F052FF78B961680888129AFE
:200C6000498826F0C1FF61680888498827F046FF002808BFC82000F0B2856168097941704D
:200C8000C4E1606800285ED062685088111D128829F0D4F8AAE26068002854D00778468855
:200CA0004FF6FF75ADF82060B5428DF8227017D0E81EB04214D0A81EB04211D002208DF845
:200CC0002400ADF8266009A81FF000FD012818BF12980BD1BDF82600ADF82000129800E058
:200CE00000208DF8230008A821F0B6FAED1E8046B54205DCC64981F82870129881F82700A8
:200D000029F01EFA404671E26068E0B10A300778002F0CBF0022129A47780FB142F002023A
:200D200087780FB142F00402C7780FB142F00802007908B142F04002616808880023891CBA
:200D400027F05EF952E2254617E1C0463C4E002025466868002800F0108102206F688DF87C
:200D600028003988ADF82010FA78B97808A823F0BBFA3BE225466868002800F0FE80022189
:200D80008DF8281001884FF6FF70884205D0821E8A4202D0C01E88420BD12BF023FCADF819
:200DA00020006868C27A837A811C08A825F050FE687068680188ADF82010C27A837A811C7E
:200DC00008A825F045FE11E25C5100209C4C002025466C68002C00F0D08002238DF8283096
:200DE0002188001DADF820102279B4F80680267AD4F80CB0277CD4F814A061880468119248
:200E0000F2190F2000EB42005FFA80F9B9F14E0F00F39B802BF0E6FB884233D1217008120F
:200E200060702AF03BFDA41C014620462BF0A5FD04461198207084F801804FEA2823A3704F
:200E4000E670241D66B15846A41E017804F8021F30F8021B761E4FEA21216170F5D1A41C43
:200E600027705FB1641E5046017804F8021F30F8021B7F1E4FEA21216170F5D1954820220A
:200E80004B465EE0184661E025466A68002A74D002218DF828101188ADF8201053889488F4
:200EA0009679D2F80880177BD2F8109042684FF0060EF1190EEB41015FFA81FCBCF14E0FB3
:200EC00043DC82469DF828000F2818BF022808D1BDF820004FF6FF71814204BF891EADF801
:200EE00020104FF6FF71994208BF8B1E02F8013B191202F8011B02F8014B201202F8010BCD
:200F000002F8016B66B14046921E017802F8021F30F8021B761E4FEA21215170F5D1921C01
:200F200017705FB1521E4846017802F8021F30F8021B7F1E4FEA21215170F5D15046724656
:200F4000634608A922F0A6FE00E010202C4600F046BC2546686880B102206F688DF82800FB
:200F60003988ADF820107988052208A82AF0A4FA2C463BE12546686808B92C4635E1022017
:200F80006F688DF828003988ADF820103A79798808A829F069FF29E16068002800F02581C2
:200FA000022260688DF828200188ADF82010418808A82AF081FA19E16068002800F015819C
:200FC000626810889178D27827F060FC0EE16068002800F00A816068017A427A22F00EFB75
:200FE00004E16068002800F0008141788DF8201081788DF8211000782AF06CFA08B90220B3
:20100000EDE30C3008A902222AF078FC0020E6E3F44B00206168002900F0E780A0680028A0
:2010200000F0E380087808A929F059FD6068A168007808709DF82000A16848709DF82100D0
:20104000A1688870EBE26368002B00F0CE80187D2AF094FA002800F0C8809D691C331F7805
:20106000002F0CBF002002205F780FB140F010009F780FB140F00800DF780FB140F02000E7
:201080001F790FB140F040005F790FB140F0800081466068007D2BF0AFF95FEA000800F030
:2010A000A4806168887A8DF829008889ADF82A00087802288DF828000ED001280CD00F2842
:2010C0000AD003280BD1891C08A808222AF016FC616804E0984B00204888ADF820008F7B35
:2010E000002F73D078001DF04DFC061C08BF10207CD000216068877B8F4261DCC18A838CF8
:20110000CDF84480826A16950C2F139190F822A01493BDF8208015924CDA404622F002FD26
:201120000C2816D14FF6FE7022F0FCFC0C2810D1DFF80CC312999CF82C3100200CF59A7C49
:201140001CF8082B9342C4BF131C081C491C0C29F6DBBC4D4FF6FE7305EBC00568686B8003
:2011600018B127F045FB0020686077B14FEA470B58461DF007FC6860002808BF10201AD035
:20118000686831465A462AF0B9FBA5F80280C9486F70159B0078169F287011990093139A2C
:2011A000019708A8CDF80890149BCDF80CA00DF0BFFD00E002206070304627F019FB19E342
:2011C00000694A00105A491CB05293E7886A00900195CDF8089091F822000390CA8A8B8CF3
:2011E00008A841460DF0A4FD00E002202646F6E0606828B300782AF0C1F9071C20D0387B21
:2012000024F076FB0028607040F0F48240464568002D00F0EF822E46002116B9B74202D0BB
:20122000E8E2B74209D1BD4219BF386808603968416038462BF051FBDCE231463668ECE765
:201240002646CBE026467068002800F0C78000782AF094F9002840F0BF802AF00FFC0428CD
:2012600000F3B8800027284677702AF079F9041C01D0207B68B11C201DF084FB041C00F0BE
:20128000B98239461C221FF0E8F9DDF84890257100E0B9467068007820737068007A454684
:2012A0002076A81C206114201DF06CFB0028606141D0394614221FF0D0F9716862694968CF
:2012C0009079897900F0F00001F00F01014391717068406861698088888070684068616938
:2012E0000078087070684068616940884880706840686169C079C871706840686169007BA3
:2013000008736069C07940001DF03CFB616988606569A86818B13846E979814250DC287B01
:2013200040001DF02FFB286161690D691DB138460A7B82423ADC04F10C00804619F08EFA6A
:201340000546022D18BFB82D06D1207B24F0D0FA404619F083FA05463DB9B9F1010F20D10F
:20136000204626F0BDFEC8B11BE0B9F1010F15D0606968B183681BB1184627F039FA606919
:2013800003691BB1184627F033FA606927F030FA4046394610221FF060F902E020462BF067
:2013A0009CFA022D18D0B82D16D023E273685B6842001B690969D35A53526169401CB7E744
:2013C0007268526841009268AB688A5ACA526569401CA1E7D12002E0D02000E0022034463A
:2013E000B0E16068002800F07081A068002800F06C81002108221FF030F9616808784988E1
:2014000028F0B8FA071C19D00020A168607038880880A168B8788870A568A878002800F03F
:20142000E9811DF0AFFA6860A2685068002800F0E1819278F91C2AF061FADBE1B120D5E6AC
:2014400088300020B43100206768002F00F03D81A768002F00F039810025664660686570AD
:201460003768017828463FB13A79914204BF401CC0B23F68002FF7D1A1680870A068007840
:2014800040001DF07FFAA168376848606068A16800784968002F00F0AD813A79904204D195
:2014A000FA886E1C21F81520F5B23F68002FF4D1A0E1C0460C4C00206768002F00F005811D
:2014C00000276068677064460678206890B101798E420BD1002F04BF0568256002D0016810
:2014E0003960056827F084F9284601E0074600680028ECD11EF03CFC7CE102206768607005
:20150000002F00F07781664639787A883068002800F0708100270379994202D1C3889A423C
:2015200004D0074600680028F5D163E107B967460168396027F05CF91EF01AFC6FE06068DA
:20154000002800F0C280807800280CBF0022129A60681299008820F0B4FE47E6616800299C
:2015600000F0B380887828B1C87800280CBF1299032100E000216268107908B141F04001EE
:201580001088527914F088FE30E66068002800F09C80284629F0E4FF061C13D11C201DF093
:2015A000F1F9061C00F0268100211C221FF055F83571304626F094FD20B9304627F018F993
:2015C000D12013E6F0888D4940F00800F08040F00400F08002202BF05FF8894903202BF0E3
:2015E0005BF860680168089100798DF82400129F8DF825708DF8267008A821F03FFFF5E5ED
:201600006068002861D060680088002103F0E8F8F0E06768002F58D060680078707000202F
:20162000E4E5784867680578002F4ED0606800212A2261701FF011F8708F61680880606852
:20164000B6F84870857261688F81F08F6168C8826068082206F1240707F139010E302AF024
:201660004DF92AF01BF9014660680822801C2AF045F96068082207F11C0118302AF03EF929
:2016800096F83C10606880F82310129861685E4D81F8200029784A0824BF626882F8240008
:2016A0008A0824BF626882F82500CA0824BF626882F826000A0924BF626882F82700C909FA
:2016C00024BF616881F8280094E002203AE0606800283FF48AAD90F900504C48006810A925
:2016E000D0F830248DF84050E0209047A06800B1057094E76768002F3FF477AD0021129819
:201700006170626810706068417060680227877060680626C670616803250D716AE06068A2
:2017200000283FF462AD407818B1FF20032126F0CFFE2AF063FF129835490860FEE7122075
:2017400054E50020607055E021461FF017FA50E0002030496070E7780F704BE00020607012
:201760002AF077FD4FF4FA7029F04EFB42E00020607028F015F93DE008464FF4807122F0E3
:2017800047F94CE7214621F0A8F832E0214614F0A3FE2EE021461AF0C9FE2AE021461EF0DB
:2017A000DDFE26E0214623F0DAFE22E0214623F023FA1EE021461FF06BFE1AE021461BF014
:2017C000F9FA16E02AF042F909E0214622F0ECFA0FE02846214607F089FD0AE01220804660
:2017E000FFF790BA214606F06DFF02E0214606F0DBFD1290129817B0BDE8F08FF96C02002B
:201800004DC10200744A002016660020140100207C052043C44500202DE9F04704464FF620
:20182000FE70ADF1600D217AADF85400606808AA15F06AFE002800F03C849DF822000228FB
:20184000B4BF012700279DF824000228A8BF0027BDF82A1000254FF6FE70801F88420ED047
:201860004FF6FE70401F884209D04FF6FE70001F884204D04FF6FE70C01E884200D12F46A2
:201880002AF0AAFE9DF82310884240F01284002F00F00F84208D9DF82660678EADF84C00CE
:2018A000ADF82E7056B161689DF821209DF83C3001202AF06BF8002840F0FB839DF82570A0
:2018C000DFF8F8A2DFF8F8821695002F4CD19DF83D002F4658BBBDF82A00034625F012FBAB
:2018E0003E46022808BF0126002E9DF8226018BF012751460988994208BF47F0020727B126
:20190000002E14BF402120210F43184625F0FAFA012808BF47F00107002E3ED012980078DE
:201920002AF04FFC012818BF27F0010735E09DF8411041B1FF2906D09DF84000119A26F0A2
:201940008BFF50B129E0B8F83A00BDF82A10884206D098F84A0004281FD1012016901CE0C1
:201960009DF82660222721E0BDF82A10FF2028F001F8002804BF3E1C082708D09DF82500DD
:2019800047F001062C2740F001008DF8250006F00306012E08BF47F01107169B9DF82660CB
:2019A00007F00200184308BF47F0800796B998F82F0078B107F0220022280BD007F04200A0
:2019C000422840F0768312980078062818BF072840F06F83B8111690F80954D398F83200A3
:2019E0001299BDF82A2080080AD20878C01E01282AD9001F28D0C01E26D0801E24D003E0EF
:201A00000878401E0A281FD9F5B9B8F83A00904240F04F830D780520BDF82C408DF81100F1
:201A200004A829F011F9002800F043830269032313271370511C0F704C7022128A70CD7098
:201A400044800BF06FF834E3169840081BD30878032802D148780D2815D09DF8280038B167
:201A6000BDF82C000E990FF085FB012800F01D839DF8270038B1BDF82A000D990FF07AFB08
:201A8000012800F00F83B8F84800B4F84410884208D10095208DB4F8421094F846202B465D
:201AA00015F0C0FE9DF82600002847D0208DB4F8421027F023F89DF85190061C27D1B9F152
:201AC000000F13D198F89000012839D112980078062802D11698400832D2BDF82E104FF66B
:201AE000FE70401C884240F0A580E2E2042028F0D4FF011C00F0DD826420087001274F70DB
:201B0000208D488098F8000023F0C2FDD1E29DF82130606819184A7BF1788A4202D0F2702E
:201B200075606068C0180421401C29F0ECFA7168814200F2BE82401C706001E09DF851905F
:201B400098F832008008C0F0B482B9F1000F0BD0BDF82C0029F07EFE002800F0AA8261683E
:201B6000487800F0DF0048709DF8320038B161688879401E8871C0B28DF8320008B907F06C
:201B80007F07380928D39DF82500F9084FF4805518D279091ED3811011F0070F01F00706AD
:201BA00004D0072E1CBF761EF6B20EB907F07F0700F0E30040EA8600C0B209E0BE470020BE
:201BC0008447002020F01C00C11021F0030108438DF825006168087298F84A00042800F0DA
:201BE000EF81092800F0EC8117F0610F40F0E9809DF82200012811D112980078052800F0D6
:201C0000D98003280AD1BDF82A0029F023FE28B1218D08A815AA002300F0AEFE9DF83200D0
:201C200068B99DF82200012804D112980078032800F03F8208A8214622F08AFC39E229F0ED
:201C4000DAFA002840F035829DF83D00002870D1FA109DF82400BDF82A1016920028ADF83F
:201C600054102ED13A0931D29DF82220012A28D0084600211FF056F9002620B1407901281B
:201C800016D0022814D0BDF85400B4F8441026F035FF28B1807828F033FF08B1082807DB17
:201CA000BDF82C0029F0D6FD18B104208DF824000126BDF82A10002E08BF022274D09DF8B9
:201CC0002400169A520838BF002300D340230DF13D021FF061F930B16168087845F020055C
:201CE00000F03F0008709DF83D0040B1BDF82A1010A825F0E7F845F04005ADF854009DF8D7
:201D00002200012806D0BDF82A00BDF82C1000221DF0C6FA169840082CBF40220022BDF8C9
:201D20002C10BDF82A0018F099FB08B145F0200533E09DF840009DF84110119A26F08CFDC1
:201D400000282ED09DF8410038B9BDF82A00ADF854002AF0A2FD00BB1DE011999DF8286086
:201D600001EB400030F8020C002EADF854000CBF082010209DF827600EB10830C0B29DF89D
:201D80002560002106B1012140186168401CC2B2505C401E505445F0400528F053FC16909E
:201DA00098E0BDF82A100B22BDF82C00002324F0E5FB7EE1218D08A815AA002300F0DCFD2F
:201DC00077E10020169078085FD3B4F828909DF833C0B94E09211698F279944506D1BDF898
:201DE0002C303288934201D1B3782BB9491E06F1080600F10100EFD1092825D096F806A09F
:201E0000BAF1000F1DD0B8F84810484627F0BAFE10B1AAF10100B071A84815210279FF2A6E
:201E200002D00288914504D0491E00F12400F5D102E0B079401EB071B0792628A4BF169848
:201E4000B07127F0600720E028F0FCFB16909DF8320020B9208DBDF82C10884215D0218D93
:201E6000169A08A813F098FE58B1380932BFBDF82A004FF6FE70401C45F00405ADF8540009
:201E800003E0002027F020071690B8094FEAA71610D394F8473094F846008DF81130E26BD9
:201EA00094F948308DF8100004A908A88DF8123005F098F870080DD3218D169B08A815AAB9
:201EC00000F05AFD169028B112980078012808BF45F01005BDF854104FF6FE70884204BF87
:201EE0000021169176490978012924D1218D421C8A4220D0BDF82A20401F90421BDDBDF816
:201F00002C00884217D02AF0C8FCA0B10179012918BF02290FD101218DF810104088ADF8FB
:201F20001C0004A822F0BCFE28B105A822F0E0FE08B128F005F937F07F0000F0BA8016984A
:201F4000002800F0B68020891CF01CFD071C00F0B0806168228929F0D1FC002605969DF872
:201F600022008DF8100016990091B146019504ABCDF80890BDF854100393228D237A384658
:201F800019F066FBC0B998F80100002800F09180BDF82A00ADF81A004D468DF81E508DF8FB
:201FA0001D50BDF82C70ADF81870169E8DF81C6006A829F0DBFD7CE0384626F019FC78E085
:201FC0005146BDF82A000988814209D024F09AFF022805D09DF8250000F00300012868D1A3
:201FE0009DF8220000284BD012980178042903D19DF83C1002293ED00178072905D19DF895
:202000003C2098F80000042A06D0032951D108A8002117F019FD4CE04FF4806122F05CF8DE
:20202000274F0920002188F84A00F81C017029F035FC01460D9829F011FB012839D11020D3
:2020400028F02BFD07460E991298401C8FB302223A704378027802EB03227A808078787015
:202060004A2025F00DFD9DF8260010B9154905200870394646E5002008A90DF077FE18E073
:2020800094F8460094F8477094F948608DF81000E26B8DF8117004A98DF8126008A804F0C6
:2020A000A1FF06E0BDF82A0001E0BDF82C0023F017F918B0BDE8F0871C310020143500201C
:2020C0000D4C0020744A0020674A2DE9F04FADF14C0D10780F91090C80F01E840F999346DC
:2020E000890B80F0EF830F99890980F023830F99490980F0A5820F98DFF87C91C00980F0C5
:202100002A825A480F990078090A80F016820F98DFF85CA1DFF85C81400A80F0AF800F9877
:20212000000B80F08B800F999BF80300490B7BD254460F99606AC90B60D20F992078890857
:202140002ED20F98E188800A0DD20F98C00A08D3BBF84800012124F059FC0F9880F4806039
:20216000F9E30020F7E3BBF84850ABF848105020A11D25F085FCE6881027444660898542A0
:2021800005D0864204D0204629F023FB00E066817F1E04F11C04F1D10F9880F40070DAE3AE
:2021A00040B301A82AF081FB2AF00AFA49460546032091F8208091F821608DF80D0003A862
:2021C00028F042FD071C15D038690B2100F8011B00F8018B06700126BE7729F05FFB78621C
:2021E0007D807E7701A838620023BE76384623700AF098FC0F9880F00200ACE380B149464C
:202200001131097801290BD18047A06A00B180479BF800004FF480414FF47A722AF086FB4B
:202220000F9880F4804096E320B100208BF8030024F064FB0F9880F480508CE324F05EFB99
:202240004946887901280BD1C97949B19BF800004FF47A7212FB01F24FF400612AF066FBCC
:202260000F9880F4006076E384470020965200202849002054330020F44B00202AF0B2F93B
:202280004FF6FE71814200F054819BF832008008C0F04F8100252C46284627F09DFE071C5B
:2022A00019D03879012816D0022814D0F879411CF9719BF88B1081420DDABC727C7238887B
:2022C00026F0B6FE388801A928F0DEF801A822F00FFD27F035FF6D1C152DDDDBA8F11C068C
:2022E00010274FF6FE75119436F81C0F85420CD0307B9BF88B40411C8442317305DA1198F6
:20230000B0747074308826F093FE7F1EECD15446032104F1380010F8047F0FB17F1E0770B2
:20232000491EF8D1BE4C152605F1010934F8240F81451FD001208DF804006788ADF8107056
:2023400001A822F0ADFCA8B1A8F11C05102735F81C0F2188814208D0BDF80610814204D0D1
:2023600002A8A91C29F07AF910B1284629F031FA7F1EECD1761ED9D1119D2C46284627F0B2
:202380002BFE48B1017931F0040105D1807A28F0B7FB08B1641CE4B26D1C152DEEDB28F066
:2023A000B9FA119E5FEA00080ED03546284627F0FFFB28B1807C28F0A3FB08B1761CF6B214
:2023C0006D1CEDB2A845F1DCA019C7B2002F41D0B8001CF0D7FA1090002808BF119F3BD0CA
:2023E000BA00FF211EF039F9119E3546B44218DD284627F0F1FD031C10D0187930F0040087
:202400000CD1987A28F07CFB011C07D0009718885A7A109B1CF0CAFF761CF6B26D1C152DBA
:20242000E4DBB8F1000F17D0119C204627F0C0FB061C0AD0B07C28F063FB011C05D0009732
:20244000109B3088727C1CF0B1FF641CE4B2A045EBDC01E0119810909BF83000002808BFD1
:202460004FF0620805D029F08BFDC0F154005FFA80F80320B8F1600F98FBF0FAA8BF4FF009
:202480001F0ADDF840904FF6FE7BABF1020BB8F1000F0EBF119D2025DDF84480BA45A6BF92
:2024A0003C1C45F040055446032014FB00F0801C8DF8050001A828F0C7FB4E46031C26D03C
:2024C0001869082104F01F02017045EA02014170801CA4B12246C01E361F16F8041F00F834
:2024E000031F318809124170B17801F0070CF178521E01F0070141EA0C118170EDD1A3F8A4
:2025000002B00120987618460AF00CFB00E00120E90906D2641EE4B20CB109EB84093F1B00
:20252000FFB205F040052843B1D0109808B126F05FF90F9880F480700DE230B9BC48817815
:20254000012902D100214170817023F027FC0F9880F08000FFE1B74C0925002106264FF051
:202560000408A778002F3FD07F1EFBB26079A37029F04AF8071C36D05BB9787B022808BF40
:202580007E7330D07E733868407BF02123F01EFF29E0A3791BB9787B032812D023E0237925
:2025A0000BB3E078401EC3B2E370E3B99BF82500E0702079401EC3B22371787B032812D13A
:2025C00023B92046394624F03DFD0CE087F80D802AF0F2F800F00F00401C38819BF8000049
:2025E000202121F015FA01216D1E04F10804B8D19BF80000012915D0402121F06DFD494636
:2026000091F82700012817D14846002180F8271090F828001AF014FD27F092FD0CE0C04638
:20262000F0340020402124F0ADFC28B99BF80000402164222AF07AF90F9880F040008AE18E
:20264000102124F09FFC30B99BF8000010214FF47A722AF06BF9C148DFF80483417808F523
:20266000C674491ECFB217BB012141700020052128F0BAFC071C1BD006253846052128F08A
:20268000B3FC0646388978B1401E80B2388158B97889C00802D3387B26F0B2FC7D73386856
:2026A000407BF02123F092FE371CE6D100E0477028274FF6FE7600252079A0B1FF2812D0EA
:2026C000401E2071C0B270B96079032805D160882188022220F028FB6079012803D0268033
:2026E00066806571A5717F1E04F10804E4D108F1DC040827207A401E2072C0B230B99948E7
:20270000214626F0CDFD90B9668025707F1E04F10A04EFD1944A0C2112F8080F08B1401E0B
:202720001070491EF8D10F9880F0100013E123F077F9E4E7202124F025FC28B9DBF8100046
:20274000002808BF012615D02AF0BEFA874909684FF47A774843B0FBF7F1DBF8100000280E
:2027600008BF002004D088428CBF4FF0FF30081A46086AD00020042128F036FC071C64D08B
:20278000FF254FF0FF3A06244FF001093846042128F02AFC10903889864204D8801B83B274
:2027A0003B8113B14EE000203881BB7B012B02D17889C00840D3002B36D08DF804508DF8F2
:2027C00005508DF806A03968086AC97F02AA14F09BFE4FF00008012808BFC8465FEA08003F
:2027E0001DD0788A40F08000ADF83600B87B8DF838007889000908D3BDF8360040F480707B
:20280000ADF83600387B8DF83A007B6913B1187BADF8180001A9002202A804F0E3FB7C733C
:20282000387B1DF0E5FB0DE087F80D900AE0C046FC3E00201C3100207C733868407BB72116
:2028400023F0C4FD109F002FA0D110F0A1FA9BF800300020012128F0C7FB18B11846202173
:2028600021F0D6F80020042128F0BEFBB3B278B15A460789147828F0B7FBF0B9BB42AEBF3C
:202880000027FF1ABFB2204627B9202121F0C0F800200CE07A0020212AF04BF82AF014FAEB
:2028A000324909684FF47A774843B0FBF7F0CBF810000F9880F020004DE00289BA42D8BF86
:2028C000171CD8E72AF075F8294C0546201D0068074698B157F80C1C9BF8000021B94FF45D
:2028E000005120F08BF903E04FF4005121F090F8204639460022001D26F0B4F928462AF074
:20290000DFF92FB13846FEF787FF384628F0DCF90F9880F400501EE021F04CF8071C17D0D3
:20292000144920310A78FF2A0FD03C780B460020944207D0401CC0B2C200D1189A5CFF2AF5
:20294000F6D102E0496838468847384628F0BCF90F9880F4004013B0BDE8F08FBC5E002009
:202960008830002095660200AC31002038F10200AC53002008E502002DE9F04F06469346D2
:202980000020ADF13C0DABF80000B06A099303460078884629F015FC48B17089044624F0CE
:2029A000B1FA022804BFABF80040B36A01D0002009901878C84DDFF82493401E0A2800F240
:2029C0000B84DFE810F02F03B3020C04A0028D0151010904BE00880066000B00BD4C607C7F
:2029E000012840F0F9835B1CB06913F8015B1F7829F093FF002800F0F7830379002B00F0A0
:202A0000F383032B80F2F0830E2D1CDCDFB9D04907752DB901EB85010A6AC261096A0AE081
:202A200001EB85010B6A9A01A2EB8302C2610A6A9101A1EB82018161012180F8201027F007
:202A40007FFB002500E001250320B689247F8DF8190006A828F0F8F8071C00F0C58338697C
:202A60000C2100F8011B00F8015B04700124BC7728F014FF786204A9304627F005FD10B1F3
:202A80007C7704A838627E80BC7638460AF04AF8AAE35C1C207820F01F0700F01F00012808
:202AA00040F09A83641C04A8214629F066FF284604A95D3028F0D2FD002800F08D83002FD2
:202AC00040F08A830834A2786178207801EB022125F0CAFB88E3688F7189884240F07C83B4
:202AE0005C1C14F8016B04A8214629F046FF284604A95D3028F0B2FD06F01F0726F01F06AF
:202B0000002800F07183002E40F06E8378001BF039FF011C00F0688367B18446083438460B
:202B200063782278401E04F1020402EB03222CF8022BF5D100910FF08CF8084625F058FED1
:202B400052E35C789A1C34F07F0704F01F0E40F04B83377F03201EFB00F0801CC1B2B94201
:202B600040F04283002714F01F0F04BF4FF6FE7C614618D0D9789B7870464D4603EB012C2E
:202B80005378117812F802EF01EB03213EF0770340F02A832B888B4208BF0EF00707521C90
:202BA000401EEDD1BFB960464FF6FE72824212D004F06002602A0ED04D462A88A30907D2F8
:202BC000E30902D2904203DD0EE3904203DD0BE39142C0F20983B08929F05FFE002836D103
:202BE000B0894FF6FF7126F0CDFF041C14D125F06BFF041C00F0F88200211C221DF02DFD61
:202C0000B0894D460E35208028886081AA23A3740222227401216174207C022805DD022015
:202C2000072F2074BCBF7F1CFFB2677400202073A01C28F059FA002840F0D682307A0028CC
:202C400000F0D282B169A01C29F097FECCE20021C171017A022905DD0221072F0172BCBFDC
:202C60007F1CFFB24772BFE2484671890088884240F0B282307F022840F0AE82AA4C201D04
:202C800000884FF6FE71814240F0AE82162027F004FF071C00F0A88201213970B07900282C
:202CA0000CBF081C02207870B06A4078B872000902D2B08924F0D4FFB169B81C29F05DFEC0
:202CC0000020F8742878394622F0E2FCB089A0808AE2C046F44B002084470020BE4700201F
:202CE000708924F00FF9002840F076825F78B94987B10C2F03F1020380F276828C463D466B
:202D00005A7818786D1E03F1020300EB02202CF8020BF5D1484675890488DFF8D892AC4282
:202D200000F0B280B37C002B00F05E823B1C0A974FF0000811D0A74A38464146921E32F857
:202D4000023F9C4206D0401E01F10101F7D104E08CE802000A914FF00108284600211EF08A
:202D6000E1F800280B907ED0407901287BD10B98807910F0180F76D00B984188384628F030
:202D800051FC10B9B8F1010F6DD109F533794FF6FE704FF000080C97B6F80CB0CDF8209000
:202DA0004FF0010A0D90C14611E0B8F1010F08BF4FF0010908D029F0FFFCC0B290FBF8F199
:202DC00001FB08F1A0EB01094FF00008C246089D10271C3D35F81C4F4FF6FE70A04213D0D5
:202DE000A34511D00C98214628F01CFC60B96B7C53B1072B08DA08F10100BAF1000F5FFAAA
:202E000080F801D1C14521DD7F1EE3D1B34D152735F8244F0D98A0421AD0A34518D00C9852
:202E2000214628F0FFFB98B96B7A8BB1072B0FDA287901280CD002280AD008F10100BAF13D
:202E4000000F5FFA80F803D1C14501DC0D9407E07F1EDDD1B8F1000F02D0B9F1000FA4D051
:202E60000D980B994880B37C5A4C581EB074F77C00970A9D0195029401220392B189B269E8
:202E800070891AF08DF8AFE1B4890C2F80F2AC818846ADF81040BD488DF812700168CDF806
:202EA000148009B104A88847204620F03BFE0C2803D14FF6FE7020F035FE0C2880F29481E1
:202EC00009EBC00505F59675686808B125F090FC2FB178001BF056FD686010B984E100203E
:202EE00068606C80C2486F70007828706878002800F07A816868002800F076817A00414652
:202F000028F0FCFC70E1307F022840F06581099828B94D4671892888884240F06581099821
:202F200031460CF023FF5EE128490020B5F84810404625F0E3FDA846074608202FB17D7874
:202F40001DB90221397007257D70B16A0A79CC788B794D7891F802A0CF7904EB02244A79C0
:202F600002EB03296A0928BF1020AA0924BF0830C0B235F0700340F03781327F904240F03B
:202F8000338105F07005680938BF002006D306A8083129F0F2FC25F010050820A90907D3E6
:202FA000B16A091804A8083129F0E7FC25F020052046514626F018FC08280DDA8D4B410063
:202FC00001EBC001C9188879B84240F30D818F71002002E0A63000200420B8F83A10A142AE
:202FE00019D048B9B189484601222B4612F070FB28B1F9E088300020042840F0F58006A815
:2030000004AE009049463A46534601962046029516F026F9E8E0B189484601222B4612F0E7
:2030200057FBE1E0B5F84810404625F067FD4FF00609041C03D06078002800F0CD80B06AE1
:20304000817847780891C378017900F1050A03EB01200990404622F041FB9AF8001009182B
:203060005FFA81FAB80928BF4FF00E0937F0780040F0B28007F01800182800F0AD80307F62
:20308000814540F0A9804FF00009CDF800900899B089524643461DF0B9FF032800F09C807D
:2030A000002807F078074DD117F0180F18D195F8310028B1B089414601223B4612F008FB3D
:2030C00009984FF6FE714A463B4612F001FB002838D14FF6FF70ABF8000039E0F0340020A7
:2030E00047F00107780928BF47F00207B08939461DF018FF90B1817911F0180F0ED0417912
:2031000001290BD154B14088B5F8481025F0F6FC20B1437813B1607898425DDCB0894146D5
:2031200001223B4612F0D4FA60B94FF6FF70347AABF80000002C0CBF4946B169B08952468C
:2031400028F0ACF9BBF800104FF6FF70884243D1012000900899B089524643461DF056FF4F
:203160000998394624F0D8FB698F81422ED1099829F093FB60B10079012818BF022807D1BA
:20318000099804A927F080F908E0C046B84A002028F084FB014604A829F0EFFB307A0128E1
:2031A00003D1B16906A829F0E8FB06A8009004AF0197B06A407840F0300002900999089BE5
:2031C000B0894A4616F04CF848460CE0B06A80F805A027F037FA06E04FF00009F4E7099938
:2031E000304616F031FC099009980FB0BDE8F08F0C4C0020643100202DE9F04F974C04F1AF
:2032000028000368ADF1540D13B1002083F83100DFF850820025A94613F1340711D05B6CE8
:203220008F4EB7612BB940460068D0F84C058047B76978687060F86818B1103630608A4F3F
:203240003E6029F0B6FB1290082017F059FF1EF019FB464610B1BBA029F02EFD21F018F8AE
:203260000CA829F0A9F804200CA98DF83000284629F0AAF8E06328F0D9FD04A828F0FCFF39
:20328000042004A98DF81000284628F0FDFF606328F0D6FD08A828F0FFFF042008A98DF878
:2032A0002000284629F000F8A063616B19B9ADA029F002FDA06B10B9AFA029F0FDFCE06BE9
:2032C00010B9B2A029F0F8FC3068D0F8E00380473068D0F818028047D8F800002F46072609
:2032E000A03001687B5823B118468047D8F80000A030761E07F10407F3D1D0F8B802804785
:20330000EB2029F075F9A06A78B16846FF2108221DF0A3F9A06A6946082227F0C5FC04F197
:203320002806012818BFD6F8009068469C4A13900CCA5FEA090180E80C0021D108201BF008
:2033400021FB5FEA000956D0A9F10206032729F033FA06F8020F7F1E4FEA20207070F6D1FB
:203360001020F82706F8020F4946082204F1440089F8077028F0C2FA484625F039FA04E077
:2033800004F14400082228F0B9FA012008216A4629F0CAF904F14406002818BF092826D1C3
:2033A00027F0D1F880081DD26846FF2108221DF054F902AFFF21082238461DF04EF9012076
:2033C000294608223B4628F07BFE80B938466946082227F069FC28B930463946082228F01E
:2033E0008DFA04E001200821324629F0A3F9E220314624F045FB27F0A6F8400834BF2E1CE4
:203400000126D94F5520012107F13A0229F08CF918B916B1284626F0D9FAD44FE22007F1E8
:20342000480126F0C9FE304620F0A4FD6846294610221DF012F9B94699F80E0030F0010019
:2034400017D1CB4F69461022384627F02DFC68B939466846102228F051FA0AE0083800209E
:203460001C4800201401002068540020684625F03FFE622010216A4629F056F928B926B134
:20348000622010216A4629F055F96846294610221DF0E3F8304616F03BFE304624F096FA5C
:2034A000304617F043F8684625F022FE40F2011010216A4629F038F930B92EB140F20110F8
:2034C00010216A4629F036F96846294610221DF0C4F81EB12846012124F0FAFF24201BF0F0
:2034E00051FA0028206400F09E81E06A216B221D1EF0B8FFD8F80010D1F84C138847216C88
:20350000201D0860E06A216B04F108021EF0AAFF12F0DAFB216C04F108004860E06A216B9B
:2035200004F10C021EF09EFFC94ECA4F3070216BD4F82CC0266C2B4607F1100006F1080EB1
:2035400034E0C04652616E646F6D5F736565644175746F6D617469632829206661696C65D7
:203560006400C04641455343434D206F70656E206661696C656400C0414553454342206FEC
:2035800070656E206661696C656400C054524E47206F70656E206661696C656400C046C04B
:2035A000C4EA020040F823505B1CDBB2002BF9D07D61CEF80020604604F110021EF052FFE8
:2035C000A54FB870AB48B9F82C603D7009F14001BE8029F0D2F909F1500604F11003216CB0
:2035E00099F82300CB6004F114027870216BE06AFE601EF037FF9949994E0870994ABE603F
:20360000994B7A62206CBB6204F1140604F11802216B0661E06A11921EF024FF934EF071D0
:203620004FF0020A86F828A04FF6FE70308428F035F98F488F4906F1180B0560584629F067
:203640009CF9D448D4498160D44BC360D44A0261D4483822FF211DF000F8D348D44B836040
:20366000D44AC260D14941600570D34B0361D34A4261D449C161D24B8361D34A3A61D44983
:20368000B961D24B7B61D34AFA6106F1340017F0E5F809270BF12C007F1E40F8045BFBD138
:2036A000F07948F2010122F005FDF0794FF4004122F000FDF07948F2210122F0FBFCF0791E
:2036C00048F2220122F0F6FCF079202122F0F2FCF079212122F0EEFCF079222122F0EAFC94
:2036E000206C11994161E06A216B04F11C021EF0B9FEB94E48F21501307022F0DBFC3078BC
:20370000382122F0D7FCB64FB448F7604FF6FE7286F828A0216C7061B24B328404F11C07EF
:203720008F61E06A216B336104F1200632461EF099FE07460C484770024692F83B0008B1D9
:2037400089F80CA0A848C580C5608570456105744FF00109057048F2020180F80490384649
:2037600022F0A8FC06E0C046104E0020F44B00208CE80200384648F2010122F09BFC384673
:2037800048F2040122F096FC9948984F3049994B3861994A4B600846236C8260216BE06A65
:2037A000DE6104F124021EF05DFE944B207094499870284628F070FF9249484628F06CFF11
:2037C0009149042028F068FF9049062028F064FF8F49072028F060FF8E49082028F05CFF0A
:2037E00098784FF6FE71491C22F064FC8B4E8C4B8C4A894873609B49B2608C4E8A4B886275
:203800000846BE608B4A43628B4F894B8B4E10481A608B4AC76003461F461E61206C7A61D9
:2038200004F1240606628848864C0570D8F800102570864F6570D1F800616561F089D1F899
:2038400050123D70103080B288472061D0B913E01C520020C4450020904E002048530020AB
:20386000255F010081CA0100B9C20200744A0020A84C0020C44E0020D8F80000D0F84C05ED
:203880008047206900908DF804509DF8051005F0030221F003010A438DF805209DF8051015
:2038A00065F383018DF805109DF8051065F307118DF80510D8F80010D1F80011C9896F461D
:2038C0001031ADF8061021693B680B607A684A60E061256219F0F4FCD8F80400C16808788A
:2038E00048B9D8F80000D0F85824284601469047D8F80400C16856480570564F3D70087845
:2039000030B9D8F80000D0F85824284601469047129829F0D5F913F09FF826F0D9FCD8F838
:203920000000D0F8D40090F8430026F099FFD8F80000D0F8582429460120904728F084FB60
:203940004548D8F804700570F868007830B9D8F80000D0F8582428460146904719F03CF883
:203960003E483F4A07212B4626F09AFB1AF07EFF24F068F8102010A98DF840005A2024F0BD
:203980007FF84FF40040012111F0F6FA15B0BDE8F08FC04694520020E9FA0100357A010091
:2039A000D58C0100E43000207C510020E1B0000029AF02009D250200338C0200FDA50200F0
:2039C000B986020089AB020079AF010091980100B5A5020051CD0000084F0020C97F0200E2
:2039E000C598020069A10200F05F00208052002035C0020007630000D55902009453002063
:203A00009DC1020061C1020075C1020089C1020035BD02004DBD0200F95502005C51002081
:203A2000456E0200414D0200914D02007F6D0200904700205D640200E5A10100F9380200FF
:203A400009660200EC6300204B6700204D67002050670020446700204C670020DC5000201F
:203A600043CA0200104E00202DE9F04F9F48A14A01789F481170A04C4170A0490C30E060AF
:203A8000ADF12C0D086023F015F9A249A0489C4D9C4EDFF87892A246091D401D0A919A4956
:203AA00009908B46C4E1706AF769994B840004EBC004E4191F7810341B2F1FD11846B8A1D9
:203AC000042226F003FF002825D09148BCA1042226F0FCFEE8B18E48BEA1042226F0F6FE21
:203AE000A8B18B48BCA1042226F0F0FE68B18848BAA1062226F0EAFE00284FD1402F0BDD0A
:203B00005B2FBCBF2037FFB206E0FD2704E0FC2702E0FB2700E0FA2794F80580394620468C
:203B200017F0FEF8012839D0F169706A0D3F1BD00E3F10D0643F04D07D3F2CD0781E28D001
:203B40002CE0CF68B06A002F07BF8868401EC968F161706219E0B8F1000F01D06079A0B1C4
:203B6000316A8868401E0EE0820002EBC002521802F110010F681FB1896831B1884704E002
:203B80008968B06200207062F16100200FF0D2FD04E0002000E0012024F06EF95C480021AB
:203BA00005221CF05AFD70690999052228F031FEE88920F04000E881010A09D3002019F058
:203BC00059FDEA894FF67F7122F080001140E981410A08D318F0A2FBEA894FF6FF6122F4A1
:203BE00080701140E981800A04D3EA6C12B1E878082190470020E881DAF80810480AC0F0CB
:203C0000BA80CE48CE4F04783878012800F0848028F066FD011C00F0A88099F824808A7B04
:203C2000C64B89F82420B9F83A708A7B08691A708A898B7BA9F83A200122009200220192D5
:203C40000122029200220392049342780592406800232122069001200790F2200DF0BCF9EE
:203C60001E20CE4989F82480CB4AA9F83A70B34B087090681C7000282AD026490C68143423
:203C8000276857B102693969914205D007F114042768002FF7D100E097B9BF49CF687FB1A3
:203CA000786828F02AFEBC480021C0680A9F4160386828F022FEB8490020C8600F46B868B7
:203CC00028F01BFEB4490020886020680F46B860DBF8181028F004FD002846D008463221C6
:203CE00028F0EFFDCC4828F088FE3EE008380020201B002053670020A44800203C4B0020A8
:203D00009442002074270020C445002084470020AC270020005300209BF85A008749087043
:203D2000CC4999F82480BBF8583089F82400B9F83A70A9F83A3001220092002301930292F3
:203D4000039304909BF85B000590DBF85C0021220423069001200790F2200DF03DF989F809
:203D60002480A9F83A7075480470DAF8081021F48071CAF80810DBF80C008A0A4AD3071CA6
:203D800040D0C468F968A1422BD839468F6860B3D0F80880814215D00246434604E0C04664
:203DA0001B5B41001A469368FBB1F2B19942F9D198689060184628F0A0FDDBF80C0014E027
:203DC0001B5B4200C248006828F097FD4046CBF80C000AE01B5B43001B5B44001B00000040
:203DE0000000F968091BF960BF68002FC9D14CB1DBF81C1030B10846214628F062FDC148E3
:203E000028F0FBFDDAF8081021F40070CAF8080021F40071C80A07D320F046FEDAF80800F9
:203E200020F48060CAF808000FF064F822F082FBDAF804004FF0FF3128F03AFF0028F7D055
:203E40009AF800001FF0B6FD041C00F0818127782878C72F0FDCC72F00F0A280923F00F013
:203E6000DD80BF1E00F0D380313F00F0B0807F1E00F0CA80D5E0E03F64D0BF1E06D07F1E06
:203E800000F0BE80BF1E00F0B680CAE094F84000443080B228F0F3FD071C00F0C28004F183
:203EA0000408381D0C22414627F038FF20693861207D387594F915007875A07DB875E07DFC
:203EC0000A2208F11401F87507F1180027F026FF608C788494F8240087F8250094F8250002
:203EE00087F8260094F8260087F8270094F8270087F8280094F8280087F82900E06AF8626B
:203F000094F8300087F83000606B786394F8380087F83800E06BF86394F8402004F141014C
:203F200007F1410087F8402027F0F8FE384601F041FA384628F0E1FC73E0C046904E0020E8
:203F4000805200202779221D002007B1012028F0CDFB6779A7B1E7881FB9002028F0C6FB3F
:203F600017E05088401CA881874828F048FDA86C4FF47A7128F0A5FC834828F03EFD08E0C0
:203F80000020A881804828F03AFDA86C002128F098FC18F0C3F944E0F8520020005200201C
:203FA0007A4AA17B85F89210278AA5F89470271D3B6879681360FF28516002DA401CC0B2F3
:203FC0002870002019F056FB16F0E2FB29E02079E71C02280BD1E3784BB9607940F00200D7
:203FE0008DF820009AF8000008A928F03AFC384619F040FB15E0A188A01D16F095FC10E067
:20400000201D24F0C5FC0CE020F0CCFD09E0E01C0AF07AFF05E0C04638460020201D18F0A3
:20402000DCFA20784FF00108712823DC712851D0652811DC652867D0801F76D042387DD08E
:2040400018386FD0401E6AD0401E012876D9801E5DD070E01046002066384FD0801E49D05E
:20406000801E03286AD9001F40D0401E3AD0401E34D060E091280FDC91285FD0723802289B
:204080005CD9C01E20D0401E1AD0401E56D0C01E54D0801E52D04EE092380DD0C01E0128B3
:2040A0004CD93038062849D91B3847D0801E012844D9093842D03EE0E76A002F3ED036E0C0
:2040C000A768002F3AD032E06769002F36D02EE0D0450020E768002F30D028E0E768002F3A
:2040E0002CD024E0E768002F28D020E0E768002F24D01CE0E768002F20D018E0E768EFB187
:2041000015E0C0465C460020E768BFB10FE02746786908B124F06CFBFF697FB107E0676963
:2041200067B104E067694FB101E0A76837B1384624F05EFB02E04FF0000802E0204626F069
:20414000C3FDB8F1010F03D014B1204626F0BCFDE88900283FF450AD81090AD314F0D6FB14
:2041600018F0BEFFEA894FF6DF7122F020001140E981C109FFF420AD3078012803D1F078EE
:2041800001283FF490ACFEE7844300201C4300202DE9F04FDFF8ECA2B94C4FF0E0470125F1
:2041A000ADF12C0DDAF804002169C06808931F400570B54807924FF0000505704FF00200A1
:2041C00000EA020008BF002840F0C082DFF8BCB2DFF8BC824FF480301E462F4610403740A5
:2041E00008BF002833D1134628464FF4003210EA060702EA030208BF002A0ED137464FF408
:204200008002384002EA030208BF002A00F08F82284608711EF02AFA89E20871EB2024F0A5
:20422000EBFB5B462846414618700878862801D124F030FC28F0BDFBE1690A682B461371B9
:204240000968E16128F03CFD27F0FAF96FE22846DAF80070087107F1B8000268DFF8F09263
:2042600017784FB94B461F7837B1D0F894048047DAF800002169B830B64E81224B46FF25D0
:204280001A7027783570806CA7700023A3815E461D46097AC0893570891E8DB2A842C0F20C
:2042A0003A82E1690831096804F1180001600426A681DAF80020607EA17EE37E04F119062B
:2042C000B83200EB01206081717823711368ED1EC1F30119ADB219780696002908BFB9F110
:2042E000020F00F01882B9F1020F00F3148261B110F0070F00F00F8241460978862904D1AA
:2043000000F00701022940F00682011301F00201022967DA667800F0070002285BD1002EF5
:2043200059D1D06990F88300022851D0E1690C31097805A801700527A78128F03AFB454672
:2043400006462878862840D1DAF80000403001680F6837B9D0F80C058047DAF80000006CC2
:2043600007689DF9140028F06AFB7877DAF80000016C096800228A77006C9DF91410006857
:20438000C177304628F09CFC2679678928F011FB41460A7807F01007862A15D1C24D05F15A
:2043A0001E031A88521C1A8087220A7028F088FCE879B04206D11FB900201DF043FB07E01F
:2043C0001B20FAE7E920F8E70646304628F078FC27F036F9A1E141460878862803D124F026
:2043E00059FBA77866788FB186B9012F00F093816089022F03D110F0070F40F08C81032F46
:2044000005D100F00701032901D084E16089010980F08181011301F00201022902DA810A6D
:2044200080F0798106994978C1F38108B8F1010F4FEAA111099100F06E81012900F06B8152
:20444000C14AB9F1020F0BD0535C12F80870002907EB0301CFB222D0C10920D3BF1E0DE071
:20446000891808EB020709793A795218C109D7B210D2099958EA010611D0BF1CFFB20EE085
:20448000EC63002014010020E05300204D67002050670020099958EA010608BF0227C0F3EC
:2044A0000020391A60718D42C0F23581DAF80010ED1B2D18A8B2D1F850122081743080B256
:2044C000884766780028606100F02581002174221CF0C3F80020E07062891EB902F02000EE
:2044E000594608705846617906784FF0000C002E35D0002933D102F00700032808D00128DF
:204500002DD1DAF80000D0F8D40090F8826036B3DAF80400406906781EB127F0B9FCFE281E
:204520001AD0DAF80000D0F84C02804750B9DAF80000D0F84402804720B96289617994F808
:2045400003C00CE00420E0706289617906E0C0464B6700209D5100200420E070844665699B
:20456000268905F1740305F17400AB65069B686093F801B02E8120890029CBF301191E4643
:20458000A5F85C003078AA8100F0780049EA00004CEA000028744FF0FF03AB730CBF20791F
:2045A000002085F83A8085F84900099885F83000A089002FA0EB010086B2A68100F0A88035
:2045C000E169E78068463A468919083119F03CF9BF19B8B2A0812846027C4FEAAB0111F0AE
:2045E000030F01F003076D4602F040083ED0B9F1020F4FF0000301D1D1090BD29DF8012077
:204600009DF8001001EB0221A0F844100DF10205A0F842106D4EB0F84410728F8A4203D0B4
:204620004FF6FF728A421FD1032F10D06A78297801EB022189B24186328FAD1C01208A42EB
:2046400011D04FF6FF728A4218BF181C0BE060692946323028F091F960692F3631463230BE
:2046600026F0FCFF08350346002B48D006984078861120D06069B9F1020F03D0017CC909DD
:2046800003D309E058EA070706D16A782978AD1C01EB0221A0F84210032E07D069782A7864
:2046A00002EB0122028506E01451002060692946283028F062F9608900F00700032809D011
:2046C000012825D1DAF80010D431086890F88200F0B102E050460168D431D1F874116069BC
:2046E0008847A8B90020069FE070B97866697878C1F3011100F078000843307408E0DAF8AE
:204700000000D0F8FC14324888471DF0AFFF04E00FF0BAFA01E027F041FA28F04AF9E1694E
:204720000A68002313710968E16128F0C9FA079A089F202100201140384008BF00291BD085
:2047400026F046FF18E0C04650F00200214A92F90000002803DD92F90000401E10701E4AEF
:2047600092F90000002803DD92F90000401E1070284608711DF07AFF174A92F9000098B19B
:20478000079B089F02214FF0E0401940384008BF002912D092F9000000280EDCDAF800003C
:2047A000D0F84C05804708E0DAF800700B480021D7F85824017008469047DAF80400C0689C
:2047C00000210BB00170BDE8F08FC0461C48002040520020E2530020E1530020DE53002032
:2047E0002DE9F04FADF1340D00220024099093480A91011D88460A70402242712146C1731A
:204800008F238371502646720022C2710272A02282728189827341F43051818121460268BD
:2048200001748749C47211404CF210120A43CB490260DFF82CB381F8323022469BF80000FD
:204840000B9260B920461FF095FBC44890F83200000911D3204608A98DF8200009E00846F7
:2048600090F83200000907D301200DF121018DF82100522023F004F927F0C4F8DFF82093D5
:204880005FEA000A40F0C88011F074FC5FEA000A40F0B6802046B14A0C90742124322120FA
:2048A000154627F041FF002858D12120214674222B4627F005FC002850D1A848408F4FF6E1
:2048C000FE7181424AD00120A44F0C9097F84A00082806D0042804D014F00CF920460C90F2
:2048E0003CE00C9C42200DF122018DF8224023F0C7F805F12F01432023F0C2F805F12C013F
:20490000472023F0BDF805F11C014A2023F0B8F805F11A014B2023F0B3F805F1240130465D
:2049200023F0AEF805F11601532023F0A9F805F12D01542023F0A4F805F11801E12023F020
:204940009FF8384690F83200000938BF0B9C52200DF122018DF8224023F092F80B9C14E02F
:20496000DDF82CA04FE00B9AA60006EBC40621460C23F0190090012023F090F918B9B85D8F
:2049800080F0FF00B855641CA4B2B9F80000D9F80470A042E7DC13F059FA9E48001D006869
:2049A00000B1804721F0FAF80C98F8B127F01AFEABF8200028B998F8000000F0F80088F864
:2049C000000095480E300078022818BF012004D1624A002182F84A1003208BF80B0039358D
:2049E0000BF11800294627F0C8FF01E04FF0090A874C0020608021F0E7FFBAF1000FAFD020
:204A0000834C4FF0010A554890F83C10012707FA01F0CBF8100091E011F0ACFB14F06AF8A0
:204A20004E4A21207421243227F084FE02A8FF210C221BF012FE4D460CE0C04610660020EB
:204A40000000FFFF214601200C2202AB20F098FC641CA4B22888A042F4DC02A8FF2110221D
:204A60001BF0FBFD0B9C03202146102202AB20F087FC641C152CF6DB6648006800B1804770
:204A80000020ADF808004FF4A17019F07BFF071C12D0FF214FF4A1721BF0DFFD384602A9E7
:204AA000022226F02BFF42204FF4A1713A4627F041FE384623F09CFE00200B99ADF8100061
:204AC000062202A81BF0C9FD142019F05BFF061C1BD0C54808300068A0B103270224A0B2EF
:204AE00002A90622801926F009FFA41D7F1EF6D104A93046022226F001FF4C201421324691
:204B000027F018FE304623F073FE182019F03AFF071C10D00B9C182221461BF09EFD0620DD
:204B2000214618223B4620F02BFC641C032CF6DB384623F05DFE22F067FF354CAA4DBAF115
:204B4000010FA14676D1344C044EA77B24364FB3012F0ED0022F14D104E0C04684470020CE
:204B6000744A002098F8000000F0F80040F0020005E098F8000000F0F80040F0010088F89F
:204B800000009A4825F0CDFF002808BF002010D003208BF80B0004278BF80A700BE0C04699
:204BA000A453002098F8001001F0F80188F8001002208BF80B0027F0FFFDE76B099900F01D
:204BC0007F000818CBF810706430022180B20B90FF2023F07DFC01201CF0C4FE88494FF6BF
:204BE000FE70431C48870F46F8870020A1F8483023F0B0FDA07B012813D10A9801280DD084
:204C000002A8002108221BF028FD02A807E0C046A852002090510020F44B0020002022F02C
:204C2000D1FA21207421324627F084FD0020022123F04EFC7348AF6872498089544640F0C3
:204C40000100888187B9122019F09CFE0646002EAE606DD04FF6FE70B61F0327411C26F843
:204C6000060F7F1E7180FAD1002C61D106AB4C200021022227F024FA002852D1BDF81800B9
:204C800000284ED004284CDA182019F07BFE03274FF0020800240646AB681FFA88F14C20CE
:204CA00006221B1927F00CFA88BBA868015B4FF6FE728A422BD056B300962018418800228E
:204CC0001823062022F0EAFF3069AA6800F2E93333611019418805F10C02880000EBC10001
:204CE000A9681350081973694188880000EBC1008018A96843600819418818223346062037
:204D000020F03EFB3046002118221BF0A6FC7F1E04F1060408F10608BED116B1304623F04A
:204D200067FD394B712000210822503327F0C8F926F0B4FD27F0D0FA012068702C4EC9F878
:204D40000C600027AF702B48C9F8100025F0E0F82A482949BAF1000F086014D0284890F88E
:204D6000650080B93846622102AA1EF037FF02A8394624F05AFC384618F062F902A8394607
:204D800010221BF06AFCDBF8140050B10BF114040768206823F02CFD38460028CBF81400C4
:204DA000F6D109984FF6FF71814217D0012000278BF800000BF1090201468BF80970852072
:204DC00027F0B2FC0BF1090428B9852039460122234627F075F90B9826F006F825F044FCE3
:204DE00050460DB0BDE8F08FFC3E0020C44E00206529010099C302000451002025CB01005D
:204E00008447002010660020F44B0020CC492DE9F04F1222ADF11C0D02A818F015FD08265B
:204E2000C948C849C94CCC4F086004F12000067007F11401A1621AF0EFF9C54D287830B990
:204E4000C44A0020142123F027FB012028700C2027F015FE6B68B946A0B10021016004F111
:204E60004C070671002B876008BF68600AD01F4604E0114658E00F461FE00F4639680029A2
:204E8000FBD13860B54D287840B9B54A4FF400704FF4017123F000FB012028700C2027F0A2
:204EA000EEFD6F6868B10021016004F168030671002F836008BF686003D039680029DAD1D5
:204EC000386023F079FAA74A3046132123F0C8FA1FF022F825F00CF9A34D4FF0F20805F1E2
:204EE0003C0080F8008005F1600169641AF094F99E4F387830B99E4A2120014623F0CCFAF4
:204F0000012038700C2027F0BAFD7968AB4678B1002202600BF12C0380F804807D68836060
:204F2000002D08BF786003D00A68002AA1D10860DE4A40460C2123F093FA404626F0B8FB92
:204F400018B1DB4981600027C76000201CF00AFD4FF000080A278DF8086040F20120ADF8A5
:204F60000A000325ADF80C8004F11001ADF810700422ADF80E500DF1120026F0BFFC207801
:204F8000BA2102AA33461EF02DF80E20C94D6080A11C696309F104066E642078A8706768DC
:204FA0002F64C649E964C448E86211F005FA4FF47A720123C249286305F1A80020F0DAFB40
:204FC000C0494FF47A72012305F1CC0020F0D2FBBD494FF47A72434605F1F00020F0CAFB5D
:204FE000A864286B824626F04DFC002840F0D280DFF8A093D9F80000002800F0CB80E64ECF
:20500000F06A4FF0FF3127F053FE4FF0FF32C646414606F1D4031846476837B9076827B942
:20502000B2F1FF3F08BF0A1C01E00EF1010E491C08300429F0DB3046C06AB2F1FF3F00F0AD
:20504000A780D100C818BEF1000FC0F804A04846585040F38F8031460A6ADFF84493CF4935
:20506000BEF1010F4FF0010A98A62DD1C1F810808A6113680B6081F81480D160976881F81B
:205080001580BB0003EBC7039B18C34A83F80880176ABB689A0002EBC302D219BE4F82F8E3
:2050A00009803B6A9F68BA0002EBC702D21856609F68BA0002EBC7024F46D218D760B64B7D
:2050C00019620A461F46F9618C46C0F80CC087684FEA8E01BB0001EBCE0103EBC7031B18D8
:2050E00083F808806144C1F81080886181F81480876881F81580BB0003EBC7031B1883F8AB
:205100000980876881F820A0BB0003EBC7031B185E60866881F821804F46B30003EBC60373
:205120001B186FA6DF609F4FCE61BEF1010F4F62614603D08868401C886020E00320FBE7A8
:2051400088E50200404B00200D280200A44800208453002059460200A05000208C5300204B
:20516000F18F000038DE0200C4450020F8520020ED6402003146374608624A46F861906872
:205180008549401E486240460EF0D4FA8248C06A27F08AFD286B05F1140256A113F0C2FA00
:2051A00013F0B4FB286B05F1180257A113F0BAFA17F096FF286B05F11C0258A113F0B2FA00
:2051C000286B05F120025AA113F0ACFA286B05F124025CA113F0A6FA286B05F128025EA17F
:2051E00013F0A0FA17F09AF801200190286B01A925F016FA404609F087FE404618F03AFA9F
:20520000286BCDF800806946606125F009FA606904F1180255A1054613F084FA04F11C0281
:20522000284657A113F07EFA0DF064FE04F108074FF4807520786668CBF824703222434658
:205240008BF803004FF40077CBF828605649ABF804504FF48066ABF806700BF17400ABF8D8
:20526000086020F087FA5149CBF818004FF4FA6243460BF1980020F07DFA4D49CBF81C0008
:2052800041F2883243460BF1BC0020F073FACBF82000404618F0EEF920788DF81A800DF156
:2052A0001A0127F0DEFA07B0BDE8F08F18E0020081830200944200207B5C0200C9B00200BF
:2052C000419502002DBC020005BD02003C2020202020204241434B2020202020203E00C07C
:2052E0003C20202020202048454C502020202020203E00C044657669636520496E666F1BB4
:2053000037311B381B5B6B002020204E574B20496E666F1B37311B381B5B6B002020205A84
:20532000444F20496E666F1B37311B381B5B6B0020202042444220496E666F1B37311B38CD
:205340001B5B6B00202042696E6420496E666F1B37311B381B5B6B002020202047502049CC
:205360006E666F1B37311B381B5B6B0020202041505020496E666F1B37311B381B5B6B008F
:2053800020202041505020496E666F1B37321B381B5B6B00344D0020742700204C4C002054
:2053A00055BE0200B96F0100BDBC0200D5BC0200EDBC02002DE9F04F0746C54C97F8240090
:2053C0000026ADF1840D0128ADF83C6006D197F828102078012902D148B9B6E2207830B9C1
:2053E000387D022800F0B182032800F0AE826078CD4D012810D1CA482179007888420BD09B
:2054000097F83800E32840F0A082C648804626F0E3FF012800F08F824FF4FA60F860E8692C
:2054200027F09BF840B9E869F96827F04AFA05F1980027F0E2FA02E0F9680818F86097F8F1
:20544000250002288DF8300003D008B9F86A0D9005E00DA807F11801082226F05FFC0CA8BB
:205460000DF13E010FAA1CF0B5FA58B913A807F13401042226F052FCBDF83C000DF13E01CA
:205480001FF0CEFF2078012800F0BC80002840F05C82397D31F0010018BF042940F055822A
:2054A00068463146242227F0ECFA384669460CF047FA97F81780BDF8000010F0070F06D053
:2054C00000F0070002280CBF14270B2700E00F279DF81900C01987B2384627F0D0FA5FEAF5
:2054E000000900F0328204466946022226F016FCBDF80000A41C10F0070F18D000F0070050
:20550000022823D102200DF1080A8DF82400082251460AA826F002FC20460822514626F0CE
:20552000FDFB9DF81000083404F8010B0EE00DF1040A8DF824600AA80422514626F0EEFB19
:2055400020460422514626F0E9FB241D05A92046042226F0E3FB9DF81800241D04F8010BC9
:205560009DF8190004F8010B9DF8190068B10799002900F0EA810246204626F0CFFB9DF867
:2055800019002418079827F0B8F908A92046022226F0C4FB9DF8220004F8020FB24CE06835
:2055A000FFB250B90C2027F06AFAE06000B1866047700146C0F8049015E0E4680834206864
:2055C00020B100F1080420680028FAD10C2027F056FA206018B183680BB1866020684770DA
:2055E000C0F804902168002900F0AF8181F8008009A808F0E9FEA869322127F062F905F138
:205600007400A0E197F83800E32805D1206918B18047002800F0998197F83800E2280DD0F4
:20562000E3280BD0E02809D0E12807D097F82800012803D0387D032840F08781BDF83C0007
:2056400000280CBFB0460DF13E0831462822684627F017FA0AA83146032227F012FA97F886
:2056600038C0DFF8ECB2BCF1E30F23D097F8250010F0070F16D000F0070002281AD102A8C5
:2056800007F11801082226F049FB97F830009DF8283097F838C08DF8100003F0F80040F092
:2056A000020005E0F86A9DF82830019003F0F8008DF82800BCF1E30F0CD097F829109DF8B3
:2056C0002800C90000F0F70001F00801014305E0805200209DF8281041F008018DF8281019
:2056E00097F826309DF829209DF82800190102F0EF0200F0CF0001F03001022B42F02002CB
:2057000041EA00018DF829209DF82A208DF8281002F0F8008DF82A0008DA9BB118E0C0462E
:20572000C047002080460020C445002097F8273043B1012B0CD19DF8290000F0FC0040F076
:20574000040003E09DF8290000F0F8008DF82900387D032807D1FB6B9DF82900099340F066
:2057600008008DF829009DF829009DF8282097F84030800100F4006100F4F860084302F07A
:2057800030019DF82820014302F008009DF82820084302F007017A6B8DF818C00843059277
:2057A0003043ADF8000023B18DF8193007F141000790BBF83A00ADF8200097F915000828D8
:2057C00005DC10F16D0FB8BF6FF06C0000E00820BB7D6E3040B2002B4FEA60000CBF311C7D
:2057E000022197F8179040EA81108DF82200BDF8000010F0070F06D000F0070102290CBF5F
:2058000014270B2700E00F27800A06D29DF81800E22808BF8DF8196001E03F1DBFB29DF8E4
:2058200019003F18BFB2384627F029F95FEA000A00F08B8006466946022226F06FFABDF82F
:205840000000B61C10F0070F10D000F00700022812D102A93046082226F060FA9DF810001C
:20586000083606F8010B07E0F852002001A93046042226F053FA361D05A93046042226F033
:205880004DFA9DF81800361D06F8010B9DF8190006F8010B9DF8190060B10799002954D053
:2058A0000246304626F03AFA9DF819003618079827F023F808A93046022226F02FFA9DF8F4
:2058C000220006F8020FBDF80000800A04D3701C09A9042226F022FA85F85B70F220BBF8DE
:2058E0004870E378C5F85CA0A9F10C0685F85500E188A5F85670002B85F85A6006BF0F203C
:205900004FF6FD71022085F85400B8F1000FA5F84C100AD098F80100800906D305F1580015
:2059200008F10B0125F038FE65E60CA81BF056FCA5F858005FE6404627F061F8286AC82110
:2059400026F0BFFF404627F058F821B0BDE8F08F844700202DE9F04FCE4C0D46280CADF112
:20596000140D80F04E82DFF81CA3680880F02582E41FC74E207AA90880F0E881A90980F04B
:20598000D281DFF80883E80B80F086812078A90B80F04F81BA48DFF8F0920768680980F0B1
:2059A0002A81280928BF85F0080080F04F82680A80F0BB80E80880F0AE806069E90980F090
:2059C0009180280A63D2A80A5CD2C84C280B2CD2E80A28D3142018F0D5FF071C20D00026F4
:2059E0002434B046207A012813D10097042031464246142322F052F958B92068386060686B
:205A0000314614223B46786004201FF0B9FC84F80880761C0C34282EE4DB384622F0E8FE37
:205A200085F4806012E2002010E2182018F0AAFF071C24D00026B046207A012813D10097AD
:205A4000062031464246182322F028F958B9206838616068314618223B46786106201FF079
:205A60008FFC84F80880761C0C34032EE4DB3846414618221AF0F1FD384622F0B9FE85F4DE
:205A80000060E3E119F062FE85F40070DEE11DF0AFF92078052819D1E07904211EF01CFBCA
:205AA000E07904211DF0AAF8062025F09FFF5146087800F00700022801D026F03DFC24F074
:205AC0003FFB19F043FE23F0E7FE01E024F038FB012023F07BFF0320012104F039FF85F08E
:205AE0008000B3E1A0B119F0FFF960690768606922F07EFE67615FB1FA8802E0F888801A5B
:205B0000F8803F68002FF9D1E079402126F011FF85F040009AE1FF20032122F0D9FC26F01D
:205B20006DFDC34901200860FEE74A4692F84A00082818BF04285BD124322120742126F07C
:205B4000F9FDC44E7068318800241BE0A30003EBC403C75C37F07F0212D017F07F07C754E0
:205B6000034405D101A8FF210C221AF076FD01AB012021460C221FF003FC3046318840684D
:205B8000641CA4B2A142E1DCB34E4FF0FF0944460027F06994F8211080291FD161798DF888
:205BA000091022798DF808206388ADF806302088ADF8040084F82190217D8DF80C10E279A6
:205BC0008DF80B20A3798DF80A30A06904903946102201AB03201FF0D3FBF0697F1C2434F4
:205BE000152FD7DB00B180470020022122F070FC85F480702AE14FB17968087818B1486828
:205C000000781BF099FB3F68002FF5D126F0EAFC208425F043FE91480078012806D14A46FA
:205C200010784FF40061642226F083FE85F010000CE10C280DD00C2025F0D8FE20780128C0
:205C400003D0022818BF0C2801D10020207123360DE0022025F0CAFE2078012818BF0228B2
:205C600004D101202071002025F0BEF82736E07932684FF4005126F05CFE85F40050E5E0D0
:205C8000A0530020146600208447002014350020054C00207B4A00200120022124F088F9D4
:205CA000C6B22EB3F00018F06DFE5FEA000921D083464FF0010A444615272079012818BF73
:205CC00002280DD18DF804A06088ADF8100001A81EF0E6FF20B102A9584626F04EFE834615
:205CE0007F1E04F12404E8D104E0C046083F00204FF00009B9F1000F12D076B10F204FF662
:205D0000FC778DF80C001F24ADF8047001A932464B465348009416F0EBF8484622F068FD53
:205D200085F4804092E050B92078062802D1072025F05CFE3078012801D125F075F8E07902
:205D400010211DF065FE85F020007FE000BB2178E07908291AD125F07BFA092025F046FED9
:205D600040480078052806D0072809D10720012104F0EEFD04E0012024F06EFA1DF038F831
:205D80003078012816D125F04FF813E010210FE026F01CFCEF2803DB002024F05DFA09E045
:205DA00026F014FC1030C0B226F022FCE07901211DF02EFE85F0020048E0012025F016FE3A
:205DC00051460978122011F0070F10D1211D0978022907D001290AD1082025F007FE26F063
:205DE000ABFA04E0082025F001FE15F08FFC28B1207801214FF47A7226F09BFD85F0010068
:205E000024E0194E1BE00178491E012914D9193910D0B93908D02A3903D1316861B1884778
:205E20000AE012F011FA07E001F09EFF04E0C0467C05204310F06EFC384624F045FF207850
:205E40001DF0B8FD071CDED185F4004005B0BDE8F08FC046A45300207C510020FA4B0020AD
:205E6000984B00202C4E0020144F00202DE9F04FCA4C05462078ADF15C0D032840F03E8292
:205E80004FF0000B6846182284F800B0082384F801B0594626F05AFC6846594623F020FBC6
:205EA00020612E22594604F130001AF0D6FB04F130008146FF210A220C301AF0CEFB23F018
:205EC00067FC294658461FF0F9FF04F11801E06026F068FC206AE169B1FBF0F2D7B284F81C
:205EE0003070022FC4BF022784F83070E770B0F5005F04D1E068B1EB473F00D310B90120B2
:205F00002070FDE1FF2184F83310D846CDF828805D460B950C950D950E950F9513950A46E4
:205F2000109211921292149215924FF40056E68659461691AF4200F30B81139E002E3AD186
:205F40000F9E002E28D1B8F1020F25DA0E98022822DA0B9802281FDA0A9887421FD00E9E1C
:205F60009EB9B8F1000F0ED10D9E0C9806430FD15D46AF4213DD284615F04AFA6D1CEDB258
:205F8000E7786070F5E7012016E0B8F1000F01D1032011E002200FE05D46AF4201DC584621
:205FA0000AE0284615F034FA6178E7786D1CEDB201436170F1E705200028A07000F0B1808B
:205FC000401E70D0401E00F09280401E1DD0801E40F095811498FF2804BF1598149084F831
:205FE000330094F833200C2684F83120D019401E90FBF7F17943401A84F8320012FB06906F
:20600000808BE0860EF0C2FA87E0002F08BF5D460BD009F10C0138465D4611F80C2FFE2AE6
:2060200003D0401E05F10105F7D1AF423ADD0C2084F83C5015FB0090817E84F83D10C07E89
:2060400084F83E0012F0AEFFE2782D1895FBF2F050432D1AE8B284F83200401C90FBF2F1DA
:206060005143401A84F831007C2021F03DFFFF2810D17E2021F038FFFF280BD1FF2021F07B
:2060800033FFFF2806D1782021F02EFFFF2808BF94F8310084F833000C2110FB0190808BCC
:2060A000E0864FE0FEE71098129E84F83200FF2E00F1010090FBF7F101FB07F1A0EB01004E
:2060C000C1B284F8311008D11198FF2804D10C20129111FB009005E012901299880000EB02
:2060E000C100484484F83310808BE08607E1DDF8408008F1010084F8328090FBF7F179434F
:20610000401A84F831005FFA88F015F081F96070FE215FFA88F023F0F9FA584604F0CAFA0C
:20612000EDE084F831B0781E594684F832000C2684F833B011FB0690808B7E21E086584671
:2061400023F0E4FA94F83200FE2123F0DFFAD6E00C2115FB019706AA0423690326F027FB7F
:20616000069807F11606010EB1F1960A18D1C0F38541C0F3014040EA8100022810D187F891
:2061800019B09DF818003070FF223A769DF81930FB7528461EF0C4FEB8836CE0DC4A0020BF
:2061A0002846594607AA25F099F82846012108AA25F094F82846022109AA25F08FF8DDF8E3
:2061C00018C00CF0FF010CF0FF00FF2909D0FE2907D07E2905D07C2903D0782918BF7029EC
:2061E00009D15FEA0B0706D1CCF38541032908BFBAF1000F1ED0284615F00AF90746002F81
:20620000E068677038D1690306AA042326F0CFFA2846594607AA25F061F82846012108AAC6
:2062200025F05CF82846022109AA25F057F8069800F0FF0030709DF81900069F9DF81E30EA
:206240007070C7F30140F070BDF81C004FF6FF718142B37002D128461EF062FEF0809DF8E3
:2062600022003071BDF8207037819DF826307371BDF824207281E0683178FF2936D0FE295D
:206280002ED07E2926D07C291ED0782917D0702910D0A52908D0242904D00F99491CC9B280
:2062A0000F9127E0159500E014951399491CC9B213911FE00E99491CC9B20E911AE00D990F
:2062C000491CC9B20D9115E00C991295491CC9B20C910FE00B991195491CC9B20B9109E0E4
:2062E00008F1010710955FFA87F803E00A99491CC9B20A91E7786D1CEDB21BE660706078EF
:2063000017B0BDE8F08F70472DE9FC47D14C0F460546F80B80F0F6816078DFF83C83B90FA5
:2063200080F09C81B90880F08E81F90A80F0F980390B80F0C580380907D2F80FC0F01A823E
:2063400027F080471CF0BEFC14E226F032FB814624F00AFD002800F0AD80082026F090F972
:20636000002840F0A780802026F08AF9002840F0A180684617F030F9012803D10098002851
:2063800000F0988000250126E8B225F0E5FD48B1837A3BB1867290F9090006FA00F0C0B24A
:2063A00021F0F6FD6D1C032DEED30320207504F1B40026F0F6FA484626F082FCCF4800259A
:2063C0002A460168056050F8081CCD4940F8085C04F1380024F018FC40460068006B8047EC
:2063E000A168401A010BE069C1F1FF3282422CBF08444FF0FF30E06194F8200020B1206952
:20640000E169B1EBC02F25D924F0BEFC294600B13146081C1BD0D44840F609010180458093
:20642000417B06F00F0221F00F010A434273017B05F00F0321F00F0143EA010202732946BE
:20644000416025F091FF418811F4406FFBD084F82060E5611FF0C6FCCA4829460560022093
:2064600024F04AF9022022F09BFD112014F020FD207818B96068483026F0B1FAC2480078BB
:2064800010B90E2014F014FD94F8210020B184F82150052022F084FDBC48A0612575B4F981
:2064A0008C00B4F98E10884214BF0220072019F087F802E0484626F003FC27F0080741E7C4
:2064C00020B1042022F06CFD00206070656821F043FD38B12846ED696FF4807100224FF0DC
:2064E0000073A847E06858B140460068006B8047E2686168801AC860000BC8600026E66055
:20650000A34904F13800002224F07EFB0221A06F217518B104F5807026F069FA27F400673E
:2065200010E726F046FA064624F01EFC216F0028894600F0828000297FD09649042504F1A6
:2065400038000022257524F05FFB304626F0B8FB04F1B40026F025FA40460068006B80479C
:20656000E0604FF0010884F80180284622F030FDD9F810006060D9F81000416AC90803D315
:20658000036A29460022984740461CF0A7FF606880F8158060680FF067FA6568D5F808A0A7
:2065A00040F60A02D01F564600F1010C00E01E46736833B119888A4203D0884218BF8C455B
:2065C000F5D100217160727B08F00F0322F00F0213437373D9F80C201288904224D06046AA
:2065E000904221D02B8E03B3696305F13002518095F83C0001F00F0320F00F00034385F8F6
:206600003C3095F83D0008F00F0320F00F00034385F83D307260707B01F00F0520F00F000A
:2066200045EA0001717300E0E160504625F09CFE5146404624F060F802E0304626F040FBAE
:2066400027F4806796E00FF0D7FFA06F08B927F002078FE0985400208C0100104E4A1168D4
:2066600041F08001116020B1042022F099FC0020607026F09EF98246D8F854000168042045
:206680008847D0B1287DC0B1A068B0B18146D8F800002E69006B8047A0EB09002861000BA3
:2066A0002861B04202D280194008286140F6C41181422CBFB0F5967F2961504626F000FB7D
:2066C00021F04AFC78B1EE6928466FF4807100224FF00073B047206F002808BF47F0020798
:2066E00001D01CF0EFFA2846AD6900214FF080630A46A84727F000573CE0C04614100440D6
:206700003942020026F055F9D4F8886076B306F1280106C90A234FF0E0450B40154008BFD4
:20672000002B23D106F1280191E8000306F1280595E8060006F1280322EA090221EA0801AA
:2067400083E8060026F0BCFAB16889B1B9F1000F08BFB8F1000F0BD03069B6F93010B568F1
:206760004B464246A84703E02466002026F0A8FA27F4804727B104F58070394626F037F964
:20678000BDE8FC8700000460F2EF0200E58B01004D81010049AD0200CC2108402DE9F04FC8
:2067A000AE4DDFF8BC92287F0C46E108ADF1140D80F04B81200C28BF48F2010680F018817F
:2067C000600B28BF84F4805080F00E82B84EB01D0088210A80F0CC80200B04D311F0B6FB29
:2067E00084F4006000E2E00980F09E80AF68A00B59D26869E10B38BF0020C0F0F581BD497B
:2068000048C96A4648C2098811802F6938B9384625F0D4FA6861B0B987B90B200FE0017B99
:2068200031F07F000FD0A86901F07C0104290ADB40B9384625F0C2FA686120B9002025F029
:20684000EBFD2DE0686168784FF4804141F2883226F06FF8297F6869082919D00188ADF86B
:206860000010017A8DF80810017B491CC9B231F07F07017306D10188427A684624F0F4FAAD
:20688000686909E0008800210A4621F0FFFFF7E7017B41F040010173406925F08FFAA861A6
:2068A00084F48040A0E14FF0000A4FF0030BD0468FB96878BAF1010F04D04FF400511DF01B
:2068C0000BFC05E04FF400514FF47A7226F031F884F4005088E17E68307818B3F02821DC2B
:2068E000594642466B461FF07EF9D8B1029803889BB985F836808DF80DB08DF80C8003AA05
:206900000A20594620F07EFC09F10400016885F8368039B13078884704E001884FF0010A72
:20692000491E01803F68C3E71FF030FC07462878BFB1401EC0B22870A0B168784FF48041E9
