:20000000003A01207D32020039FB021039FB021039FB021039FB021039FB021039FB021030
:1C00200039FB021039FB021039FB021039FB021039FB021039FB021011FB021002
:200040002DE9F04FAE4D04460120ADF15C0DA678297812902078432830DC432800F07A8613
:20006000092816DC092801F00182002801F08582801E01F06F82401E01F0EB82401E01F00D
:20008000E482C01E01F05482401E01F0F98101F084BAA0F11001DFF8C8C2B0481C2933D911
:2000A0002A3900F09586491E01F0B682491E01F0AF82481F00F05F8601F06FBAE42815DC66
:2000C000E42801F06F82453800F02086DFF8F8C25B381C2837D9373800F0E681401E00F093
:2000E000AB80093801F0628201F057BAE63800F08780401F59D00F3851D0401E42D0401EEA
:2001000001F04D8201F049BADFE811F0A40966099B0A470A960A4F094009470A1E09FD0893
:20012000470AC8089908470A920A8F0A8A0A6D089A07470A7F0769075F0754074707470A26
:2001400036072507BF06DFE810F05F0A5B0A570AA605530A4F0A4B0A9A05450A7B053E0514
:200160000D05E104CF04BF04B004A4049A049104400A8504370A4B040F04EC03E1036D03AA
:200180005C0334036768002F00F057853878032814BF02200320C249087000F06DBD6068A7
:2001A000002800F04A8501F04CBA6068007878B9002029F05FF828F019F912980FA98DF84F
:2001C0003C00522026F0E2FA29F08EFC01F045BA4FF6FF7029F04EF828784FF4807122F0F3
:2001E00095FE28784FF4807121F0C0FB00200DF13D018DF83D00522026F0C8FA01F02DBA8C
:200200006068002801F02982A64C01886180807A60B92BF02DF940F28A21B0FBF1F220789F
:200220000821521D2BF0D7F901F017BA688F12992AF0F1F801F011BA60681394002800F091
:200240002B810468A07E29F0EDF8071C08BF022000F00481D4F81C800026354698F8000050
:20026000A84200F3FE80042101EB0011C8B280191DF012FB0028149000F0EF8025F0D2FAC8
:20028000002840F0E780149800210E46017047E04FEA860A08EB0A0794F81AB0B4F80C907B
:2002A000149DBA885846494626F084FD159008AB08EB0A00BA881190584624F05EFB159996
:2002C00005EB06152D1D07F1040AFF291AD0C8B1AD489DF827700168F80838BF8C2012D326
:2002E0009DF82600159F1622287102FB0710C188E980018900F10E0329810020EB6002E075
:200300006C47002086202870119880786870BAF80000149968800878761CF6B2401C08707E
:2003200098F80000B042B3DC149EA07EB4F80CA094F80A9004F10E0700211597327811903C
:2003400035460C468A4269DC20462BF0EAF95FEA00085CD00246002641E0C0460C4B0020D2
:2003600020530020300129182818077902F8017B477902F8017B877902F8017BC7883F12F6
:2003800002F8017B07790B1D3FBB4F79F7B9087A02F8010B887A02F8010B4889001202F860
:2003A000010B087B02F8010B8889001202F8010B087A83462AF0B1F878B10969584618F030
:2003C000BFFD024609E0C046384D0020987A02F8010B5889001202F8010B761CF6B228789A
:2003E000B042BFDC002100911298019002900391CDF810900594CDF8188011980791159913
:200400005246092310F008FB40462BF0C8F8284627F074F829F0EAFE00201FE0080143193E
:200420001F79241DA4B297B92818401D077867B9C07803462AF071F8641DA4B238B11846DF
:200440001DF042FB001984B201E0A41CA4B2491CC9B277E7149827F051F810201399119144
:20046000A5E108EB85023878A189928808AB24F084FA70B19DF8260001462AF04EF840B1CF
:2004800008461DF021FB410824BF401CC0B23618F6B26D1CEDB2E1E62046119062E2C046B5
:2004A000003F0020CC50002060681194002800F0598200681390807E28F0B4FF002800F055
:2004C00075811398D0F81CB09BF80000002800F06D818000801C1DF0DFF90028149000F091
:2004E00063812AF0EDFD25F09DF9002840F059810024169415949BF80000A04200F3E180F7
:200500001698012840F08E80C44DA878EA68162111FB00F081B256202AF062FF05F10C04E6
:2005200040B9A8782268162111FB00F081B256202AF05CFFBA480078802122F0E7FC2F7810
:20054000B8001DF0A9F9B8465FEA000B6AD02E78B8F1000F0CD005F11800594642784A704D
:20056000428810F8144B4A807F1E01F8044BF5D1002E3DD037464FF000094FF0140AAEB317
:2005800005F1180412E0C046B45E0020002808BF4E4607D041680668216126F0AFFF207BCD
:2005A000401E2073304626F0A9FF2E7820690028ECD1761EF6B216FB0AF2A0184188618057
:2005C00041786170C188E1808188A18001890C30218109C804F10C0181E80900105D207013
:2005E000A318C3F8109083F80C902E707F1EC6D110F042F9B8F1000F11D018355C464746AC
:200600006078618826F0E2FFFF2804D02678810001EB00116E547F1E04F10404F0D1584650
:2006200026F06CFF15981499087018B900208870129F0F70139890F81AA08689857A00F162
:200640000E09084600780C46800080462BF069F8071C1ED0014600202278824222DC012AAA
:2006600003D1A4780CB9DDF8488000200090129901910291039004953246CDF81480072381
:20068000069749460790504610F0C6F938462AF086FF149826F032FF29F0A8FD27F0DEFB84
:2006A000002084E004EB800293780B70D3784B7013798B709288401CC0B21212CA70091DC6
:2006C000CAE71398B0F80C8090F81A900BEB04152F1DAD1D2E8841464846324626F06AFB75
:2006E000824608AB484624F048F9BAF1FF0F48D0002846D03E78002E50D19DF82600A978AC
:2007000088423CD19DF82700C00836D3B348A98800684FF6FF728A4201D1EE88B6B1FD882B
:20072000162101FB0A06F58038893081387929F0F4FEF8B10E360021042230461EF01BFF01
:2007400038791DF0C1F9FD6802460FE0162101FB0A056889E880A889042205F10E06002168
:20076000288130461EF007FF123504223046294629F040FF1298169010E08C2002E08D2021
:2007800000E087201499159A01EB820188703878C8707888561C8880F0B21590641CE4B250
:2007A000A9E6149826F0AAFE102000E00220119CA9E025466868002800F0D480C94909789E
:2007C000064600F11207C1B1AFB120F021F8044606F110002AF08CFDA0420CD108A80090D5
:2007E00032469023002001460DF0B4FF08A8394619F0FEFA02E0022000E012982C4606463B
:2008000076E06068002800F0AD80626810785188928818F06FFC00F0C3BEC046A85E002020
:20082000394D00206068002800F09C8090F8009045888188B0F806B0B0F808A00A3013909D
:20084000C74807791191002F5CD0C4490F68002F56D080467868007881454ED129F098FD82
:2008600000284AD0037C002B47D04669002E44D000200C22834243DD10FB02F1715A8D42B9
:2008800038D10E201DF008F8071C3BD0002607F10A0004235B1E00F8016BFBD1BE80FF2091
:2008A00038704FF6FF737B803E81FE8087F80090119A7D801399BA8007F10A00A7F806B0AD
:2008C0000422A7F808A029F095FE08201CF0E4FFD8F8141018B9384626F010FE12E0076028
:2008E0004160C8F8140098F81000401C88F81000304608E0401CC0B2BCE73F68002FA9D1D8
:20090000022000E0129825468046FDE1606848B30020607060681FF07BFFA168088000F097
:200920009CBEA768F7B10022A56862706446267860786F1C002E08BF2A700ED0402125F017
:20094000C7F94FF47A710F2300F2E730B0FBF1F116FB03100F3828702678002F00F07D861E
:20096000304680E0204616E02046614687688A8E91F8373091F8385091F83A6091F839E06B
:2009800091F83B8091F83C9091F83DA091F83640D1F830C00FB904464FE100274770876891
:2009A0003A818268D3728268947282681573826896738268C2F804C0826882F80DE0C96A0C
:2009C00082681160816881F80F80816881F81090806880F811A000F040BEC046B45E002092
:2009E0006768002F00F02981002060706068077C1FB1C0896146343108806068077B1FB15D
:200A00008268614630310A60877CD14927B1427C08460D300270606807791FB102680846FA
:200A200002606068077D27B1C27C08460F3002706068877D27B1427D0846103002706068C8
:200A4000077E002F00F00986C27D08461130027000F003BEA068002800F0EF8000206070F3
:200A60002AF0E2FCA768387000F0F7BDD648A1680078002900F0E18000216170F2E7606877
:200A8000002800F0DA806068007823F021FE00F087BD6068002800F0D08000206070606856
:200AA000007806F0F1FD00F0D8BDA068002800F0C4800020607024F00FFA002808BF12984B
:200AC00000F0C0850078CDE76068002800F0B5800020607061680888897822F0D7FE00F07F
:200AE000BCBDC046744B00206068002800F0A580B64D6168082205F1100029F07BFD60683E
:200B000001896980807A287000F049BD6068002800F093800188ADF838104088ADF83A00CA
:200B20000EA9532025F032FE50200DF13A0125F02DFEE1200DF13E0128F0C4F960689DF8ED
:200B40003E100079884200F097808DF83E000DF13E01E12025F01AFE8EE0C0465052002099
:200B6000A85E00206068002867D0007826F078FC606895F83C104078884213D085F83C0067
:200B80000DF13F01E12028F09DF960689DF83F104078884206D08DF83F000DF13F01E12061
:200BA00025F0F4FD6068129E407806FA00F0E86429F0D6FA0027A5F89470304622F0E2FBAD
:200BC000384600F0EDBC6768BFB37E886E87387885F84A007B6885F83C303989E987EB64FE
:200BE0007889A5F84800387B85F85C00787B85F82900B87B85F827003A696A65786995F833
:200C00009660A865387EB04201D026F029FC616805F15D0019312AF002FD95F84A0005F1D1
:200C20002406082828D12120742132462AF0DEFB0020022126F0D2FA1EE0022000F002BD2C
:200C40006168002900F0BE800888498826F0DCFD78B961680888129A498825F04BFE6168F6
:200C60000888498826F0D0FD002808BFC82000F09784616809794170002000F0E3BC6068DB
:200C8000002800F09F8062685088111D128827F05BFF00F085BC6068002800F0938007789F
:200CA00046884FF6FF75ADF82060B5428DF8227017D0E81EB04214D0A81EB04211D00220FC
:200CC0008DF82400ADF8266009A81EF08DFC012818BF12980BD1BDF82600ADF82000129828
:200CE00000E000208DF8230008A820F0A1F9ED1E8046B54205DCD14981F82870129881F8FB
:200D0000270028F0A3F82546404620E16068002858D00A300778002F0CBF0022129A4778AF
:200D20000FB142F0020287780FB142F00402C7780FB142F00802007908B142F0400261681C
:200D400008880023891C25F0E1FF00F029BCC046644D00206068002834D0022067688DF830
:200D600028003988ADF82010FA78B97808A822F001FA00F015BC606820B302218DF8281019
:200D800001884FF6FF70884205D0821E8A4202D0C01E88420BD12AF081FAADF82000606893
:200DA000C27A837A811C08A824F0F8FC607060680188ADF82010C27A837A811C08A824F015
:200DC000EDFCEDE32546C4E010500020104C002025466C68002C00F0BC8002238DF82830B6
:200DE0002188001DADF820102279B4F80680267AD4F80CB0277CD4F814A061880468119248
:200E0000F2190F2000EB42005FFA80F9B9F14E0F39DC2AF043FA884233D1217008126070DD
:200E200029F0B8FBA41C014620462AF0F8FB04461198207084F801804FEA2823A370E670FF
:200E4000241D66B15846A41E017804F8021F30F8021B761E4FEA21216170F5D1A41C277002
:200E60005FB1641E5046017804F8021F30F8021B7F1E4FEA21216170F5D1CC4820224B46D9
:200E800060E0184640E510203EE525466A68002A5FD002218DF828101188ADF8201053887D
:200EA00094889679D2F80880177BD2F8109042684FF0060EF1190EEB41015FFA81FCBCF1F4
:200EC0004E0F43DC82469DF828000F2818BF022808D1BDF820004FF6FF71814204BF891E49
:200EE000ADF820104FF6FF71994208BF8B1E02F8013B191202F8011B02F8014B201202F834
:200F0000010B02F8016B66B14046921E017802F8021F30F8021B761E4FEA21215170F5D1A3
:200F2000921C17705FB1521E4846017802F8021F30F8021B7F1E4FEA21215170F5D1504660
:200F40007246634608A921F0BFFDDDE410202C4626E32C461FE36068002800F01C83022031
:200F600067688DF828003988ADF820107988052208A829F011F913E36068002800F00B8300
:200F8000022067688DF828003988ADF820103A79798808A828F0C8FD02E36068002800F017
:200FA000FA82022260688DF828200188ADF820104188DDE76068002800F0ED826268108860
:200FC0009178D27826F0E8FAEAE26068002800F0E2826068017A427A21F02AFAE0E26068F8
:200FE000002800F0D88241788DF8201081788DF82110007829F0DEF8002800F0CC820C3059
:2010000008A9022229F0F6FAC9E26168002900F0C282A068002800F0BE82087808A928F078
:20102000BEFB6068A168007808709DF82000A16848709DF82100A1688870B0E2684B0020A4
:201040006368002B00F0A782187D29F007F9002800F0A1829D691C331F78002F0CBF002092
:2010600002205F780FB140F010009F780FB140F00800DF780FB140F020001F790FB140F079
:2010800040005F790FB140F0800081466068007D2AF00EF85FEA000800F07D826168887A91
:2010A0008DF829008889ADF82A00087802288DF828000CD001280AD00F2808D0032809D158
:2010C000891C08A8082229F095FA616802E04888ADF820008F7B002F76D078001CF0DCFBCF
:2010E000061C08BF102000F05B8200216068877B8F4263DCC18A838CCDF84480826A169595
:201100000C2F139190F822A01493BDF8208015924EDA404621F020FC0C2816D14FF6FE705A
:2011200021F01AFC0C2810D1DFF8E8C212999CF82C3100200CF59A7C1CF8082B9342C4BF80
:20114000131C081C491C0C29F6DBC74D4FF6FE7305EBC00568686B8018B126F0CFF90020D0
:20116000686077B14FEA470B58461CF095FB6860002808BF10201CD0686831465A4629F0E7
:2011800039FAA5F80280BD486F70159B0078169F287011990093139A019708A8CDF8089015
:2011A000149BCDF80CA00DF0C3FB02E00C4B002002206070304626F0A1F94EE200694A0000
:2011C000105A491CB05291E7886A00900195CDF8089091F822000390CA8A8B8C08A8414671
:2011E0000DF0A6FBDCE16068002800F0D481007829F034F8071C00F0CE81387B23F042FA3E
:201200000028607040F02982C84845683E46002D00F023822F46002117B9BE4202D01CE2C2
:20122000BE4209D1B54219BF306808603168416030462AF0A4F910E239463F68ECE76068EB
:20124000002800F0A881A068002800F0A481002108221EF090F961680878498827F010FAEB
:20126000071C19D00020A168607038880880A168B8788870A568A878002800F0EE811CF030
:201280000BFB6860A2685068002800F0E6819278F91C29F0AFF9E0E1B12081E16768002F6D
:2012A00000F07981A768002F00F0758100256646606865703768017828463FB13A799142B6
:2012C00004BF401CC0B23F68002FF7D1A1680870A068007840001CF0DFFAA1683768486069
:2012E0006068A16800784968002F00F0B6813A79904204D1FA886E1C21F81520F5B23F689C
:20130000002FF4D1A9E16768002F00F0448100276068677064460678206890B101798E429B
:201320000BD1002F04BF0568256002D001683960056826F0E3F8284601E00746006800288F
:20134000ECD11DF023FD88E1022067686070002F00F08381664639787A883068002800F047
:201360007C8100270379994202D1C3889A4204D0074600680028F5D16FE107B9674601685B
:20138000396026F0BBF81DF001FD08E16068002800F00181807800280CBF0022129A606814
:2013A000129900881FF079FEFAE06168002900F0F280887828B1C87800280CBF129903216B
:2013C00000E000216268107908B141F040011088527914F089FAE3E06068002800F0DB80A6
:2013E000304628F02DFF051C16D11C201CF054FA051C00F0328100211C221EF0BCF82E7111
:20140000284625F0F3FC38B9284626F077F8D120C6E0C04688300020E888924940F008007E
:20142000E88040F00400E880022029F091FF8E49032029F08DFF60680168089100798DF876
:201440002400129F8DF825708DF8267008A820F0FFFEA5E06068002800F09D8060680088F3
:20146000002103F0EBF8F8E0B43100206768002F00F0918060680078687090E0804B002026
:201480007A4867680678002F00F08580606800212A2261701EF06FF8688F6168088060688E
:2014A000B5F84870867261688F81E88F6168C8826068082205F1240707F139010E3029F0D0
:2014C00099F829F067F8014660680822801C29F091F86068082207F11C01183029F08AF8A2
:2014E00095F83C10606880F8231012986168604E81F8200031784A0824BF626882F82400A0
:201500008A0824BF626882F82500CA0824BF626882F826000A0924BF626882F82700C9099B
:2015200024BF616881F8280097E0C04644520020606800282FD090F900504E48006810A9AC
:20154000D0F830248DF84050E0209047A06800B1057024E06768F7B1002112986170626874
:2015600010706068417060680227877060680626C670616803250D716FE0606858B1407819
:2015800018B1FF20032125F029FE29F093FE129839490860FEE7022002E0122000E00020AA
:2015A00060705AE021461EF077FA55E0002033496070E7780F7050E00020607029F0A5FCE2
:2015C0004FF4FA7028F080FA47E00020607027F06DF842E008464FF4807121F033F9DEE793
:2015E000214620F032F837E0214614F09DFA33E0214619F0B5FF2FE021461DF03DFF2BE030
:20160000214622F076FE27E0214622F011FA23E021461EF0CBFE1FE021461AF039FC1BE071
:20162000304621460EF082FF16E029F08BF809E0214621F0D3FA0FE03046214607F0F6FADB
:201640000AE012208046FFF75EBB214606F05EFE02E0214606F0CCFC1290129817B0BDE821
:20166000F08FC046455A020005AE0200E8490020CE640020140100207C052043AC450020C2
:201680002DE9F04704464FF6FE70ADF1600D217AADF85400606808AA15F0D6F9002800F0FB
:2016A0003C849DF822000228B4BF012700279DF824000228A8BF0027BDF82A1000254FF6FD
:2016C000FE70801F88420ED04FF6FE70401F884209D04FF6FE70001F884204D04FF6FE707D
:2016E000C01E884200D12F4629F0D2FD9DF82310884240F01284002F00F00F84208D9DF8C8
:201700002660678EADF84C00ADF82E7056B161689DF821209DF83C30012028F0B3FF002860
:2017200040F0FB839DF82570DFF8F8A2DFF8F8821695002F4CD19DF83D002F4658BBBDF809
:201740002A00034624F084FA3E46022808BF0126002E9DF8226018BF0127514609889942A1
:2017600008BF47F0020727B1002E14BF402120210F43184624F06CFA012808BF47F001078E
:20178000002E3ED01298007829F077FB012818BF27F0010735E09DF8411041B1FF2906D056
:2017A0009DF84000119A25F0DDFE50B129E0B8F83A00BDF82A10884206D098F84A00042830
:2017C0001FD1012016901CE09DF82660222721E0BDF82A10FF2026F053FF002804BF3E1C36
:2017E000082708D09DF8250047F001062C2740F001008DF8250006F00306012E08BF47F090
:201800001107169B9DF8266007F00200184308BF47F0800796B998F82F0078B107F02200BB
:2018200022280BD007F04200422840F0768312980078062818BF072840F06F83B8111690D0
:20184000F80954D398F832001299BDF82A2080080AD20878C01E01282AD9001F28D0C01E11
:2018600026D0801E24D003E00878401E0A281FD9F5B9B8F83A00904240F04F830D780520DF
:20188000BDF82C408DF8110004A828F03DF8002800F043830269032313271370511C0F7080
:2018A0004C7022128A70CD7044800AF03BFF34E3169840081BD30878032802D148780D289B
:2018C00015D09DF8280038B1BDF82C000E990FF071F9012800F01D839DF8270038B1BDF879
:2018E0002A000D990FF066F9012800F00F83B8F84800B4F84410884208D10095208DB4F886
:20190000421094F846202B4615F02CFA9DF82600002847D0208DB4F8421025F075FF9DF824
:201920005190061C27D1B9F1000F13D198F89000012839D112980078062802D116984008A3
:2019400032D2BDF82E104FF6FE70401C884240F0A580E2E2042027F000FF011C00F0DD82F8
:201960006420087001274F70208D488098F8000022F058FDD1E29DF82130606819184A7BC1
:20198000F1788A4202D0F27075606068C0180421401C28F018FA7168814200F2BE82401C94
:2019A000706001E09DF8519098F832008008C0F0B482B9F1000F0BD0BDF82C0028F0C6FD80
:2019C000002800F0AA826168487800F0DF0048709DF8320038B161688879401E8871C0B270
:2019E0008DF8320008B907F07F07380928D39DF82500F9084FF4805518D279091ED38110F5
:201A000011F0070F01F0070604D0072E1CBF761EF6B20EB907F07F0700F0E30040EA8600CA
:201A2000C0B209E0A64700206C47002020F01C00C11021F0030108438DF825006168087221
:201A400098F84A00042800F0EF81092800F0EC8117F0610F40F0E9809DF82200012811D1C0
:201A600012980078052800F0D98003280AD1BDF82A0028F06BFD28B1218D08A815AA002350
:201A800000F0AEFE9DF8320068B99DF82200012804D112980078032800F03F8208A82146F8
:201AA00021F09CFC39E228F015FA002840F035829DF83D00002870D1FA109DF82400BDF879
:201AC0002A1016920028ADF854102ED13A0931D29DF82220012A28D0084600211EF0B0F98E
:201AE000002620B14079012816D0022814D0BDF85400B4F8441025F087FE28B1807827F08E
:201B00005FFE08B1082807DBBDF82C0028F01EFD18B104208DF824000126BDF82A10002EAF
:201B200008BF022274D09DF82400169A520838BF002300D340230DF13D021EF0BBF930B183
:201B40006168087845F0200500F03F0008709DF83D0040B1BDF82A1010A824F059F845F037
:201B60004005ADF854009DF82200012806D0BDF82A00BDF82C1000221CF01CFB1698400866
:201B80002CBF40220022BDF82C10BDF82A0017F097FD08B145F0200533E09DF840009DF8DB
:201BA0004110119A25F0DEFC00282ED09DF8410038B9BDF82A00ADF8540029F0C0FC00BBE5
:201BC0001DE011999DF8286001EB400030F8020C002EADF854000CBF082010209DF8276079
:201BE0000EB10830C0B29DF82560002106B1012140186168401CC2B2505C401E505445F094
:201C0000400527F091FB169098E0BDF82A100B22BDF82C00002323F057FB7EE1218D08A87C
:201C200015AA002300F0DCFD77E10020169078085FD3B4F828909DF833C0B94E092116985E
:201C4000F279944506D1BDF82C303288934201D1B3782BB9491E06F1080600F10100EFD1CA
:201C6000092825D096F806A0BAF1000F1DD0B8F84810484626F00CFE10B1AAF10100B0712F
:201C8000A84815210279FF2A02D00288914504D0491E00F12400F5D102E0B079401EB071A8
:201CA000B0792628A4BF1698B07127F0600720E027F03AFB16909DF8320020B9208DBDF809
:201CC0002C10884215D0218D169A08A813F08CFA58B1380932BFBDF82A004FF6FE70401C59
:201CE00045F00405ADF8540003E0002027F020071690B8094FEAA71610D394F8473094F89D
:201D000046008DF81130E26B94F948308DF8100004A908A88DF8123004F0BCFD70080DD3A7
:201D2000218D169B08A815AA00F05AFD169028B112980078012808BF45F01005BDF854109A
:201D40004FF6FE70884204BF0021169176490978012924D1218D421C8A4220D0BDF82A2055
:201D6000401F90421BDDBDF82C00884217D029F0E6FBA0B10179012918BF02290FD10121B5
:201D80008DF810104088ADF81C0004A821F07AFE28B105A821F09EFE08B127F057F837F067
:201DA0007F0000F0BA801698002800F0B68020891BF072FD071C00F0B0806168228928F08C
:201DC00019FC002605969DF822008DF8100016990091B146019504ABCDF80890BDF85410EF
:201DE0000393228D237A384618F0FEFCC0B998F80100002800F09180BDF82A00ADF81A00B0
:201E00004D468DF81E508DF81D50BDF82C70ADF81870169E8DF81C6006A828F023FD7CE0D5
:201E2000384625F06BFB78E05146BDF82A000988814209D023F00CFF022805D09DF82500D7
:201E400000F00300012868D19DF8220000284BD012980178042903D19DF83C1002293ED0F5
:201E60000178072905D19DF83C2098F80000042A06D0032951D108A8002116F017FF4CE0F7
:201E80004FF4806121F042F8274F0920002188F84A00F81C017028F07DFB01460D9828F030
:201EA0004DFA012839D1102027F057FC07460E991298401C8FB302223A704378027802EBE2
:201EC00003227A80807878704A2024F05FFC9DF8260010B9154905200870394646E50020E1
:201EE00008A90DF039FD18E094F8460094F8477094F948608DF81000E26B8DF8117004A927
:201F00008DF8126008A804F0C5FC06E0BDF82A0001E0BDF82C0022F0FDF818B0BDE8F087F3
:201F20001C31002014350020814B0020E8490020674A2DE9F04FADF14C0D10780F91090C54
:201F400080F01E840F999346890B80F0EF830F99890980F023830F99490980F0A5820F98F0
:201F6000DFF87C91C00980F02A825A480F990078090A80F016820F98DFF85CA1DFF85C818C
:201F8000400A80F0AF800F98000B80F08B800F999BF80300490B7BD254460F99606AC90B6C
:201FA00060D20F99207889082ED20F98E188800A0DD20F98C00A08D3BBF84800012123F029
:201FC000CBFB0F9880F48060F9E30020F7E3BBF84850ABF848105020A11D24F0D7FBE688A2
:201FE000102744466089854205D0864204D0204628F06CFA00E066817F1E04F11C04F1D1E0
:202000000F9880F40070DAE340B301A829F09FFA29F032F949460546032091F8208091F837
:2020200021608DF80D0003A827F06EFC071C15D038690B2100F8011B00F8018B0670012657
:20204000BE7728F0A7FA78627D807E7701A838620023BE76384623700AF064FB0F9880F0AB
:202060000200ACE380B149461131097801290BD18047A06A00B180479BF800004FF4804166
:202080004FF47A7229F0A4FA0F9880F4804096E320B100208BF8030023F0D6FA0F9880F491
:2020A00080508CE323F0D0FA4946887901280BD1C97949B19BF800004FF47A7212FB01F271
:2020C0004FF4006129F084FA0F9880F4006076E36C470020465100200C490020543300204B
:2020E000684B002029F0DAF84FF6FE71814200F054819BF832008008C0F04F8100252C4682
:20210000284626F0EFFD071C19D03879012816D0022814D0F879411CF9719BF88B1081424C
:202120000DDABC727C72388825F008FE388801A927F01CF801A821F0CDFC26F087FE6D1C85
:20214000152DDDDBA8F11C0610274FF6FE75119436F81C0F85420CD0307B9BF88B40411CD4
:202160008442317305DA1198B0747074308825F0E5FD7F1EECD15446032104F1380010F869
:20218000047F0FB17F1E0770491EF8D1BE4C152605F1010934F8240F81451FD001208DF8B9
:2021A00004006788ADF8107001A821F06BFCA8B1A8F11C05102735F81C0F2188814208D000
:2021C000BDF80610814204D002A8A91C28F0B6F810B1284628F07AF97F1EECD1761ED9D116
:2021E000119D2C46284626F07DFD48B1017931F0040105D1807A27F0E3FA08B1641CE4B295
:202200006D1C152DEEDB27F0E5F9119E5FEA00080ED03546284626F051FB28B1807C27F020
:20222000CFFA08B1761CF6B26D1CEDB2A845F1DCA019C7B2002F41D0B8001BF02DFB109003
:20224000002808BF119F3BD0BA00FF211DF093F9119E3546B44218DD284626F043FD031C69
:2022600010D0187930F004000CD1987A27F0A8FA011C07D0009718885A7A109B1CF020F853
:20228000761CF6B26D1C152DE4DBB8F1000F17D0119C204626F012FB061C0AD0B07C27F066
:2022A0008FFA011C05D00097109B3088727C1CF007F8641CE4B2A045EBDC01E011981090C4
:2022C0009BF83000002808BF4FF0620805D028F0BDFCC0F154005FFA80F80320B8F1600FEC
:2022E00098FBF0FAA8BF4FF01F0ADDF840904FF6FE7BABF1020BB8F1000F0EBF119D20250E
:20230000DDF84480BA45A6BF3C1C45F040055446032014FB00F0801C8DF8050001A827F04C
:20232000F3FA4E46031C26D01869082104F01F02017045EA02014170801CA4B12246C01EBD
:20234000361F16F8041F00F8031F318809124170B17801F0070CF178521E01F0070141EA2E
:202360000C118170EDD1A3F802B00120987618460AF0D8F900E00120E90906D2641EE4B209
:202380000CB109EB84093F1BFFB205F040052843B1D0109808B125F0B1F80F9880F48070A4
:2023A0000DE230B9BC488178012902D100214170817022F0BDFB0F9880F08000FFE1B74C44
:2023C0000925002106264FF00408A778002F3FD07F1EFBB26079A37027F086FF071C36D0DF
:2023E0005BB9787B022808BF7E7330D07E733868407BF02122F090FE29E0A3791BB9787B0B
:20240000032812D023E023790BB3E078401EC3B2E370E3B99BF82500E0702079401EC3B2C4
:202420002371787B032812D123B92046394623F0AFFC0CE087F80D8029F01AF800F00F0066
:20244000401C38819BF80000202120F0FBF901216D1E04F10804B8D19BF80000012915D0B6
:20246000402120F053FD494691F82700012817D14846002180F8271090F8280019F04EFEE8
:2024800026F0E4FC0CE0C046F0340020402123F01FFC28B99BF800004021642229F098F87D
:2024A0000F9880F040008AE1102123F011FC30B99BF8000010214FF47A7229F089F8C1488A
:2024C000DFF80483417808F5C674491ECFB217BB012141700020052127F0E6FB071C1BD0D5
:2024E00006253846052127F0DFFB0646388978B1401E80B2388158B97889C00802D3387B3B
:2025000025F004FC7D733868407BF02122F004FE371CE6D100E0477028274FF6FE76002568
:202520002079A0B1FF2812D0401E2071C0B270B96079032805D16088218802221FF0ACFADA
:202540006079012803D0268066806571A5717F1E04F10804E4D108F1DC040827207A401EDB
:202560002072C0B230B99948214625F01FFD90B9668025707F1E04F10A04EFD1944A0C21C6
:2025800012F8080F08B1401E1070491EF8D10F9880F0100013E122F00DF9E4E7202123F001
:2025A00097FB28B9DBF81000002808BF012615D029F0DCF9874909684FF47A774843B0FB31
:2025C000F7F1DBF81000002808BF002004D088428CBF4FF0FF30081A46086AD000200421DB
:2025E00027F062FB071C64D0FF254FF0FF3A06244FF001093846042127F056FB1090388995
:20260000864204D8801B83B23B8113B14EE000203881BB7B012B02D17889C00840D3002B83
:2026200036D08DF804508DF805508DF806A03968086AC97F02AA14F007FA4FF0000801283A
:2026400008BFC8465FEA08001DD0788A40F08000ADF83600B87B8DF838007889000908D305
:20266000BDF8360040F48070ADF83600387B8DF83A007B6913B1187BADF8180001A900223A
:2026800002A804F007F97C73387B1CF0BFFC0DE087F80D900AE0C046FC3E00201C31002073
:2026A0007C733868407BB72122F036FD109F002FA0D110F093F89BF800300020012127F0BD
:2026C000F3FA18B11846202120F0BCF80020042127F0EAFAB3B278B15A460789147827F040
:2026E000E3FAF0B9BB42AEBF0027FF1ABFB2204627B9202120F0A6F800200CE07A0020213D
:2027000028F069FF29F032F9324909684FF47A774843B0FBF7F0CBF810000F9880F02000AE
:202720004DE00289BA42D8BF171CD8E728F093FF294C0546201D0068074698B157F80C1C40
:202740009BF8000021B94FF400511FF00FF903E04FF4005120F076F8204639460022001D48
:2027600025F006F9284629F0FDF82FB13846FEF787FF384627F008F90F9880F400501EE0F1
:2027800020F032F8071C17D0144920310A78FF2A0FD03C780B460020944207D0401CC0B21D
:2027A000C200D1189A5CFF2AF6D102E0496838468847384627F0E8F80F9880F4004013B015
:2027C000BDE8F08F745D002088300020E1530200AC310020F8DC02005C520020C8D002009B
:2027E0002DE9F04F064693460020ADF13C0DABF80000B06A099303460078884628F03DFB20
:2028000048B17089044623F023FA022804BFABF80040B36A01D0002009901878C84DDFF859
:202820002493401E0A2800F20B84DFE810F02F03B3020C04A0028D0151010904BE0088003D
:2028400066000B00BD4C607C012840F0F9835B1CB06913F8015B1F7828F0B1FE002800F0E0
:20286000F7830379002B00F0F383032B80F2F0830E2D1CDCDFB9D04907752DB901EB850106
:202880000A6AC261096A0AE001EB85010B6A9A01A2EB8302C2610A6A9101A1EB8201816196
:2028A000012180F8201026F0D1FA002500E001250320B689247F8DF8190006A827F024F8BE
:2028C000071C00F0C58338690C2100F8011B00F8015B04700124BC7727F05CFE786204A9A3
:2028E000304626F043FC10B17C7704A838627E80BC76384609F016FFAAE35C1C207820F0AA
:202900001F0700F01F00012840F09A83641C04A8214628F084FE284604A95D3027F00EFD15
:20292000002800F08D83002F40F08A830834A2786178207801EB022124F01CFB88E3688FA0
:202940007189884240F07C835C1C14F8016B04A8214628F064FE284604A95D3027F0EEFC5E
:2029600006F01F0726F01F06002800F07183002E40F06E8378001AF08FFF011C00F068839D
:2029800067B184460834384663782278401E04F1020402EB03222CF8022BF5D100910EF015
:2029A0003CFF084624F0AAFD52E35C789A1C34F07F0704F01F0E40F04B83377F03201EFB59
:2029C00000F0801CC1B2B94240F04283002714F01F0F04BF4FF6FE7C614618D0D9789B783A
:2029E00070464D4603EB012C5378117812F802EF01EB03213EF0770340F02A832B888B420F
:202A000008BF0EF00707521C401EEDD1BFB960464FF6FE72824212D004F06002602A0ED022
:202A20004D462A88A30907D2E30902D2904203DD0EE3904203DD0BE39142C0F20983B0897F
:202A400028F07DFD002836D1B0894FF6FF7125F01FFF041C14D124F0BDFE041C00F0F88236
:202A600000211C221CF087FDB0894D460E35208028886081AA23A374022222740121617492
:202A8000207C022805DD0220072F2074BCBF7F1CFFB2677400202073A01C27F085F90028D4
:202AA00040F0D682307A002800F0D282B169A01C28F0B5FDCCE20021C171017A022905DD4F
:202AC0000221072F0172BCBF7F1CFFB24772BFE2484671890088884240F0B282307F0228F2
:202AE00040F0AE82AA4C201D00884FF6FE71814240F0AE82162026F030FE071C00F0A8822D
:202B000001213970B07900280CBF081C02207870B06A4078B872000902D2B08923F026FF56
:202B2000B169B81C28F07BFD0020F8742878394621F078FCB089A0808AE2C046684B002049
:202B40006C470020A6470020708923F081F8002840F076825F78B94987B10C2F03F102037B
:202B600080F276828C463D465A7818786D1E03F1020300EB02202CF8020BF5D14846758920
:202B80000488DFF8D892AC4200F0B280B37C002B00F05E823B1C0A974FF0000811D0A74A1D
:202BA00038464146921E32F8023F9C4206D0401E01F10101F7D104E04CD402000A914FF047
:202BC0000108284600211DF03BF900280B907ED0407901287BD10B98807910F0180F76D0D4
:202BE0000B984188384627F08DFB10B9B8F1010F6DD109F533794FF6FE704FF000080C9745
:202C0000B6F80CB0CDF820904FF0010A0D90C14611E0B8F1010F08BF4FF0010908D028F03D
:202C200027FCC0B290FBF8F101FB08F1A0EB01094FF00008C246089D10271C3D35F81C4FE5
:202C40004FF6FE70A04213D0A34511D00C98214627F058FB60B96B7C53B1072B08DA08F1AD
:202C60000100BAF1000F5FFA80F801D1C14521DD7F1EE3D1B34D152735F8244F0D98A0423E
:202C80001AD0A34518D00C98214627F03BFB98B96B7A8BB1072B0FDA287901280CD00228C5
:202CA0000AD008F10100BAF1000F5FFA80F803D1C14501DC0D9407E07F1EDDD1B8F1000F73
:202CC00002D0B9F1000FA4D00D980B994880B37C5A4C581EB074F77C00970A9D0195029498
:202CE00001220392B189B269708919F0C7F9AFE1B4890C2F80F2AC818846ADF81040BD4896
:202D00008DF812700168CDF8148009B104A8884720461FF021FE0C2803D14FF6FE701FF057
:202D20001BFE0C2880F2948109EBC00505F59675686808B124F0E2FB2FB178001AF0ACFD7C
:202D4000686010B984E1002068606C80C2486F70007828706878002800F07A8168680028C5
:202D600000F076817A00414627F044FC70E1307F022840F06581099828B94D467189288815
:202D8000884240F06581099831460CF0E5FD5EE10C490020B5F84810404624F035FDA846EA
:202DA000074608202FB17D781DB90221397007257D70B16A0A79CC788B794D7891F802A038
:202DC000CF7904EB02244A7902EB03296A0928BF1020AA0924BF0830C0B235F0700340F028
:202DE0003781327F904240F0338105F07005680938BF002006D306A8083128F010FC25F0C9
:202E000010050820A90907D3B16A091804A8083128F005FC25F020052046514625F06AFBFE
:202E200008280DDA8D4B410001EBC001C9188879B84240F30D818F71002002E0A630002020
:202E40000420B8F83A10A14219D048B9B189484601222B4611F064FF28B1F9E0883000203D
:202E6000042840F0F58006A804AE009049463A46534601962046029515F024FBE8E0B1892F
:202E8000484601222B4611F04BFFE1E0B5F84810404624F0B9FC4FF00609041C03D0607897
:202EA000002800F0CD80B06A817847780891C378017900F1050A03EB01200990404621F04E
:202EC000D7FA9AF8001009185FFA81FAB80928BF4FF00E0937F0780040F0B28007F018007C
:202EE000182800F0AD80307F814540F0A9804FF00009CDF800900899B089524643461DF002
:202F000013F8032800F09C80002807F078074DD117F0180F18D195F8310028B1B089414645
:202F200001223B4611F0FCFE09984FF6FE714A463B4611F0F5FE002838D14FF6FF70ABF810
:202F4000000039E0F034002047F00107780928BF47F00207B08939461CF072FF90B18179BD
:202F600011F0180F0ED0417901290BD154B14088B5F8481024F048FC20B1437813B1607839
:202F800098425DDCB089414601223B4611F0C8FE60B94FF6FF70347AABF80000002C0CBFDE
:202FA0004946B169B089524627F0E8F8BBF800104FF6FF70884243D1012000900899B089C0
:202FC000524643461CF0B0FF0998394623F02AFB698F81422ED1099828F0B1FA60B1007915
:202FE000012818BF022807D1099804A926F0BEF808E0C0462C4A002027F0CCFA014604A861
:2030000028F00DFB307A012803D1B16906A828F006FB06A8009004AF0197B06A407840F07D
:20302000300002900999089BB0894A4615F04AFA48460CE0B06A80F805A026F075F906E05C
:203040004FF00009F4E70999304615F02FFE099009980FB0BDE8F08F804B00206431002046
:203060002DE9F04F974C04F128000368ADF1540D13B1002083F83100DFF850820025A94644
:2030800013F1340711D05B6C8F4EB7612BB940460068D0F84C058047B76978687060F86872
:2030A00018B1103630608A4F3E6028F0D4FA1290082017F0F1F81DF073FB464610B1BBA037
:2030C00028F04CFC1FF0FEFF0CA827F0D1FF04200CA98DF83000284627F0D2FFE06327F0AB
:2030E00015FD04A827F024FF042004A98DF81000284627F025FF606327F012FD08A827F019
:2031000027FF042008A98DF82000284627F028FFA063616B19B9ADA028F020FCA06B10B96D
:20312000AFA028F01BFCE06B10B9B2A028F016FC3068D0F8E00380473068D0F81802804736
:20314000D8F800002F460726A03001687B5823B118468047D8F80000A030761E07F10407C1
:20316000F3D1D0F8B8028047EB2028F09DF8A06A78B16846FF2108221CF0FDF9A06A6946A4
:20318000082226F0F1FB04F12806012818BFD6F8009068469C4A13900CCA5FEA090180E8BA
:2031A0000C0021D108201AF077FB5FEA000956D0A9F10206032728F05BF906F8020F7F1E11
:2031C0004FEA20207070F6D11020F82706F8020F4946082204F1440089F8077027F00AFA6C
:2031E000484624F08BF904E004F14400082227F001FA012008216A4628F0F2F804F1440615
:20320000002818BF092826D126F00FF880081DD26846FF2108221CF0AEF902AFFF2108224D
:2032200038461CF0A8F90120294608223B4627F0A3FD80B938466946082226F095FB28B95A
:2032400030463946082227F0D5F904E001200821324628F0CBF8E220314623F097FA25F0B7
:20326000E4FF400834BF2E1C0126D94F5520012107F13A0228F0B4F818B916B1284625F0ED
:203280002BFAD44FE22007F1480125F01BFE30461FF08AFD6846294610221CF06CF9B946AA
:2032A00099F80E0030F0010017D1CB4F69461022384626F059FB68B939466846102227F0EC
:2032C00099F90AE00838002004480020140100201C530020684624F091FD622010216A462F
:2032E00028F07EF828B926B1622010216A4628F07DF86846294610221CF03DF9304616F08B
:2033000039F8304623F0E8F9304616F041FA684624F074FD40F2011010216A4628F060F894
:2033200030B92EB140F2011010216A4628F05EF86846294610221CF01EF91EB12846012162
:2033400023F04CFF24201AF0A7FA0028206400F09E81E06A216B221D1DF070FFD8F80010F4
:20336000D1F84C138847216C201D0860E06A216B04F108021DF062FF11F0CEFF216C04F191
:2033800008004860E06A216B04F10C021DF056FFC94ECA4F3070216BD4F82CC0266C2B462B
:2033A00007F1100006F1080E34E0C04652616E646F6D5F736565644175746F6D61746963D6
:2033C0002829206661696C656400C04641455343434D206F70656E206661696C656400C04E
:2033E000414553454342206F70656E206661696C656400C054524E47206F70656E2066611F
:20340000696C656400C046C084D6020040F823505B1CDBB2002BF9D07D61CEF800206046DF
:2034200004F110021DF00AFFA54FB870AA48B9F82C603D7009F14001BE8028F0F0F809F104
:20344000500604F11003216C99F82300CB6004F114027870216BE06AFE601DF0EFFE99499F
:20346000994E0870994ABE60994B7A62206CBB6204F1140604F11802216B0661E06A119285
:203480001DF0DCFE934EF0714FF0020A86F828A04FF6FE70308427F07DF8D5488E4906F194
:2034A000180B0560584628F0BAF8D248D2498160D24BC360D24A0261D2483822FF211CF0A7
:2034C0005AF8D148D24B8360D24AC260CF4941600570D14B0361D14A4261D249C161D04B7F
:2034E0008361D14A3A61D249B961D04B7B61D14AFA6106F1340016F07DFA09270BF12C0090
:203500007F1E40F8045BFBD1F07948F2010121F077FCF0794FF4004121F072FCF07948F273
:20352000210121F06DFCF07948F2220121F068FCF079202121F064FCF079212121F060FC81
:20354000F079222121F05CFC206C11994161E06A216B04F11C021DF071FEB74E48F21501C4
:20356000307021F04DFC3078382121F049FCB44FB248F7604FF6FE7286F828A0216C70614D
:20358000B04B328404F11C078F61E06A216B336104F1200632461DF051FE07460C484770C1
:2035A000024692F83B0008B189F80CA0A648C580C5608570456105744FF00109057048F2B4
:2035C000020180F80490384621F01AFC06E0C046384D0020684B00204CD40200384648F2F9
:2035E000010121F00DFC384648F2040121F008FC9748964F3049974B3861974A4B6008464B
:20360000236C8260216BE06ADE6104F124021DF015FE924B207092499870284627F098FE7E
:203620009049484627F094FE8F49042027F090FE8E49062027F08CFE8D49072027F088FEA1
:203640008C49082027F084FE98784FF6FE71491C21F0D6FB894E8A4B8A4A874873609949C5
:20366000B2608A4E884B88620846BE60894A4362894F874B894E10481A60894AC760034629
:203680001F461E61206C7A6104F1240606628648844C0570D8F800102570844F6570D1F85F
:2036A00000616561F089D1F850123D70103080B288472061C0B911E0CC500020AC45002019
:2036C000784D0020F8510020755501005DBB010071AF0200E8490020AC4D0020D8F800005C
:2036E000D0F84C058047206900908DF804509DF8051065F301018DF805109DF8051065F358
:2037000083018DF805109DF8051065F307118DF80510D8F80010D1F80011C9896A461031DA
:20372000ADF80610216913680B6052684A60E061256218F0E3FDD8F80400C168087848B9CC
:20374000D8F80000D0F85824284601469047D8F80400C16856480570564F3D70087830B9FE
:20376000D8F80000D0F85824284601469047129828F0F8F812F098FC25F030FCD8F8000050
:20378000D0F8D40090F8430025F0CAFED8F80000D0F8582429460120904727F0B1FA46481A
:2037A000D8F804700570F868007830B9D8F80000D0F8582428460146904718F027F93F4840
:2037C0003F4A07212B4625F0F1FA1AF0FFFD22F0BFFF102010A98DF840005A2022F0D6FFE2
:2037E0004FF40040012110F08DFF15B0BDE8F08F1C4C00204451002005EB0100756F01009C
:20380000397F0100E430002030500020E1AC0000E99B0200751302003F790200E19202004F
:20382000C57302004998020011A10100F58A01009992020051C90000F04D0020D56C020051
:20384000D1850200758E0200A85E002030510020EDAC0200B75B000069470200445200202F
:2038600055AE020019AE02002DAE020041AE020015AA02002DAA02008D43020010500020C0
:20388000915B0200253B0200753B0200CB5A020078470020A9510200499401002D270200F0
:2038A00055530200A4620020036600200566002008660020FC65002004660020904F00208C
:2038C000E7B60200384D00202DE9F04F9F48A14A01789F481170A04C4170A0490C30E0609A
:2038E000ADF12C0D086022F08BF8A249A0489C4D9C4EDFF87892A246091D401D0A919A4984
:2039000009908B46C2E1706AF769994B840004EBC004E4191F7810341B2F1FD11846B8A17C
:20392000042225F033FE002825D09148BCA1042225F02CFEE8B18E48BEA1042225F026FE36
:20394000A8B18B48BCA1042225F020FE68B18848BAA1062225F01AFE00284FD1402F0BDD4D
:203960005B2FBCBF2037FFB206E0FD2704E0FC2702E0FB2700E0FA2794F80580394620462E
:2039800016F09AFA012839D0F169706A0D3F1BD00E3F10D0643F04D07D3F2CD0781E28D006
:2039A0002CE0CF68B06A002F07BF8868401EC968F161706219E0B8F1000F01D06079A0B166
:2039C000316A8868401E0EE0820002EBC002521802F110010F681FB1896831B1884704E0A4
:2039E0008968B06200207062F16100200FF014FD04E0002000E0012023F0C4F85C480021B7
:203A000005221BF0B8FD70690999052227F05DFDE88920F04000E881010A09D300201AF071
:203A200061FEEA894FF67F7122F080001140E981410A08D320F07EFAEA894FF6FF6122F456
:203A400080701140E981800A04D36A6B12B1E878082190470020E881DAF80810480AC0F0ED
:203A6000BA80CD48CD4F04783878012800F0848027F092FC011C00F0A88099F824808A7B7E
:203A8000C54B89F82420B9F83A708A7B08691A708A898B7BA9F83A20012200920022019278
:203AA0000122029200220392049342780592406800232122069001200790F2200CF0ACFF9B
:203AC0001E20CD4989F82480CA4AA9F83A70B24B087090681C7000282AD026490C681434C8
:203AE000276857B102693969914205D007F114042768002FF7D100E097B9BE49CF687FB146
:203B0000786827F04CFDBB480021C0680A9F4160386827F044FDB7490020C8600F46B8681A
:203B200027F03DFDB3490020886020680F46B860DBF8181027F030FC002846D0084632211E
:203B400027F011FDCB4827F0AAFD3EE008380020201B00200B6600208C480020B04A0020F7
:203B6000B044002074270020AC4500206C470020AC270020B05100209BF85A00864908704A
:203B8000CB4999F82480BBF8583089F82400B9F83A70A9F83A300122009200230193029296
:203BA000039304909BF85B000590DBF85C0021220423069001200790F2200CF02DFF89F8B6
:203BC0002480A9F83A7074480470DAF8081021F48071CAF80810DBF80C008A0A4AD3071C49
:203BE00040D0C468F968A1422BD839468F6860B3D0F80880814215D00246434604E0C04606
:203C00001B5B41001A469368FBB1F2B19942F9D198689060184627F0C2FCDBF80C0014E0A8
:203C20001B5B4200C348006827F0B9FC4046CBF80C000AE01B5B43001B5B44001B000000C0
:203C40000000F968091BF960BF68002FC9D14CB1DBF81C1030B10846214627F084FCC14864
:203C600027F01DFDDAF8081021F40070CAF8080021F40071C80A07D31FF032FEDAF808008F
:203C800020F48060CAF8080021F0FAFADAF804004FF0FF3127F05EFE0028F7D09AF8000028
:203CA0001EF0A2FD041C00F0808127782878C72F0FDCC72F00F0A280923F00F0DD80BF1E23
:203CC00000F0D380313F00F0B0807F1E00F0CA80D5E0E03F64D0BF1E06D07F1E00F0BE80B4
:203CE000BF1E00F0B680CAE094F84000443080B227F017FD071C00F0C28004F10408381DCF
:203D00000C22414626F07AFE20693861207D387594F915007875A07DB875E07D0A2208F199
:203D20001401F87507F1180026F068FE608C788494F8240087F8250094F8250087F82600E3
:203D400094F8260087F8270094F8270087F8280094F8280087F82900E06AF86294F83000F5
:203D600087F83000606B786394F8380087F83800E06BF86394F8402004F1410107F1410071
:203D800087F8402026F03AFE384600F06BFF384627F005FC73E0C046784D002030510020A9
:203DA0002779221D002007B1012027F0FBFA6779A7B1E7881FB9002027F0F4FA17E05088AC
:203DC000401CA881874827F06CFC286B4FF47A7127F0C9FB834827F062FC08E00020A88103
:203DE000804827F05EFC286B002127F0BCFB20F0A1F844E0A8510020B05000207A4AA17B22
:203E000085F87A10278AA5F87C70271D3B6879681360FF28516002DA401CC0B228700020EC
:203E20001AF060FC1FF07AF929E02079E71C02280BD1E3784BB9607940F002008DF82000E0
:203E40009AF8000008A927F063FB38461AF04AFC15E0A188A01D15F033FE10E0201D23F08B
:203E60001DFC0CE01FF0BAFD09E0E01C0BF022F805E0C04620460020201D17F0C8FB20786D
:203E80004FF00108712823DC71284FD0652811DC652864D0801F75D042387CD018386ED017
:203EA000401E69D0401E012875D9801E5CD06FE0F845002066384FD0801E49D0801E0328E3
:203EC00069D9001F40D0401E3AD0401E34D05FE091280FDC91285ED0723802285BD9C01EF7
:203EE00020D0401E1AD0401E55D0C01E53D0801E51D04DE092380DD0C01E01284BD93038E0
:203F0000062848D91B3846D0801E012843D9093841D03DE0E76A002F3DD035E0A768002FB7
:203F200039D031E06769002F35D02DE0E768002F31D029E0B8450020E768002F2BD023E035
:203F4000E768002F27D01FE0E768002F23D01BE0E768002F1FD017E0E768E7B114E0E768F3
:203F6000CFB111E0444600202746786908B123F0C5FAFF697FB107E0676967B104E0676932
:203F80004FB101E0A76837B1384623F0B7FA02E04FF0000802E0204625F0F6FCB8F1010FD6
:203FA00003D014B1204625F0EFFCE88900283FF453AD81090AD31EF0DBF925F031FFEA8936
:203FC0004FF6DF7122F020001140E981C109FFF423AD3078012803D1F07801283FF493AC2A
:203FE000FEE7C04688450020204500202DE9F04FDFF8ECA2B94C4FF0E0470125ADF12C0D42
:20400000DAF804002169C06808931F400570B54807924FF0000505704FF0020000EA02002D
:2040200008BF002840F0C082DFF8BCB2DFF8BC824FF480301E462F461040374008BF002843
:2040400033D1134628464FF4003210EA060702EA030208BF002A0ED137464FF4800238409E
:2040600002EA030208BF002A00F08F82284608711DF0E8F989E20871EB2023F043FB5B46A7
:204080002846414618700878862801D123F088FB27F0E1FAE1690A682B4613710968E161B7
:2040A00027F060FC26F03CF96FE22846DAF80070087107F1B8000268DFF8F09217784FB9BE
:2040C0004B461F7837B1D0F894048047DAF800002169B830B64E81224B46FF251A702778E0
:2040E0003570806CA7700023A3815E461D46097AC0893570891E8DB2A842C0F23A82E169D1
:204100000831096804F1180001600426A681DAF80020607EA17EE37E04F11906B83200EBFD
:2041200001206081717823711368ED1EC1F30119ADB219780696002908BFB9F1020F00F085
:204140001882B9F1020F00F3148261B110F0070F00F00F8241460978862904D100F0070154
:20416000022940F00682011301F00201022967DA667800F0070002285BD1002E59D1D0692C
:2041800090F88300022851D0E1690C31097805A801700527A78127F05EFA45460646287869
:2041A000862840D1DAF80000403001680F6837B9D0F80C058047DAF80000006C07689DF94B
:2041C000140027F08EFA7877DAF80000016C096800228A77006C9DF914100068C17730462E
:2041E00027F0C0FB2679678927F035FA41460A7807F01007862A15D1C24D05F11E031A88A3
:20420000521C1A8087220A7027F0ACFBE879B04206D11FB900201CF0A3FB07E01B20FAE7E6
:20422000E920F8E70646304627F09CFB26F078F8A1E141460878862803D123F0B1FAA778B8
:2042400066788FB186B9012F00F093816089022F03D110F0070F40F08C81032F05D100F094
:204260000701032901D084E16089010980F08181011301F00201022902DA810A80F079816B
:2042800006994978C1F38108B8F1010F4FEAA111099100F06E81012900F06B81C14AB9F1A9
:2042A000020F0BD0535C12F80870002907EB0301CFB222D0C10920D3BF1E0DE0891808EB34
:2042C000020709793A795218C109D7B210D2099958EA010611D0BF1CFFB20EE0A462002095
:2042E00014010020905200200566002008660020099958EA010608BF0227C0F30020391A6D
:2043000060718D42C0F23581DAF80010ED1B2D18A8B2D1F850122081743080B288476678BD
:204320000028606100F02581002174221BF023F90020E07062891EB902F0200059460870C5
:204340005846617906784FF0000C002E35D0002933D102F00700032808D001282DD1DAF8C7
:204360000000D0F8D40090F8826036B3DAF80400406906781EB126F0F1FBFE281AD0DAF89E
:204380000000D0F84C02804750B9DAF80000D0F84402804720B96289617994F803C00CE0B7
:2043A0000420E0706289617906E0C04603660020155300200420E07084466569268905F116
:2043C000740305F17400AB65069B686093F801B02E8120890029CBF301191E46A5F85C0091
:2043E0003078AA8100F0780049EA00004CEA000028744FF0FF03AB730CBF2079002085F81D
:204400003A8085F84900099885F83000A089002FA0EB010086B2A68100F0A880E169E780C2
:2044200068463A468919083118F0DEF9BF19B8B2A0812846027C4FEAAB0111F0030F01F05C
:2044400003076D4602F040083ED0B9F1020F4FF0000301D1D1090BD29DF801209DF8001076
:2044600001EB0221A0F844100DF10205A0F842106D4EB0F84410728F8A4203D04FF6FF7245
:204480008A421FD1032F10D06A78297801EB022189B24186328FAD1C01208A4211D04FF61D
:2044A000FF728A4218BF181C0BE060692946323027F0B5F860692F363146323025F03EFF12
:2044C00008350346002B48D006984078861120D06069B9F1020F03D0017CC90903D309E0D1
:2044E00058EA070706D16A782978AD1C01EB0221A0F84210032E07D069782A7802EB0122B5
:20450000028506E0C84F002060692946283027F086F8608900F00700032809D0012825D1CF
:20452000DAF80010D431086890F88200F0B102E050460168D431D1F8741160698847A8B94C
:204540000020069FE070B97866697878C1F3011100F078000843307408E0DAF80000D0F8B7
:20456000FC14324888471CF06DFF04E00EF0AAFE01E026F08FF927F06EF8E1690A68002305
:2045800013710968E16127F0EDF9079A089F202100201140384008BF00291BD025F088FEFF
:2045A00018E0C04610DC0200214A92F90000002803DD92F90000401E10701E4A92F90000B5
:2045C000002803DD92F90000401E1070284608711CF038FF174A92F9000098B1079B089FC2
:2045E00002214FF0E0401940384008BF002912D092F9000000280EDCDAF80000D0F84C050E
:20460000804708E0DAF800700B480021D7F85824017008469047DAF80400C06800210BB07A
:204620000170BDE8F08FC04604480020F050002092520020915200208E5200202DE9F04FB7
:204640000023ADF1340D099093480A910022C37150260372011D0A70A0238372002483739E
:2046600040224271884646722146C17303688189C4728F2241F4305182716FF30F03818189
:20468000214601744CF2101119430160CA49DFF80CB281F8322022469BF800000B9260B9FE
:2046A00020461EF081FBC44890F83200000911D3204608A98DF8200009E0084690F83200AA
:2046C000000907D301200DF121018DF82100522022F05CF826F012F8DFF81C935FEA000A3F
:2046E00040F0C88011F06EF85FEA000A40F0B6802046B14A0C90742124322120154626F088
:204700006FFE002858D12120214674222B4626F033FB002850D1A848408F4FF6FE71814269
:204720004AD00120A44F0C9097F84A00082806D0042804D013F010FB20460C903CE00C9CFC
:2047400042200DF122018DF8224022F01FF805F12F01432022F01AF805F12C01472022F07D
:2047600015F805F11C014A2022F010F805F11A014B2022F00BF805F12401304622F006F863
:2047800005F11601532022F001F805F12D01542021F0FCFF05F11801E12021F0F7FF384655
:2047A00090F83200000938BF0B9C52200DF122018DF8224021F0EAFF0B9C14E0DDF82CA0E8
:2047C0004FE00B9AA60006EBC40621460C23F0190090012022F0E8F818B9B85D80F0FF000D
:2047E000B855641CA4B2B9F80000D9F80470A042E7DC12F0CBFD9D48001D006800B180478F
:2048000020F096F80C98F8B126F048FDABF8200028B998F8000000F0F80088F800009448DA
:204820000E300078022818BF012004D1624A002182F84A1003208BF80B0039350BF11800F7
:20484000294626F0ECFE01E04FF0090A864C0020608020F05FFFBAF1000FAFD0824C4FF030
:20486000010A554890F83C10012707FA01F0CBF8100091E010F0A6FF13F06EFA4E4A212075
:204880007421243226F0B2FD02A8FF210C221AF072FE4D460CE0C046C8640020E8490020D4
:2048A000214601200C2202AB1FF084FC641CA4B22888A042F4DC02A8FF2110221AF05BFE6F
:2048C0000B9C03202146102202AB1FF073FC641C152CF6DB6548006800B180470020ADF866
:2048E00008004FF4A17018F0D7FF071C12D0FF214FF4A1721AF03FFE384602A9022225F05A
:2049000079FE42204FF4A1713A4626F06FFD384622F0F4FD00200B99ADF81000062202A89B
:204920001AF029FE142018F0B7FF061C1BD0C44808300068A0B103270224A0B202A90622D5
:20494000801925F057FEA41D7F1EF6D104A93046022225F04FFE4C201421324626F046FD14
:20496000304622F0CBFD182018F096FF071C10D00B9C182221461AF0FEFD062021461822FB
:204980003B461FF017FC641C032CF6DB384622F0B5FD21F0BFFE344CA94DBAF1010FA146CC
:2049A00074D1334C044EA77B24363FB3012F0CD0022F12D102E0C0466C47002098F8000008
:2049C00000F0F80040F0020005E098F8000000F0F80040F0010088F800009A4824F001FFB9
:2049E000002808BF002010D003208BF80B0004278BF80A700BE0C0465452002098F8001098
:204A000001F0F80188F8001002208BF80B0026F02FFDE76B099900F07F000818CBF8107064
:204A20006430022180B20B90FF2022F0D7FB01201BF026FF88494FF6FE70431C48870F4697
:204A4000F8870020A1F8483022F00AFDA07B012813D10A9801280DD002A8002108221AF0BE
:204A60008AFD02A807E0C0465851002044500020684B0020002021F04BFA21207421324604
:204A800026F0B4FC0020022122F0A8FB7348AF6872498089544640F00100888187B912207C
:204AA00018F0FAFE0646002EAE606DD04FF6FE70B61F0327411C26F8060F7F1E7180FAD196
:204AC000002C61D106AB4C200021022226F054F9002852D1BDF8180000284ED004284CDA03
:204AE000182018F0D9FE03274FF0020800240646AB681FFA88F14C2006221B1926F03CF904
:204B000088BBA868015B4FF6FE728A422BD056B300962018418800221823062021F044FFF3
:204B20003069AA6800F2E93333611019418805F10C02880000EBC100A9681350081973698D
:204B40004188880000EBC1008018A9684360081941881822334606201FF02CFB304600217C
:204B600018221AF008FD7F1E04F1060408F10608BED116B1304622F0C1FC394B7120002178
:204B80000822503326F0F8F825F004FD26F000FA012068702C4EC9F80C600027AF702B48E3
:204BA000C9F8100024F03AF82A482949BAF1000F086014D0284890F8650080B9384662215D
:204BC00002AA1DF025FF02A8394623F0B4FB384617F0A4FA02A8394610221AF0CCFCDBF8EA
:204BE000140050B10BF114040768206822F086FC38460028CBF81400F6D109984FF6FF7167
:204C0000814217D0012000278BF800000BF1090201468BF80970852026F0E2FB0BF1090434
:204C200028B9852039460122234626F0A5F80B9824F03AFF24F08AFB50460DB0BDE8F08F30
:204C4000FC3E0020AC4D0020B123010051B00200B84F002001BC01006C470020C864002005
:204C6000684B00202DE9F04F0746C54C97F824000026ADF1840D0128ADF83C6006D197F8D6
:204C800028102078012902D148B9B6E2207830B9387D022800F0B182032800F0AE82607808
:204CA000CD4D012810D1CA482179007888420BD097F83800E32840F0A082C648804626F0F9
:204CC000E7F9012800F08F824FF4FA60F860E86926F09FFA40B9E869F96826F044FC05F1DE
:204CE000980026F0DCFC02E0F9680818F86097F8250002288DF8300003D008B9F86A0D904D
:204D000005E00DA807F11801082225F077FE0CA80DF13E010FAA1BF0EBFD58B913A807F1D3
:204D20003401042225F06AFEBDF83C000DF13E011FF090FA2078012800F0BC80002840F08F
:204D40005C82397D31F0010018BF042940F0558268463146242226F0E6FC384669460CF006
:204D60000FFB97F81780BDF8000010F0070F06D000F0070002280CBF14270B2700E00F27F3
:204D80009DF81900C01987B2384626F0CAFC5FEA000900F0328204466946022225F02EFEA5
:204DA000BDF80000A41C10F0070F18D000F00700022823D102200DF1080A8DF82400082266
:204DC00051460AA825F01AFE20460822514625F015FE9DF81000083404F8010B0EE00DF139
:204DE000040A8DF824600AA80422514625F006FE20460422514625F001FE241D05A9204688
:204E0000042225F0FBFD9DF81800241D04F8010B9DF8190004F8010B9DF8190068B107994C
:204E2000002900F0EA810246204625F0E7FD9DF819002418079826F0B2FB08A920460222C0
:204E400025F0DCFD9DF8220004F8020FB24CE068FFB250B90C2026F064FCE06000B1866027
:204E600047700146C0F8049015E0E4680834206820B100F1080420680028FAD10C2026F058
:204E800050FC206018B183680BB1866020684770C0F804902168002900F0AF8181F800809A
:204EA00009A809F091F8A869322126F05CFB05F17400A0E197F83800E32805D1206918B109
:204EC0008047002800F0998197F83800E2280DD0E3280BD0E02809D0E12807D097F82800CD
:204EE000012803D0387D032840F08781BDF83C0000280CBFB0460DF13E0831462822684611
:204F000026F011FC0AA83146032226F00CFC97F838C0DFF8ECB2BCF1E30F23D097F82500C0
:204F200010F0070F16D000F0070002281AD102A807F11801082225F061FD97F830009DF8BD
:204F4000283097F838C08DF8100003F0F80040F0020005E0F86A9DF82830019003F0F80010
:204F60008DF82800BCF1E30F0CD097F829109DF82800C90000F0F70001F00801014305E0B1
:204F8000305100209DF8281041F008018DF8281097F826309DF829209DF82800190102F020
:204FA000EF0200F0CF0001F03001022B42F0200241EA00018DF829209DF82A208DF8281008
:204FC00002F0F8008DF82A0008DA9BB118E0C046A847002068460020AC45002097F8273038
:204FE00043B1012B0CD19DF8290000F0FC0040F0040003E09DF8290000F0F8008DF829009F
:20500000387D032807D1FB6B9DF82900099340F008008DF829009DF829009DF8282097F808
:205020004030800100F4006100F4F860084302F030019DF82820014302F008009DF8282078
:20504000084302F007017A6B8DF818C0084305923043ADF8000023B18DF8193007F14100F4
:205060000790BBF83A00ADF8200097F91500082805DC10F16D0FB8BF6FF06C0000E008206A
:20508000BB7D6E3040B2002B4FEA60000CBF311C022197F8179040EA81108DF82200BDF8FC
:2050A000000010F0070F06D000F0070102290CBF14270B2700E00F27800A06D29DF8180084
:2050C000E22808BF8DF8196001E03F1DBFB29DF819003F18BFB2384626F023FB5FEA000AD8
:2050E00000F08B8006466946022225F087FCBDF80000B61C10F0070F10D000F00700022860
:2051000012D102A93046082225F078FC9DF81000083606F8010B07E0A851002001A93046CB
:20512000042225F06BFC361D05A93046042225F065FC9DF81800361D06F8010B9DF8190002
:2051400006F8010B9DF8190060B10799002954D00246304625F052FC9DF8190036180798DD
:2051600026F01DFA08A93046022225F047FC9DF8220006F8020FBDF80000800A04D3701CF7
:2051800009A9042225F03AFC85F85B70F220BBF84870E378C5F85CA0A9F10C0685F8550095
:2051A000E188A5F85670002B85F85A6006BF0F204FF6FD71022085F85400B8F1000FA5F8D2
:2051C0004C100AD098F80100800906D305F1580008F10B0125F050F865E60CA81AF08CFF62
:2051E000A5F858005FE6404626F05BFA286AC82126F0B9F9404626F052FA21B0BDE8F08F64
:205200006C4700202DE9F04FCE4C0D46280CADF1140D80F04E82DFF81CA3680880F02582A9
:20522000E41FC74E207AA90880F0E881A90980F0D281DFF80883E80B80F086812078A90BA5
:2052400080F04F81BA48DFF8F0920768680980F02A81280928BF85F0080080F04F82680A70
:2052600080F0BB80E80880F0AE806069E90980F09180280A63D2A80A5CD2C84C280B2CD22D
:20528000E80A28D3142018F007FB071C20D000262434B046207A012813D100970420314683
:2052A0004246142321F080FB58B9206838606068314614223B46786004201EF07BFF84F87C
:2052C0000880761C0C34282EE4DB384622F016F985F4806012E2002010E2182018F0DCFA4B
:2052E000071C24D00026B046207A012813D10097062031464246182321F056FB58B92068E2
:2053000038616068314618223B46786106201EF051FF84F80880761C0C34032EE4DB384659
:20532000414618221AF027F9384622F0E7F885F40060E3E119F018FA85F40070DEE11CF0A7
:205340000FFC2078052819D1E07904211DF0DEFDE07904211CF00AFB062025F0C3F9514610
:20536000087800F00700022801D025F041FE23F06DFD19F0F9F923F015F901E023F066FD77
:20538000012023F0A9F90320012105F0E1F885F08000B3E1A0B118F031FD60690768606913
:2053A00022F0ACF867615FB1FA8802E0F888801AF8803F68002FF9D1E079402126F00BF9F5
:2053C00085F040009AE1FF20032121F007FF25F071FFC34901200860FEE74A4692F84A00E0
:2053E000082818BF04285BD124322120742125F0FDFFC44E7068318800241BE0A30003EBBE
:20540000C403C75C37F07F0212D017F07F07C754034405D101A8FF210C221AF0ACF801AB02
:20542000012021460C221EF0C5FE304631884068641CA4B2A142E1DCB34E4FF0FF094446C6
:205440000027F06994F8211080291FD161798DF8091022798DF808206388ADF80630208848
:20546000ADF8040084F82190217D8DF80C10E2798DF80B20A3798DF80A30A0690490394615
:20548000102201AB03201EF095FEF0697F1C2434152FD7DB00B180470020022121F09EFEC0
:2054A00085F480702AE14FB17968087818B1486800781AF0CFFE3F68002FF5D125F0EEFEB2
:2054C000208425F067F891480078012806D14A4610784FF40061642226F07DF885F0100011
:2054E0000CE10C280DD00C2025F0FCF82078012803D0022818BF0C2801D1002020712336D4
:205500000DE0022025F0EEF82078012818BF022804D101202071002024F0C6FA2736E0798E
:2055200032684FF4005126F056F885F40050E5E050520020CC6400206C47002014350020FD
:20554000794B0020EF4900200120022123F0B6FBC6B22EB3F00018F09FF95FEA000921D0DB
:2055600083464FF0010A444615272079012818BF02280DD18DF804A06088ADF8100001A842
:205580001EF080FA20B102A9584626F048F883467F1E04F12404E8D104E0C046083F002086
:2055A0004FF00009B9F1000F12D076B10F204FF6FC778DF80C001F24ADF8047001A93246EB
:2055C0004B465348009415F05FFD484621F096FF85F4804092E050B92078062802D1072002
:2055E00025F080F83078012801D124F07DFAE07910211DF027F985F020007FE000BB2178F1
:20560000E07908291AD124F093FC092025F06AF840480078052806D0072809D1072001217D
:2056200004F096FF04E0012023F09CFC1CF098FA3078012816D124F057FA13E010210FE063
:2056400025F020FEEF2803DB002023F08BFC09E025F018FE1030C0B225F026FEE0790121EE
:205660001DF0F0F885F0020048E0012025F03AF851460978122011F0070F10D1211D09782D
:20568000022907D001290AD1082025F02BF825F0AFFC04E0082025F025F815F003F928B1CB
:2056A000207801214FF47A7225F095FF85F0010024E0194E1BE00178491E012914D9193933
:2056C00010D0B93908D02A3903D1316861B188470AE012F059F807E002F06AF904E0C0460C
:2056E0007C05204310F03EFB384624F04DF920781DF07AF8071CDED185F4004005B0BDE8B9
:20570000F08FC04654520020305000206E4B00200C4B0020544D0020FC4D00202DE9F04FCF
:20572000CA4C05462078ADF15C0D032840F03E824FF0000B6846182284F800B0082384F849
:2057400001B0594625F05EFE6846594622F04EFD20612E22594604F1300019F00CFF04F140
:2057600030008146FF210A220C3019F004FF22F095FE294658461FF06BFA04F11801E0602A
:2057800025F06CFE206AE169B1FBF0F2D7B284F83070022FC4BF022784F83070E770B0F58E
:2057A000005F04D1E068B1EB473F00D310B901202070FDE1FF2184F83310D846CDF82880B6
:2057C0005D460B950C950D950E950F9513950A46109211921292149215924FF40056E686C9
:2057E00059461691AF4200F30B81139E002E3AD10F9E002E28D1B8F1020F25DA0E980228AC
:2058000022DA0B9802281FDA0A9887421FD00E9E9EB9B8F1000F0ED10D9E0C9806430FD15A
:205820005D46AF4213DD284614F0BEFE6D1CEDB2E7786070F5E7012016E0B8F1000F01D1E2
:20584000032011E002200FE05D46AF4201DC58460AE0284614F0A8FE6178E7786D1CEDB2B2
:2058600001436170F1E705200028A07000F0B180401E70D0401E00F09280401E1DD0801ED6
:2058800040F095811498FF2804BF1598149084F8330094F833200C2684F83120D019401E07
:2058A00090FBF7F17943401A84F8320012FB0690808BE0860EF030FA87E0002F08BF5D4675
:2058C0000BD009F10C0138465D4611F80C2FFE2A03D0401E05F10105F7D1AF423ADD0C2030
:2058E00084F83C5015FB0090817E84F83D10C07E84F83E0012F088FCE2782D1895FBF2F0A9
:2059000050432D1AE8B284F83200401C90FBF2F15143401A84F831007C2021F06BF9FF28C8
:2059200010D17E2021F066F9FF280BD1FF2021F061F9FF2806D1782021F05CF9FF2808BF01
:2059400094F8310084F833000C2110FB0190808BE0864FE0FEE71098129E84F83200FF2E5A
:2059600000F1010090FBF7F101FB07F1A0EB0100C1B284F8311008D11198FF2804D10C2068
:20598000129111FB009005E012901299880000EBC100484484F83310808BE08607E1DDF8E9
:2059A000408008F1010084F8328090FBF7F17943401A84F831005FFA88F014F0F5FD607032
:2059C000FE215FFA88F022F027FD584604F072FCEDE084F831B0781E594684F832000C2662
:2059E00084F833B011FB0690808B7E21E086584622F012FD94F83200FE2122F00DFDD6E028
:205A00000C2115FB019706AA0423690325F02BFD069807F11606010EB1F1960A18D1C0F392
:205A20008541C0F3014040EA8100022810D187F819B09DF818003070FF223A769DF81930B2
:205A4000FB7528461EF05EF9B8836CE0504A00202846594607AA24F0B1FA2846012108AA03
:205A600024F0ACFA2846022109AA24F0A7FADDF818C00CF0FF010CF0FF00FF2909D0FE29A7
:205A800007D07E2905D07C2903D0782918BF702909D15FEA0B0706D1CCF38541032908BFA6
:205AA000BAF1000F1ED0284614F07EFD0746002FE068677038D1690306AA042325F0D3FC86
:205AC0002846594607AA24F079FA2846012108AA24F074FA2846022109AA24F06FFA06985E
:205AE00000F0FF0030709DF81900069F9DF81E307070C7F30140F070BDF81C004FF6FF7120
:205B00008142B37002D128461EF0FCF8F0809DF822003071BDF8207037819DF826307371C8
:205B2000BDF824207281E0683178FF2936D0FE292ED07E2926D07C291ED0782917D07029E4
:205B400010D0A52908D0242904D00F99491CC9B20F9127E0159500E014951399491CC9B2B0
:205B600013911FE00E99491CC9B20E911AE00D99491CC9B20D9115E00C991295491CC9B21D
:205B80000C910FE00B991195491CC9B20B9109E008F1010710955FFA87F803E00A99491C61
:205BA000C9B20A91E7786D1CEDB21BE66070607817B0BDE8F08F70472DE9FC47D14C0F4632
:205BC0000546F80B80F0F6816078DFF83C83B90F80F09C81B90880F08E81F90A80F0F980A1
:205BE000390B80F0C580380907D2F80FC0F01A8227F080471BF01EFF14E225F02CFD81463E
:205C000023F012FF002800F0AD80082025F094FB002840F0A780802025F08EFB002840F03A
:205C2000A180684616F0F6FC012803D10098002800F0988000250126E8B224F0F3FF48B1F3
:205C4000837A3BB1867290F9090006FA00F0C0B221F024F86D1C032DEED30320207504F11B
:205C6000B40025F0F0FC484625F07CFECF4800252A460168056050F8081CCD4940F8085CBA
:205C800004F1380023F020FE40460068006B8047A168401A010BE069C1F1FF3282422CBF3C
:205CA00008444FF0FF30E06194F8200020B12069E169B1EBC02F25D923F0C6FE294600B119
:205CC0003146081C1BD0D44840F6090101804580417B06F00F0221F00F010A434273017B3A
:205CE00005F00F0321F00F0143EA010202732946416025F095F9418811F4406FFBD084F860
:205D00002060E5611EF038FFCA4829460560022023F052FB022021F0C9FF112014F094F953
:205D2000207818B96068483025F0ABFCC248007810B90E2014F088F994F8210020B184F806
:205D40002150052021F0B2FFBC48A0612575B4F98C00B4F98E10884214BF0220072018F0DA
:205D6000FBFB02E0484625F0FDFD27F0080741E720B1042021F09AFF00206070656820F0F4
:205D800071FF38B12846ED696FF4807100224FF00073A847E06858B140460068006B80475E
:205DA000E2686168801AC860000BC8600026E660A34904F13800002223F086FD0221A06F6C
:205DC000217518B104F5807025F063FC27F4006710E725F040FC064623F026FE216F002802
:205DE000894600F0828000297FD09649042504F138000022257523F067FD304625F0B2FDC8
:205E000004F1B40025F01FFC40460068006B8047E0604FF0010884F80180284621F05EFF28
:205E2000D9F810006060D9F81000416AC90803D3036A29460022984740461CF039FA606824
:205E400080F8158060680FF037F96568D5F808A040F60A02D01F564600F1010C00E01E46ED
:205E6000736833B119888A4203D0884218BF8C45F5D100217160727B08F00F0322F00F02DF
:205E800013437373D9F80C201288904224D06046904221D02B8E03B3696305F130025180CC
:205EA00095F83C0001F00F0320F00F00034385F83C3095F83D0008F00F0320F00F0003438F
:205EC00085F83D307260707B01F00F0520F00F0045EA0001717300E0E160504625F0A0F87F
:205EE0005146404623F068FA02E0304625F03AFD27F4806796E00FF0A7FEA06F08B927F069
:205F000002078FE0505300208C0100104E4A116841F08001116020B1042021F0C7FE00208A
:205F2000607025F098FB8246D8F85400016804208847D0B1287DC0B1A068B0B18146D8F80A
:205F400000002E69006B8047A0EB09002861000B2861B04202D280194008286140F6C4118C
:205F600081422CBFB0F5967F2961504625F0FAFC20F078FE78B1EE6928466FF480710022A4
:205F80004FF00073B047206F002808BF47F0020701D01BF04FFD2846AD6900214FF08063AB
:205FA0000A46A84727F000573CE0C046141004406D30020025F04FFBD4F8886076B306F1D8
:205FC000280106C90A234FF0E0450B40154008BF002B23D106F1280191E8000306F12805F2
:205FE00095E8060006F1280322EA090221EA080183E8060025F0B6FCB16889B1B9F1000F8D
:2060000008BFB8F1000F0BD03069B6F93010B5684B464246A84703E0DC64002025F0A2FC83
:2060200027F4804727B104F58070394625F031FBBDE8FC8700000460B2DB0200497E01001A
:206040008D760100099A0200CC2108402DE9F04FAE4DDFF8BC92287F0C46E108ADF1140D4C
:2060600080F04B81200C28BF48F2010680F01881600B28BF84F4805080F00E82B84EB01D1A
:206080000088210A80F0CC80200B04D311F0FEF984F4006000E2E00980F09E80AF68A00BA4
:2060A00059D26869E10B38BF0020C0F0F581BD4948C96A4648C2098811802F6938B93846C1
:2060C00024F0ECFC6861B0B987B90B200FE0017B31F07F000FD0A86901F07C0104290ADBAC
:2060E00040B9384624F0DAFC686120B9002024F0EFFF2DE0686168784FF4804141F28832D4
:2061000025F069FA297F6869082919D00188ADF80010017A8DF80810017B491CC9B231F0A1
:206120007F07017306D10188427A684623F0FCFC686909E0008800210A4621F02DFAF7E7C7
:20614000017B41F040010173406924F0A7FCA86184F48040A0E14FF0000A4FF0030BD0460F
:206160008FB96878BAF1010F04D04FF400511CF0CDFE05E04FF400514FF47A7225F02BFA1B
:2061800084F4005088E17E68307818B3F02821DC594642466B461EF0F0FBD8B102980388E1
:2061A0009BB985F836808DF80DB08DF80C8003AA0A2059461FF0CCFE09F10400016885F8D2
:2061C000368039B13078884704E001884FF0010A491E01803F68C3E71EF07EFE0746287841
:2061E000BFB1401EC0B22870A0B168784FF480411FF06EFD30B9286924F050FC10B93878C5
:206200001CF046F96878402143F6982225F0E3F9287810B90B2024F05BFF84F040003BE13C
:2062200000211EF035FEB04698F80060FF25CEB14FF6FF7308F1040000219C4610F8142F71
:2062400052080BD3C7884FB1BC4507D053B10289BF1ABAB29342C4BF0D1C131C761E01F1D5
:206260000101EBD1FF2D18D0A80000EB0510404418300189C088401A80B250B988F80150A0
:20628000FF2008F079F9FF2128460A461FF0ECFA0020A8F8060023F087FC84F08000FBE077
:2062A00068781CF0A1FA071C08BF84F4004000F0F3803878D32810D0297F814219D095F8E6
:2062C0003720A96A0A2805D0092812D1696AB81C88470EE03A7161B1F9E73846C189891BCC
:2062E00005D0C81E05D1384618F004FB01E017F025F9384623F048FBD2E7697850B1001FF4
:2063000000F0C280801E00F0B580C3E0384D00201050002095F83700810880F09980C10821
:2063200077D20009C0F0B6800620287725F028F800286AD01EF0D0FDEE68071C65D0706868
:20634000407880083BD33878032100226B461EF014FB38B970684078410834D20E201DE030
:20636000A85E002002980188B52912DAB421018068784FF47A724FF4005125F02CF9484649
:20638000416829B10078FF2814BF3878FF208847EE6870684078400806D2092024F098FE91
:2063A0000CE0C04690CE0200092003218DF80C0003AA8DF80D100A201FF0CAFDEE68706830
:2063C0004078410866D336490E6816B980081CD360E038781CF05CF8002600B10126304684
:2063E000032610B10E2024F073FE0C2028706878402143F6982225F0EEF80A208DF80D60F1
:2064000003AA31468DF80C001FE00E2024F060FE40E005F11C00052695F8381006708908EF
:2064200025D395F83A1011BB012700210422EF7019F0A1F82E771FF0ABFD022003218DF82A
:2064400000706A468DF801000A201FF081FD21E0042695F838002E7740081BD395F83A004D
:2064600028B123F0B5FE3046012104F071F8304600210DE0002085F83600287732220846F0
:20648000042125F0A8F805E023F0A2FE0420012104F05EF884F0040005B0BDE8F08FC046A3
:2064A000345000202DE9F04FD348D24CDFF84C93DFF84C83ADF1140D0191090C80F0D48123
:2064C0000199490838BF0020C0F0D8816768066825F04CFA4FF47A754FF6FF727043B0FBD3
:2064E000F5F081B267B13B887888CB1A9BB2984210DDC01A8242C8BF82B2FF68002FF2D1FE
:206500004FF6FF70904200F092802078012125F062F88CE0B87902287CD025F027FA97F8F2
:20652000382046434946B6FBF5F001F1080338801878904266DD97F83600FF2808D197F8A7
:206540003800401C87F8380097F8370087F8360097F8356097F839300020012101E0401CDA
:20656000C0B283420FDD97F8365001FA00F285F0FF052A42F3D03618814097F83600F6B2D2
:20658000014387F8361097F83400B98F10FB06F2891A89B28842C7BFFF2087F83600011CC5
:2065A00097F8360099F82220FF2818BF97F83A0006D140460078642510FB02F212FB05F01D
:2065C000788046B9388D3E7A40F020003885386C87F82E600BE03A8D4FF6DF701040388536
:2065E0003D6C87F82E6097F8342012FB06507862F879CEB287F82D0007F110007E8407F027
:20660000EDF910E0B87E97F82A10FA8BE92320F099FB05E0387CFF2802D0B86923F0B4F9FD
:20662000384621F03BFA207801211CF00BF9019880F0010022E12878012840F0128195F8A6
:20664000338095F813A06F6995F831006988022221F0B6FE05F11C0405F1020B0646002052
:20666000002E02907ED1687F400879D3A87FCDF80CA024F01DFDBA4605F11009071C63D065
:206680001C2017F009F9061C5CD000211C2218F072FFA87F694623F082F89DF80100022173
:2066A0003075304620F074FE6888317DB08095F83100FF23F07103FA01F070747868007804
:2066C000307495F83000B07495F8331011FB00F0303080B223F041F80746B76127B93046D0
:2066E00021F0DCF900262DE01A20387000237B701A467A80E0885946B880B81D23F044FAD2
:20670000E0783F4BF87303F1200000883882608BB88560897882A0783875207B787599F8ED
:206720000000B87599F80100F87599F902003876039A7A76C7F81CA007F13001B962A07D82
:2067400087F82400304600E000200028064600F08880284886F80880007801211CF072F82E
:20676000002E7ED0307AA8EB0000B0F1FF3F04BF01200290307CFF285ED06078400828BF03
:206780004FF00008317DF07C4018404503DCF074FF2088407074B069B17C227D806A08FBDB
:2067A0000100216923F026FF029F317D727C012398FBF1F04843A8EB000003FA00F11143E1
:2067C000C9B27174F7B1401CFF2202FA00F001437174B769B17C207D08FB0100F884707CC9
:2067E000FF280FD1307CB1691DF01CFEFF20307422E0C046F8510020F8DC0200684B0020C8
:206800009447002025F0B2F81E49204B204A09684FF47A774143B1FBF7F0308093F8221059
:2068200010781F4610FB01F1387A6423401C10FB01F010FB03F07080F17C327DA8EB01003F
:20684000801AB0F1FF3F04D0707CFF2801D0029F3FB1E175707C2076BBF80000214616F07E
:206860002BFC284623F090F8074800781BF0BCFF051C7FF4E0AE019880F4004005B0BDE892
:20688000F08FC046F8DC0200F8510020684B0020944700202DE9F04FADF1840D1B91002412
:2068A0001C9206468DF84240D6F828C08DF84340317F8DF84D40B28DADF844400F46ADF8F5
:2068C0005A20F2898DF854706046ADF84A20027802F00303022B8DF8402000F3C0812346A4
:2068E0001D93401C1F9353083CD202F00C0EBEF10C0F0CD053093CBF10F8013B8DF842302D
:20690000BEF1080F04BF01238DF84C3001D08DF84C40BEF10C0F0AD0737903F00303012B32
:206920000CD142F00C0273898DF8402004E045780378801C03EB0523ADF84430530911D233
