:20000000003A0120ED32020039FB021039FB021039FB021039FB021039FB021039FB0210C0
:1C00200039FB021039FB021039FB021039FB021039FB021039FB021011FB021002
:200040002DE9F04FAF4E04460120ADF15C0DA578317812902078432832DC432800F078860A
:20006000092816DC092801F0D482002801F05783801E01F03F83401E01F0B883401E01F0C8
:20008000B183C01E01F02383401E01F0CA8201F056BBA0F11001DFF8CC82DFF8CCC2B048F6
:2000A0001C2933D92A3900F09386491E01F08683491E01F07F83481F00F05C8601F03FBBA4
:2000C000E42815DCE42801F03F83453800F01C86DFF8FCC25B381C2837D9373800F0E88111
:2000E000401E00F0AB80093801F0328301F027BBE63800F08780401F59D00F3851D0401E6A
:2001000042D0401E01F01D8301F019BBDFE811F0780A3D0A660B170B610B260A170A170B16
:20012000F509D409170B9C096909170B5D0B5A0B9A0870089B07170B820769075F07540724
:200140004407170B32072107BC06DFE810F02F0B2B0B270BA405230B1F0B1B0B9A05150BC0
:200160007E0541050F05E304D104C004AF04A3049A049104100B8504070B4B041004ED038C
:20018000E2036F035E0336036768002F00F037873878032814BF02200320C349087000F05B
:2001A00035BF6068002800F02A8701F017BB6068007878B9002029F095F828F04FF91298B6
:2001C0000FA98DF83C00522026F018FB29F0D6FC01F010BB4FF6FF7029F084F830784FF430
:2001E000807122F0CBFE30784FF4807121F0F6FB00200DF13D018DF83D00522026F0FEFAB7
:2002000001F0F8BA6068002801F0F482A74C01886180807A60B92BF06BF940F28A21B0FB6D
:20022000F1F220780821521D2BF012FA01F0E2BA708F12992AF039F901F0DCBA606813940B
:20024000002800F02D810468A07E29F035F9071C08BF022000F00681D4F81C80002635467B
:2002600098F80000A84200F30081042101EB0011C8B280191DF08AFB0028149000F0F1809C
:2002800025F008FB002840F0E980149800210E46017047E04FEA860A08EB0A0794F81AB0A9
:2002A000B4F80C90149DBA885846494626F0BAFD159008AB08EB0A00BA881190584624F01F
:2002C00094FB159905EB06152D1D07F1040AFF291AD0C8B1AE489DF827700168F80838BF79
:2002E0008C2012D39DF82600159F1622287102FB0710C188E980018900F10E032981002011
:20030000EB6002E06C47002086202870119880786870BAF80000149968800878761CF6B225
:20032000401C087098F80000B042B3DC149EA07EB4F80CA094F80A9004F10E0700211597B3
:200340003278119035460C468A426BDC20462BF025FA5FEA00085ED00246002643E0C046BC
:200360000C4B00204452002020530020300129182818077902F8017B477902F8017B8779DF
:2003800002F8017BC7883F1202F8017B07790B1D3FBB4F79F7B9087A02F8010B887A02F833
:2003A000010B4889001202F8010B087B02F8010B8889001202F8010B087A83462AF0EDF84C
:2003C00078B10969584618F0F3FD024609E0C046384D0020987A02F8010B5889001202F80B
:2003E000010B761CF6B22878B042BFDC002100911298019002900391CDF810900594CDF8B4
:2004000018801198079115995246092310F000FC40462BF004F9284627F0A8F829F030FF8A
:2004200000201FE0080143191F79241DA4B297B92818401D077867B9C07803462AF0ADF83D
:20044000641DA4B238B118461DF0B8FB001984B201E0A41CA4B2491CC9B275E7149827F079
:2004600085F8102013991191A5E108EB85023878A189928808AB24F0B8FA70B19DF8260038
:2004800001462AF08AF840B108461DF097FB410824BF401CC0B23618F6B26D1CEDB2DFE6BE
:2004A0002046119061E2C046003F0020CC50002060681194002800F0588200681390807EE9
:2004C00028F0FAFF002800F075811398D0F81CB09BF80000002800F06D818000801C1DF0FC
:2004E00055FA0028149000F063812AF029FE25F0D1F9002840F059810024169415949BF8B1
:200500000000A04200F3E1801698012840F08E80C44DA878EA68162111FB00F081B2562031
:200520002AF09EFF05F10C0440B9A8782268162111FB00F081B256202AF098FFBA48007854
:20054000802122F01BFD2F78B8001DF01FFAB8465FEA000B6AD02E78B8F1000F0CD005F18F
:200560001800594642784A70428810F8144B4A807F1E01F8044BF5D1002E3DD037464FF0B3
:2005800000094FF0140AAEB305F1180412E0C046B45E0020002808BF4E4607D041680668E7
:2005A000216126F0E3FF207B401E2073304626F0DDFF2E7820690028ECD1761EF6B216FB6C
:2005C0000AF2A0184188618041786170C188E1808188A18001890C30218109C804F10C0124
:2005E00081E80900105D2070A318C3F8109083F80C902E707F1EC6D110F03AFAB8F1000FA1
:2006000011D018355C4647466078618827F016F8FF2804D02678810001EB00116E547F1E21
:2006200004F10404F0D1584626F0A0FF15981499087018B900208870129F0F70139890F88B
:200640001AA08689857A00F10E09084600780C46800080462BF0A2F8071C1ED0014600203F
:200660002278824222DC012A03D1A4780CB9DDF848800020009012990191029103900495F5
:200680003246CDF814800723069749460790504610F0BEFA38462AF0C2FF149826F066FFCE
:2006A00029F0EEFD27F012FC002084E004EB800293780B70D3784B7013798B709288401C93
:2006C000C0B21212CA70091DCAE71398B0F80C8090F81A900BEB04152F1DAD1D2E88414600
:2006E0004846324626F09EFB824608AB484624F07CF9BAF1FF0F48D0002846D03E78002EC0
:2007000050D19DF82600A97888423CD19DF82700C00836D3B248A98800684FF6FF728A4263
:2007200001D1EE88B6B1FD88162101FB0A06F58038893081387929F030FFF8B10E36002154
:20074000042230461EF04FFF38791DF037FAFD6802460FE0162101FB0A056889E880A8894A
:20076000042205F10E060021288130461EF03BFF123504223046294629F07CFF129816908B
:2007800010E08C2002E08D2000E087201499159A01EB820188703878C8707888561C888082
:2007A000F0B21590641CE4B2A9E6149826F0DEFE102000E00220119CA9E0254668680028E4
:2007C00000F0D380C9490978064600F11207C1B1AFB120F055F8044606F110002AF0C8FD8E
:2007E000A0420CD108A8009032469023002001460EF0A6F808A8394619F032FB02E0022063
:2008000000E012982C46064676E06068002800F0AC80626810785188928818F0A3FC00F052
:20082000E5BCC046A85E0020394D00206068002800F09B8090F8009045888188B0F806B0FE
:20084000B0F808A00A301390C74807791191002F5CD0C4490F68002F56D0804678680078E8
:2008600081454ED129F0DEFD00284AD0037C002B47D04669002E44D000200C22834243DD78
:2008800010FB02F1715A8D4238D10E201DF07EF8071C3BD0002607F10A0004235B1E00F818
:2008A000016BFBD1BE80FF2038704FF6FF737B803E81FE8087F80090119A7D801399BA806F
:2008C00007F10A00A7F806B00422A7F808A029F0D1FE08201DF05AF8D8F8141018B93846A2
:2008E00026F044FE12E007604160C8F8140098F81000401C88F81000304608E0401CC0B21A
:20090000BCE73F68002FA9D1022000E0129825461CE3606848B30020607060681FF0B0FF95
:20092000A168088000F066BFA768F7B10022A56862706446267860786F1C002E08BF2A701F
:200940000ED0402125F0FCF94FF47A710F2300F2E730B0FBF1F116FB03100F3828702678B7
:20096000002F00F0478730467FE0204616E02046614687688A8E91F8373091F8385091F8BB
:200980003A6091F839E091F83B8091F83C9091F83DA091F83640D1F830C00FB904462EE341
:2009A0000027477087683A818268D3728268947282681573826896738268C2F804C08268D9
:2009C00082F80DE0C96A82681160816881F80F80816881F81090806880F811A000F00ABF65
:2009E000B45E00206768002F00F00983002060706068077C1FB1C08961463431088060689B
:200A0000077B1FB18268614630310A60877CCF4927B1427C08460D300270606807791FB162
:200A20000268084602606068077D27B1C27C08460F3002706068877D27B1427D084610304A
:200A400002706068077E002F00F0D486C27D08461130027000F0CEBEA068002800F0CF8231
:200A6000002060702AF020FDA768387000F0C2BED548A1680078002900F0C182002161703C
:200A8000F2E76068002800F0BA826068007823F057FEABE36068002800F0B1820020607028
:200AA0006068007806F0C2FE00F0A4BE2546A868002800F0A4820020687024F045FA0028C2
:200AC00008BF129800F08B860078AF68CDE725466868002800F093820020687069680888A0
:200AE000897822F00BFF00F085BEC046744B00206068002800F08382B44D6168082205F1F2
:200B0000100029F0B7FD606801896980807A287000F085BD25466868002800F0708201882B
:200B2000ADF838104088ADF83A000EA9532025F065FE50200DF13A0125F060FEE1200DF164
:200B40003E0128F0F7F968689DF83E100079884200F05C828DF83E000DF13E01E12025F074
:200B60004DFE53E250520020A85E002025466868002800F04482007826F0AAFC686896F862
:200B80003C104078884213D086F83C000DF13F01E12028F0CFF968689DF83F104078884295
:200BA00006D08DF83F000DF13F01E12025F026FE6868129C407804FA00F0F06429F01AFB7D
:200BC0000027A6F89470204622F014FC3846CFE16768002F00F013827D887587387886F8E4
:200BE0004A007B6886F83C303989F187F3647889A6F84800387B86F85C00787B86F829003F
:200C0000B87B86F827003A697265786996F89650B065387EA84201D026F05AFC616806F17B
:200C20005D0019312AF038FD96F84A0006F12405082840F0EB81212074212A462AF016FC88
:200C40000020022126F002FBE0E1616800297AD00888498826F010FE78B961680888129A86
:200C6000498825F07FFE61680888498826F004FE002808BFC82000F0B285616809794170D5
:200C8000C4E1606800285ED062685088111D128827F092FFAAE26068002854D00778468892
:200CA0004FF6FF75ADF82060B5428DF8227017D0E81EB04214D0A81EB04211D002208DF845
:200CC0002400ADF8266009A81EF0C6FC012818BF12980BD1BDF82600ADF82000129800E094
:200CE00000208DF8230008A820F0DAF9ED1E8046B54205DCC64981F82870129881F8270086
:200D000028F0DCF8404671E26068E0B10A300778002F0CBF0022129A47780FB142F002027F
:200D200087780FB142F00402C7780FB142F00802007908B142F04002616808880023891CBA
:200D400026F01CF852E2254617E1C046644D002025466868002800F0108102206F688DF899
:200D600028003988ADF82010FA78B97808A822F039FA3BE225466868002800F0FE8002210C
:200D80008DF8281001884FF6FF70884205D0821E8A4202D0C01E88420BD12AF0BFFAADF880
:200DA00020006868C27A837A811C08A824F02EFD687068680188ADF82010C27A837A811CA2
:200DC00008A824F023FD11E210500020104C002025466C68002C00F0D08002238DF8283093
:200DE0002188001DADF820102279B4F80680267AD4F80CB0277CD4F814A061880468119248
:200E0000F2190F2000EB42005FFA80F9B9F14E0F00F39B802AF082FA884233D12170081275
:200E2000607029F0F7FBA41C014620462AF034FC04461198207084F801804FEA2823A37009
:200E4000E670241D66B15846A41E017804F8021F30F8021B761E4FEA21216170F5D1A41C43
:200E600027705FB1641E5046017804F8021F30F8021B7F1E4FEA21216170F5D1954820220A
:200E80004B465EE0184661E025466A68002A74D002218DF828101188ADF8201053889488F4
:200EA0009679D2F80880177BD2F8109042684FF0060EF1190EEB41015FFA81FCBCF14E0FB3
:200EC00043DC82469DF828000F2818BF022808D1BDF820004FF6FF71814204BF891EADF801
:200EE00020104FF6FF71994208BF8B1E02F8013B191202F8011B02F8014B201202F8010BCD
:200F000002F8016B66B14046921E017802F8021F30F8021B761E4FEA21215170F5D1921C01
:200F200017705FB1521E4846017802F8021F30F8021B7F1E4FEA21215170F5D15046724656
:200F4000634608A921F0F8FD00E010202C4600F046BC2546686880B102206F688DF82800AB
:200F60003988ADF820107988052208A829F05EF92C463BE12546686808B92C4635E102205F
:200F80006F688DF828003988ADF820103A79798808A828F013FE29E16068002800F025811A
:200FA000022260688DF828200188ADF82010418808A829F03BF919E16068002800F01581E4
:200FC000626810889178D27826F01EFB0EE16068002800F00A816068017A427A21F060FA69
:200FE00004E16068002800F0008141788DF8201081788DF82110007829F026F908B90220FB
:20100000EDE30C3008A9022229F034FB0020E6E3684B00206168002900F0E780A068002872
:2010200000F0E380087808A928F003FC6068A168007808709DF82000A16848709DF8210028
:20104000A1688870EBE26368002B00F0CE80187D29F04EF9002800F0C8809D691C331F784D
:20106000002F0CBF002002205F780FB140F010009F780FB140F00800DF780FB140F02000E7
:201080001F790FB140F040005F790FB140F0800081466068007D2AF04BF85FEA000800F096
:2010A000A4806168887A8DF829008889ADF82A00087802288DF828000ED001280CD00F2842
:2010C0000AD003280BD1891C08A8082229F0D2FA616804E00C4B00204888ADF820008F7B08
:2010E000002F73D078001CF051FC061C08BF10207CD000216068877B8F4261DCC18A838CF5
:20110000CDF84480826A16950C2F139190F822A01493BDF8208015924CDA404621F054FCD6
:201120000C2816D14FF6FE7021F04EFC0C2810D1DFF80CC312999CF82C3100200CF59A7CF8
:201140001CF8082B9342C4BF131C081C491C0C29F6DBBC4D4FF6FE7305EBC00568686B8003
:2011600018B126F003FA0020686077B14FEA470B58461CF00BFC6860002808BF10201AD076
:20118000686831465A4629F075FAA5F80280C9486F70159B0078169F287011990093139A72
:2011A000019708A8CDF80890149BCDF80CA00DF0B5FC00E002206070304626F0D7F919E392
:2011C00000694A00105A491CB05293E7886A00900195CDF8089091F822000390CA8A8B8CF3
:2011E00008A841460DF09AFC00E002202646F6E0606828B3007829F07BF8071C20D0387B74
:2012000023F078FA0028607040F0F48240464568002D00F0EF822E46002116B9B74202D0BB
:20122000E8E2B74209D1BD4219BF386808603968416038462AF0E3F9DCE231463668ECE7D6
:201240002646CBE026467068002800F0C780007829F04EF8002840F0BF8029F0CBFA04285C
:2012600000F3B88000272846777029F033F8041C01D0207B68B11C201CF088FB041C00F003
:20128000B98239461C221EF0AEF9DDF84890257100E0B9467068007820737068007A4546BF
:2012A0002076A81C206114201CF070FB0028606141D0394614221EF096F971686269496807
:2012C0009079897900F0F00001F00F01014391717068406861698088888070684068616938
:2012E0000078087070684068616940884880706840686169C079C871706840686169007BA3
:2013000008736069C07940001CF040FB616988606569A86818B13846E979814250DC287BFE
:2013200040001CF033FB286161690D691DB138460A7B82423ADC04F10C00804618F092FB63
:201340000546022D18BFB82D06D1207B23F0D2F9404618F087FB05463DB9B9F1010F20D10B
:20136000204625F07BFDC8B11BE0B9F1010F15D0606968B183681BB1184626F0F7F86069A2
:2013800003691BB1184626F0F1F8606926F0EEF84046394610221EF026F902E020462AF02D
:2013A0002EF9022D18D0B82D16D023E273685B6842001B690969D35A53526169401CB7E7B3
:2013C0007268526841009268AB688A5ACA526569401CA1E7D12002E0D02000E0022034463A
:2013E000B0E16068002800F07081A068002800F06C81002108221EF0F6F86168087849881D
:2014000027F076F9071C19D00020A168607038880880A168B8788870A568A878002800F083
:20142000E9811CF0B3FA6860A2685068002800F0E1819278F91C29F01DF9DBE1B120D5E6EF
:2014400088300020B43100206768002F00F03D81A768002F00F039810025664660686570AD
:201460003768017828463FB13A79914204BF401CC0B23F68002FF7D1A1680870A068007840
:2014800040001CF083FAA168376848606068A16800784968002F00F0AD813A79904204D192
:2014A000FA886E1C21F81520F5B23F68002FF4D1A0E1C046804B00206768002F00F00581AA
:2014C00000276068677064460678206890B101798E420BD1002F04BF0568256002D0016810
:2014E0003960056826F042F8284601E0074600680028ECD11DF082FC7CE102206768607004
:20150000002F00F07781664639787A883068002800F0708100270379994202D1C3889A423C
:2015200004D0074600680028F5D163E107B967460168396026F01AF81DF060FC6FE06068D9
:20154000002800F0C280807800280CBF0022129A6068129900881FF0D8FD47E6616800297A
:2015600000F0B380887828B1C87800280CBF1299032100E000216268107908B141F04001EE
:201580001088527914F0E8F930E66068002800F09C80284628F09EFE061C13D11C201CF081
:2015A000F5F9061C00F0268100211C221EF01BF83571304625F052FC20B9304625F0D6FF4C
:2015C000D12013E6F0888D4940F00800F08040F00400F080022029F0FBFE8949032029F045
:2015E000F7FE60680168089100798DF82400129F8DF825708DF8267008A820F061FEF5E52B
:201600006068002861D060680088002103F0E6F8F0E06768002F58D0606800787070002031
:20162000E4E5784867680578002F4ED0606800212A2261701DF0D7FF708F61680880606887
:20164000B6F84870857261688F81F08F6168C8826068082206F1240707F139010E3029F025
:2016600009F828F0D7FF014660680822801C29F001F86068082207F11C01183028F0FAFF34
:2016800096F83C10606880F82310129861685E4D81F8200029784A0824BF626882F8240008
:2016A0008A0824BF626882F82500CA0824BF626882F826000A0924BF626882F82700C909FA
:2016C00024BF616881F8280094E002203AE0606800283FF48AAD90F900504C48006810A925
:2016E000D0F830248DF84050E0209047A06800B1057094E76768002F3FF477AD0021129819
:201700006170626810706068417060680227877060680626C670616803250D716AE06068A2
:2017200000283FF462AD407818B1FF20032125F08DFD29F0FFFD129835490860FEE7122020
:2017400054E50020607055E021461EF0DDF950E0002030496070E7780F704BE0002060704E
:2017600029F013FC4FF4FA7028F0F8F942E00020607026F0D3FF3DE008464FF4807121F0E1
:2017800099F84CE721461FF098FF32E0214614F003FA2EE0214619F01BFF2AE021461DF0E8
:2017A000A3FE26E0214622F0DCFD22E0214622F077F91EE021461EF031FE1AE021461AF038
:2017C0004BFB16E028F0FEFF09E0214621F03EFA0FE02846214607F07FFC0AE01220804607
:2017E000FFF790BA214606F063FE02E0214606F0D1FC1290129817B0BDE8F08FB55A020097
:2018000085AE0200E8490020CE640020140100207C052043AC4500202DE9F04704464FF6EA
:20182000FE70ADF1600D217AADF85400606808AA15F042F9002800F03C849DF82200022828
:20184000B4BF012700279DF824000228A8BF0027BDF82A1000254FF6FE70801F88420ED047
:201860004FF6FE70401F884209D04FF6FE70001F884204D04FF6FE70C01E884200D12F46A2
:2018800029F046FD9DF82310884240F01284002F00F00F84208D9DF82660678EADF84C0034
:2018A000ADF82E7056B161689DF821209DF83C30012028F027FF002840F0FB839DF82570DF
:2018C000DFF8F8A2DFF8F8821695002F4CD19DF83D002F4658BBBDF82A00034624F0F0F9D0
:2018E0003E46022808BF0126002E9DF8226018BF012751460988994208BF47F0020727B126
:20190000002E14BF402120210F43184624F0D8F9012808BF47F00107002E3ED01298007802
:2019200029F0EBFA012818BF27F0010735E09DF8411041B1FF2906D09DF84000119A25F00A
:2019400049FE50B129E0B8F83A00BDF82A10884206D098F84A0004281FD1012016901CE004
:201960009DF82660222721E0BDF82A10FF2026F0BFFE002804BF3E1C082708D09DF825001B
:2019800047F001062C2740F001008DF8250006F00306012E08BF47F01107169B9DF82660CB
:2019A00007F00200184308BF47F0800796B998F82F0078B107F0220022280BD007F04200A0
:2019C000422840F0768312980078062818BF072840F06F83B8111690F80954D398F83200A3
:2019E0001299BDF82A2080080AD20878C01E01282AD9001F28D0C01E26D0801E24D003E0EF
:201A00000878401E0A281FD9F5B9B8F83A00904240F04F830D780520BDF82C408DF81100F1
:201A200004A827F0BBFF002800F043830269032313271370511C0F704C7022128A70CD70EA
:201A400044800AF065FF34E3169840081BD30878032802D148780D2815D09DF8280038B16B
:201A6000BDF82C000E990FF0A1F9012800F01D839DF8270038B1BDF82A000D990FF096F9D4
:201A8000012800F00F83B8F84800B4F84410884208D10095208DB4F8421094F846202B465D
:201AA00015F098F99DF82600002847D0208DB4F8421025F0E1FE9DF85190061C27D1B9F1BD
:201AC000000F13D198F89000012839D112980078062802D11698400832D2BDF82E104FF66B
:201AE000FE70401C884240F0A580E2E2042027F07EFE011C00F0DD826420087001274F7033
:201B0000208D488098F8000022F0C4FCD1E29DF82130606819184A7BF1788A4202D0F2702E
:201B200075606068C0180421401C28F096F97168814200F2BE82401C706001E09DF85190B7
:201B400098F832008008C0F0B482B9F1000F0BD0BDF82C0028F03AFD002800F0AA82616884
:201B6000487800F0DF0048709DF8320038B161688879401E8871C0B28DF8320008B907F06C
:201B80007F07380928D39DF82500F9084FF4805518D279091ED3811011F0070F01F00706AD
:201BA00004D0072E1CBF761EF6B20EB907F07F0700F0E30040EA8600C0B209E0A6470020D6
:201BC0006C47002020F01C00C11021F0030108438DF825006168087298F84A00042800F0F2
:201BE000EF81092800F0EC8117F0610F40F0E9809DF82200012811D112980078052800F0D6
:201C0000D98003280AD1BDF82A0028F0DFFC28B1218D08A815AA002300F0AEFE9DF8320017
:201C200068B99DF82200012804D112980078032800F03F8208A8214621F008FC39E228F071
:201C400093F9002840F035829DF83D00002870D1FA109DF82400BDF82A1016920028ADF887
:201C600054102ED13A0931D29DF82220012A28D0084600211EF01CF9002620B14079012856
:201C800016D0022814D0BDF85400B4F8441025F0F3FD28B1807827F0DDFD08B1082807DBB5
:201CA000BDF82C0028F092FC18B104208DF824000126BDF82A10002E08BF022274D09DF8FF
:201CC0002400169A520838BF002300D340230DF13D021EF027F930B16168087845F0200597
:201CE00000F03F0008709DF83D0040B1BDF82A1010A823F0C5FF45F04005ADF854009DF8F4
:201D00002200012806D0BDF82A00BDF82C1000221CF0CAFA169840082CBF40220022BDF8C6
:201D20002C10BDF82A0017F003FD08B145F0200533E09DF840009DF84110119A25F04AFC9A
:201D400000282ED09DF8410038B9BDF82A00ADF8540029F034FC00BB1DE011999DF82860F6
:201D600001EB400030F8020C002EADF854000CBF082010209DF827600EB10830C0B29DF89D
:201D80002560002106B1012140186168401CC2B2505C401E505445F0400527F0FDFA1690F7
:201DA00098E0BDF82A100B22BDF82C00002323F0C3FA7EE1218D08A815AA002300F0DCFD53
:201DC00077E10020169078085FD3B4F828909DF833C0B94E09211698F279944506D1BDF898
:201DE0002C303288934201D1B3782BB9491E06F1080600F10100EFD1092825D096F806A09F
:201E0000BAF1000F1DD0B8F84810484626F078FD10B1AAF10100B071A84815210279FF2AB2
:201E200002D00288914504D0491E00F12400F5D102E0B079401EB071B0792628A4BF169848
:201E4000B07127F0600720E027F0A6FA16909DF8320020B9208DBDF82C10884215D0218DEB
:201E6000169A08A813F0F8F958B1380932BFBDF82A004FF6FE70401C45F00405ADF85400AE
:201E800003E0002027F020071690B8094FEAA71610D394F8473094F846008DF81130E26BD9
:201EA00094F948308DF8100004A908A88DF8123004F0C2FD70080DD3218D169B08A815AA8B
:201EC00000F05AFD169028B112980078012808BF45F01005BDF854104FF6FE70884204BF87
:201EE0000021169176490978012924D1218D421C8A4220D0BDF82A20401F90421BDDBDF816
:201F00002C00884217D029F05AFBA0B10179012918BF02290FD101218DF810104088ADF86B
:201F20001C0004A821F0E6FD28B105A821F00AFE08B126F0C3FF37F07F0000F0BA80169837
:201F4000002800F0B68020891BF020FD071C00F0B0806168228928F08DFB002605969DF8B5
:201F600022008DF8100016990091B146019504ABCDF80890BDF854100393228D237A384658
:201F800018F06AFCC0B998F80100002800F09180BDF82A00ADF81A004D468DF81E508DF8F7
:201FA0001D50BDF82C70ADF81870169E8DF81C6006A828F097FC7CE0384625F0D7FA78E010
:201FC0005146BDF82A000988814209D023F078FE022805D09DF8250000F00300012868D1C7
:201FE0009DF8220000284BD012980178042903D19DF83C1002293ED00178072905D19DF895
:202000003C2098F80000042A06D0032951D108A8002116F083FE4CE04FF4806120F0AEFF1D
:20202000274F0920002188F84A00F81C017028F0F1FA01460D9828F0CBF9012839D1102063
:2020400027F0D5FB07460E991298401C8FB302223A704378027802EB03227A80807878706E
:202060004A2024F0CBFB9DF8260010B9154905200870394646E5002008A90DF067FD18E0C9
:2020800094F8460094F8477094F948608DF81000E26B8DF8117004A98DF8126008A804F0C6
:2020A000CBFC06E0BDF82A0001E0BDF82C0022F069F818B0BDE8F0871C31002014350020A5
:2020C000814B0020E8490020674A2DE9F04FADF14C0D10780F91090C80F01E840F999346F6
:2020E000890B80F0EF830F99890980F023830F99490980F0A5820F98DFF87C91C00980F0C5
:202100002A825A480F990078090A80F016820F98DFF85CA1DFF85C81400A80F0AF800F9877
:20212000000B80F08B800F999BF80300490B7BD254460F99606AC90B60D20F992078890857
:202140002ED20F98E188800A0DD20F98C00A08D3BBF84800012123F037FB0F9880F480605D
:20216000F9E30020F7E3BBF84850ABF848105020A11D24F043FBE6881027444660898542E4
:2021800005D0864204D0204628F0DDF900E066817F1E04F11C04F1D10F9880F40070DAE3F7
:2021A00040B301A829F013FA29F0A6F849460546032091F8208091F821608DF80D0003A839
:2021C00027F0ECFB071C15D038690B2100F8011B00F8018B06700126BE7728F01BFA7862BB
:2021E0007D807E7701A838620023BE76384623700AF08EFB0F9880F00200ACE380B1494657
:202200001131097801290BD18047A06A00B180479BF800004FF480414FF47A7229F015FABE
:202220000F9880F4804096E320B100208BF8030023F042FA0F9880F480508CE323F03CFAE1
:202240004946887901280BD1C97949B19BF800004FF47A7212FB01F24FF4006129F0F5F940
:202260000F9880F4006076E36C470020465100200C49002054330020684B002029F04EF8B2
:202280004FF6FE71814200F054819BF832008008C0F04F8100252C46284626F05BFD071C9F
:2022A00019D03879012816D0022814D0F879411CF9719BF88B1081420DDABC727C7238887B
:2022C00025F074FD388801A926F088FF01A821F039FC26F0F3FD6D1C152DDDDBA8F11C063E
:2022E00010274FF6FE75119436F81C0F85420CD0307B9BF88B40411C8442317305DA1198F6
:20230000B0747074308825F051FD7F1EECD15446032104F1380010F8047F0FB17F1E0770F6
:20232000491EF8D1BE4C152605F1010934F8240F81451FD001208DF804006788ADF8107056
:2023400001A821F0D7FBA8B1A8F11C05102735F81C0F2188814208D0BDF80610814204D0A9
:2023600002A8A91C28F034F810B1284628F0EBF87F1EECD1761ED9D1119D2C46284626F044
:20238000E9FC48B1017931F0040105D1807A27F061FA08B1641CE4B26D1C152DEEDB27F003
:2023A00063F9119E5FEA00080ED03546284626F0BDFA28B1807C27F04DFA08B1761CF6B207
:2023C0006D1CEDB2A845F1DCA019C7B2002F41D0B8001BF0DBFA1090002808BF119F3BD0C7
:2023E000BA00FF211DF0FFF8119E3546B44218DD284626F0AFFC031C10D0187930F0040007
:202400000CD1987A27F026FA011C07D0009718885A7A109B1BF0CEFF761CF6B26D1C152D0F
:20242000E4DBB8F1000F17D0119C204626F07EFA061C0AD0B07C27F00DFA011C05D00097CE
:20244000109B3088727C1BF0B5FF641CE4B2A045EBDC01E0119810909BF83000002808BFCE
:202460004FF0620805D028F031FCC0F154005FFA80F80320B8F1600F98FBF0FAA8BF4FF065
:202480001F0ADDF840904FF6FE7BABF1020BB8F1000F0EBF119D2025DDF84480BA45A6BF92
:2024A0003C1C45F040055446032014FB00F0801C8DF8050001A827F071FA4E46031C26D094
:2024C0001869082104F01F02017045EA02014170801CA4B12246C01E361F16F8041F00F834
:2024E000031F318809124170B17801F0070CF178521E01F0070141EA0C118170EDD1A3F8A4
:2025000002B00120987618460AF002FA00E00120E90906D2641EE4B20CB109EB84093F1B0B
:20252000FFB205F040052843B1D0109808B125F01DF80F9880F480700DE230B9BC48817859
:20254000012902D100214170817022F029FB0F9880F08000FFE1B74C0925002106264FF051
:202560000408A778002F3FD07F1EFBB26079A37027F004FF071C36D05BB9787B022808BF81
:202580007E7330D07E733868407BF02122F0FCFD29E0A3791BB9787B032812D023E023794A
:2025A0000BB3E078401EC3B2E370E3B99BF82500E0702079401EC3B22371787B032812D13A
:2025C00023B92046394623F01BFC0CE087F80D8028F08EFF00F00F00401C38819BF80000CC
:2025E000202120F067F901216D1E04F10804B8D19BF80000012915D0402120F0BFFC494696
:2026000091F82700012817D14846002180F8271090F8280019F066FD26F050FC0CE0C0462B
:20262000F0340020402123F08BFB28B99BF800004021642229F009F80F9880F040008AE125
:20264000102123F07DFB30B99BF8000010214FF47A7228F0FAFFC148DFF80483417808F5B4
:20266000C674491ECFB217BB012141700020052127F064FB071C1BD006253846052127F0E3
:202680005DFB0646388978B1401E80B2388158B97889C00802D3387B25F070FB7D733868F1
:2026A000407BF02122F070FD371CE6D100E0477028274FF6FE7600252079A0B1FF2812D00E
:2026C000401E2071C0B270B96079032805D16088218802221FF018FA6079012803D0268045
:2026E00066806571A5717F1E04F10804E4D108F1DC040827207A401E2072C0B230B99948E7
:20270000214625F08BFC90B9668025707F1E04F10A04EFD1944A0C2112F8080F08B1401E4F
:202720001070491EF8D10F9880F0100013E122F079F8E4E7202123F003FB28B9DBF810006A
:20274000002808BF012615D029F04CF9874909684FF47A774843B0FBF7F1DBF81000002882
:2027600008BF002004D088428CBF4FF0FF30081A46086AD00020042127F0E0FA071C64D0E4
:20278000FF254FF0FF3A06244FF001093846042127F0D4FA10903889864204D8801B83B2CD
:2027A0003B8113B14EE000203881BB7B012B02D17889C00840D3002B36D08DF804508DF8F2
:2027C00005508DF806A03968086AC97F02AA14F073F94FF00008012808BFC8465FEA08006C
:2027E0001DD0788A40F08000ADF83600B87B8DF838007889000908D3BDF8360040F480707B
:20280000ADF83600387B8DF83A007B6913B1187BADF8180001A9002202A804F00DF97C7314
:20282000387B1CF02BFC0DE087F80D900AE0C046FC3E00201C3100207C733868407BB721D0
:2028400022F0A2FC109F002FA0D10FF0FFFF9BF800300020012127F071FA18B1184620218D
:2028600020F028F80020042127F068FAB3B278B15A460789147827F061FAF0B9BB42AEBF9B
:202880000027FF1ABFB2204627B9202120F012F800200CE07A00202128F0DAFE29F0A2F87C
:2028A000324909684FF47A774843B0FBF7F0CBF810000F9880F020004DE00289BA42D8BF86
:2028C000171CD8E728F004FF294C0546201D0068074698B157F80C1C9BF8000021B94FF4C9
:2028E00000511FF07BF803E04FF400511FF0E2FF204639460022001D25F072F8284629F074
:202900006DF82FB13846FEF787FF384627F086F80F9880F400501EE01FF09EFF071C17D047
:20292000144920310A78FF2A0FD03C780B460020944207D0401CC0B2C200D1189A5CFF2AF5
:20294000F6D102E0496838468847384627F066F80F9880F4004013B0BDE8F08F745D0020AA
:202960008830002051540200AC31002070DD02005C52002040D102002DE9F04F0646934631
:202980000020ADF13C0DABF80000B06A099303460078884628F0B1FA48B17089044623F036
:2029A0008FF9022804BFABF80040B36A01D0002009901878C84DDFF82493401E0A2800F263
:2029C0000B84DFE810F02F03B3020C04A0028D0151010904BE00880066000B00BD4C607C7F
:2029E000012840F0F9835B1CB06913F8015B1F7828F022FE002800F0F7830379002B00F013
:202A0000F383032B80F2F0830E2D1CDCDFB9D04907752DB901EB85010A6AC261096A0AE081
:202A200001EB85010B6A9A01A2EB8302C2610A6A9101A1EB82018161012180F8201026F008
:202A40003DFA002500E001250320B689247F8DF8190006A826F0A2FF071C00F0C583386910
:202A60000C2100F8011B00F8015B04700124BC7727F0D0FD786204A9304626F0AFFB10B193
:202A80007C7704A838627E80BC76384609F040FFAAE35C1C207820F01F0700F01F0001280C
:202AA00040F09A83641C04A8214628F0F5FD284604A95D3027F08CFC002800F08D83002F8E
:202AC00040F08A830834A2786178207801EB022124F088FA88E3688F7189884240F07C83F8
:202AE0005C1C14F8016B04A8214628F0D5FD284604A95D3027F06CFC06F01F0726F01F066B
:202B0000002800F07183002E40F06E8378001AF03DFF011C00F0688367B184460834384608
:202B200063782278401E04F1020402EB03222CF8022BF5D100910EF0A8FE084624F016FDF4
:202B400052E35C789A1C34F07F0704F01F0E40F04B83377F03201EFB00F0801CC1B2B94201
:202B600040F04283002714F01F0F04BF4FF6FE7C614618D0D9789B7870464D4603EB012C2E
:202B80005378117812F802EF01EB03213EF0770340F02A832B888B4208BF0EF00707521C90
:202BA000401EEDD1BFB960464FF6FE72824212D004F06002602A0ED04D462A88A30907D2F8
:202BC000E30902D2904203DD0EE3904203DD0BE39142C0F20983B08928F0F1FC002836D174
:202BE000B0894FF6FF7125F08BFE041C14D124F029FE041C00F0F88200211C221CF0F3FC25
:202C0000B0894D460E35208028886081AA23A3740222227401216174207C022805DD022015
:202C2000072F2074BCBF7F1CFFB2677400202073A01C27F003F9002840F0D682307A002824
:202C400000F0D282B169A01C28F026FDCCE20021C171017A022905DD0221072F0172BCBF4F
:202C60007F1CFFB24772BFE2484671890088884240F0B282307F022840F0AE82AA4C201D04
:202C800000884FF6FE71814240F0AE82162026F0AEFD071C00F0A88201213970B079002885
:202CA0000CBF081C02207870B06A4078B872000902D2B08923F092FEB169B81C28F0ECFC78
:202CC0000020F8742878394621F0E4FBB089A0808AE2C046684B00206C470020A6470020DB
:202CE000708922F0EDFF002840F076825F78B94987B10C2F03F1020380F276828C463D4689
:202D00005A7818786D1E03F1020300EB02202CF8020BF5D1484675890488DFF8D892AC4282
:202D200000F0B280B37C002B00F05E823B1C0A974FF0000811D0A74A38464146921E32F857
:202D4000023F9C4206D0401E01F10101F7D104E0C4D402000A914FF00108284600211DF067
:202D6000A7F800280B907ED0407901287BD10B98807910F0180F76D00B984188384627F06B
:202D80000BFB10B9B8F1010F6DD109F533794FF6FE704FF000080C97B6F80CB0CDF8209047
:202DA0004FF0010A0D90C14611E0B8F1010F08BF4FF0010908D028F09BFBC0B290FBF8F1FF
:202DC00001FB08F1A0EB01094FF00008C246089D10271C3D35F81C4F4FF6FE70A04213D0D5
:202DE000A34511D00C98214627F0D6FA60B96B7C53B1072B08DA08F10100BAF1000F5FFAF3
:202E000080F801D1C14521DD7F1EE3D1B34D152735F8244F0D98A0421AD0A34518D00C9852
:202E2000214627F0B9FA98B96B7A8BB1072B0FDA287901280CD002280AD008F10100BAF185
:202E4000000F5FFA80F803D1C14501DC0D9407E07F1EDDD1B8F1000F02D0B9F1000FA4D051
:202E60000D980B994880B37C5A4C581EB074F77C00970A9D0195029401220392B189B269E8
:202E8000708919F0DFF8AFE1B4890C2F80F2AC818846ADF81040BD488DF812700168CDF8B5
:202EA000148009B104A8884720461FF08DFD0C2803D14FF6FE701FF087FD0C2880F2948141
:202EC00009EBC00505F59675686808B124F04EFB2FB178001AF05AFD686010B984E100207F
:202EE00068606C80C2486F70007828706878002800F07A816868002800F076817A00414652
:202F000027F0B8FB70E1307F022840F06581099828B94D4671892888884240F06581099867
:202F200031460CF013FE5EE10C490020B5F84810404624F0A1FCA846074608202FB17D78E5
:202F40001DB90221397007257D70B16A0A79CC788B794D7891F802A0CF7904EB02244A79C0
:202F600002EB03296A0928BF1020AA0924BF0830C0B235F0700340F03781327F904240F03B
:202F8000338105F07005680938BF002006D306A8083128F081FB25F010050820A90907D359
:202FA000B16A091804A8083128F076FB25F020052046514625F0D6FA08280DDA8D4B41001B
:202FC00001EBC001C9188879B84240F30D818F71002002E0A63000200420B8F83A10A142AE
:202FE00019D048B9B189484601222B4611F0D0FE28B1F9E088300020042840F0F58006A8B3
:2030000004AE009049463A46534601962046029515F090FAE8E0B189484601222B4611F07E
:20302000B7FEE1E0B5F84810404624F025FC4FF00609041C03D06078002800F0CD80B06AC2
:20304000817847780891C378017900F1050A03EB01200990404621F043FA9AF8001009182B
:203060005FFA81FAB80928BF4FF00E0937F0780040F0B28007F01800182800F0AD80307F62
:20308000814540F0A9804FF00009CDF800900899B089524643461CF07FFF032800F09C80B8
:2030A000002807F078074DD117F0180F18D195F8310028B1B089414601223B4611F068FEDB
:2030C00009984FF6FE714A463B4611F061FE002838D14FF6FF70ABF8000039E0F034002045
:2030E00047F00107780928BF47F00207B08939461CF0DEFE90B1817911F0180F0ED041794E
:2031000001290BD154B14088B5F8481024F0B4FB20B1437813B1607898425DDCB089414619
:2031200001223B4611F034FE60B94FF6FF70347AABF80000002C0CBF4946B169B089524629
:2031400027F066F8BBF800104FF6FF70884243D1012000900899B089524643461CF01CFFD2
:203160000998394623F096FA698F81422ED1099828F025FA60B10079012818BF022807D16E
:20318000099804A926F02AF808E0C0462C4A002027F040FA014604A828F07EFA307A01287E
:2031A00003D1B16906A828F077FA06A8009004AF0197B06A407840F0300002900999089B58
:2031C000B0894A4615F0B6F948460CE0B06A80F805A026F0E1F806E04FF00009F4E7099927
:2031E000304615F09BFD099009980FB0BDE8F08F804B0020643100202DE9F04F974C04F1D2
:2032000028000368ADF1540D13B1002083F83100DFF850820025A94613F1340711D05B6CE8
:203220008F4EB7612BB940460068D0F84C058047B76978687060F86818B1103630608A4F3F
:203240003E6028F045FA1290082017F05DF81DF0DFFA464610B1BBA028F0BCFB1FF06AFF7E
:203260000CA827F045FF04200CA98DF83000284627F046FFE06327F089FC04A827F098FEAF
:20328000042004A98DF81000284627F099FE606327F086FC08A827F09BFE042008A98DF896
:2032A0002000284627F09CFEA063616B19B9ADA028F090FBA06B10B9AFA028F08BFBE06B32
:2032C00010B9B2A028F086FB3068D0F8E00380473068D0F818028047D8F800002F4607267D
:2032E000A03001687B5823B118468047D8F80000A030761E07F10407F3D1D0F8B802804785
:20330000EB2028F011F8A06A78B16846FF2108221CF069F9A06A6946082226F06FFB04F190
:203320002806012818BFD6F8009068469C4A13900CCA5FEA090180E80C0021D108201AF009
:2033400025FB5FEA000956D0A9F10206032728F0CFF806F8020F7F1E4FEA20207070F6D15E
:203360001020F82706F8020F4946082204F1440089F8077027F07EF9484624F0F7F804E002
:2033800004F14400082227F075F9012008216A4628F066F804F14406002818BF092826D16F
:2033A00025F07BFF80081DD26846FF2108221CF01AF902AFFF21082238461CF014F901203D
:2033C000294608223B4627F017FD80B938466946082226F013FB28B930463946082227F0DD
:2033E00049F904E001200821324628F03FF8E220314623F003FA25F050FF400834BF2E1C24
:203400000126D94F5520012107F13A0228F028F818B916B1284625F097F9D44FE22007F192
:20342000480125F087FD30461FF0F6FC6846294610221CF0D8F8B94699F80E0030F0010049
:2034400017D1CB4F69461022384626F0D7FA68B939466846102227F00DF90AE0083800203D
:2034600004480020140100201C530020684624F0FDFC622010216A4627F0F2FF28B926B13E
:20348000622010216A4627F0F1FF6846294610221CF0A9F8304615F0A5FF304623F054F9D1
:2034A000304616F0ADF9684624F0E0FC40F2011010216A4627F0D4FF30B92EB140F2011033
:2034C00010216A4627F0D2FF6846294610221CF08AF81EB12846012123F0B8FE24201AF0D0
:2034E00055FA0028206400F09E81E06A216B221D1DF0DCFED8F80010D1F84C138847216C62
:20350000201D0860E06A216B04F108021DF0CEFE11F03AFF216C04F108004860E06A216B16
:2035200004F10C021DF0C2FEC94ECA4F3070216BD4F82CC0266C2B4607F1100006F1080E8F
:2035400034E0C04652616E646F6D5F736565644175746F6D617469632829206661696C65D7
:203560006400C04641455343434D206F70656E206661696C656400C0414553454342206FEC
:2035800070656E206661696C656400C054524E47206F70656E206661696C656400C046C04B
:2035A000FCD6020040F823505B1CDBB2002BF9D07D61CEF80020604604F110021DF076FEA2
:2035C000A54FB870AB48B9F82C603D7009F14001BE8028F061F809F1500604F11003216C23
:2035E00099F82300CB6004F114027870216BE06AFE601DF05BFE9949994E0870994ABE601D
:20360000994B7A62206CBB6204F1140604F11802216B0661E06A11921DF048FE934EF071AE
:203620004FF0020A86F828A04FF6FE70308426F0F1FF8F488F4906F1180B0560584628F0A8
:203640002BF8D448D4498160D44BC360D44A0261D4483822FF211BF0C6FFD348D44B8360E7
:20366000D44AC260D14941600570D34B0361D34A4261D449C161D24B8361D34A3A61D44983
:20368000B961D24B7B61D34AFA6106F1340016F0E9F909270BF12C007F1E40F8045BFBD134
:2036A000F07948F2010121F0E3FBF0794FF4004121F0DEFBF07948F2210121F0D9FBF0798C
:2036C00048F2220121F0D4FBF079202121F0D0FBF079212121F0CCFBF079222121F0C8FB24
:2036E000206C11994161E06A216B04F11C021DF0DDFDB94E48F21501307021F0B9FB3078BE
:20370000382121F0B5FBB64FB448F7604FF6FE7286F828A0216C7061B24B328404F11C0713
:203720008F61E06A216B336104F1200632461DF0BDFD07460C484770024692F83B0008B1B7
:2037400089F80CA0A848C580C5608570456105744FF00109057048F2020180F80490384649
:2037600021F086FB06E0C046384D0020684B0020C4D40200384648F2010121F079FB3846FC
:2037800048F2040121F074FB9948984F3049994B3861994A4B600846236C8260216BE06A89
:2037A000DE6104F124021DF081FD944B207094499870284627F00CFE9249484627F008FEBB
:2037C0009149042027F004FE9049062027F000FE8F49072027F0FCFD8E49082027F0F8FDA4
:2037E00098784FF6FE71491C21F042FB8B4E8C4B8C4A894873609B49B2608C4E8A4B886299
:203800000846BE608B4A43628B4F894B8B4E10481A608B4AC76003461F461E61206C7A61D9
:2038200004F1240606628848864C0570D8F800102570864F6570D1F800616561F089D1F899
:2038400050123D70103080B288472061D0B913E0CC500020AC450020784D0020F851002080
:20386000E555010025BB0100F1AF0200E84900201C4C0020AC4D0020D8F80000D0F84C05AF
:203880008047206900908DF804509DF8051005F0030221F003010A438DF805209DF8051015
:2038A00065F383018DF805109DF8051065F307118DF80510D8F80010D1F80011C9896F461D
:2038C0001031ADF8061021693B680B607A684A60E061256218F0F6FCD8F80400C168087889
:2038E00048B9D8F80000D0F85824284601469047D8F80400C16856480570564F3D70087845
:2039000030B9D8F80000D0F85824284601469047129828F063F812F0FFFB25F097FBD8F88E
:203920000000D0F8D40090F8430025F043FED8F80000D0F8582429460120904727F020FA1E
:203940004548D8F804700570F868007830B9D8F80000D0F8582428460146904718F08EF832
:203960003E483F4A07212B4625F058FA19F082FF22F026FF102010A98DF840005A2022F03D
:203980003DFF4FF40040012110F0F4FE15B0BDE8F08FC0464451002075EB0100E56F0100FA
:2039A000A97F0100E430002030500020CDAE00007D9C0200E5130200AF790200519302006A
:2039C00035740200DD98020081A10100658B0100099302003DCB0000F04D0020456D0200FA
:2039E00041860200E58E0200A85E0020305100206DAD02005B5D0000D94702004452002016
:203A0000D5AE020099AE0200ADAE0200C1AE020095AA0200ADAA0200FD43020010500020AE
:203A2000015C0200953B0200E53B02003B5B02007847002019520200B99401009D2702003B
:203A4000C5530200A4620020036600200566002008660020FC65002004660020904F00207A
:203A600061B70200384D00202DE9F04F9F48A14A01789F481170A04C4170A0490C30E0607D
:203A8000ADF12C0D086021F0F3FFA249A0489C4D9C4EDFF87892A246091D401D0A919A4974
:203AA00009908B46C2E1706AF769994B840004EBC004E4191F7810341B2F1FD11846B8A1DB
:203AC000042225F0ADFD002825D09148BCA1042225F0A6FDE8B18E48BEA1042225F0A0FD2A
:203AE000A8B18B48BCA1042225F09AFD68B18848BAA1062225F094FD00284FD1402F0BDDBA
:203B00005B2FBCBF2037FFB206E0FD2704E0FC2702E0FB2700E0FA2794F80580394620468C
:203B200016F002FA012839D0F169706A0D3F1BD00E3F10D0643F04D07D3F2CD0781E28D0FC
:203B40002CE0CF68B06A002F07BF8868401EC968F161706219E0B8F1000F01D06079A0B1C4
:203B6000316A8868401E0EE0820002EBC002521802F110010F681FB1896831B1884704E002
:203B80008968B06200207062F16100200FF07CFC04E0002000E0012023F02CF85C48002146
:203BA00005221BF020FD70690999052227F0CDFCE88920F04000E881010A09D300201AF0F9
:203BC000C9FDEA894FF67F7122F080001140E981410A08D320F0E6F9EA894FF6FF6122F4E7
:203BE00080701140E981800A04D36A6B12B1E878082190470020E881DAF80810480AC0F04C
:203C0000BA80CD48CD4F04783878012800F0848027F002FC011C00F0A88099F824808A7B6C
:203C2000C54B89F82420B9F83A708A7B08691A708A898B7BA9F83A200122009200220192D6
:203C40000122029200220392049342780592406800232122069001200790F2200CF0D8FFCD
:203C60001E20CD4989F82480CA4AA9F83A70B24B087090681C7000282AD026490C68143426
:203C8000276857B102693969914205D007F114042768002FF7D100E097B9BE49CF687FB1A4
:203CA000786827F0BCFCBB480021C0680A9F4160386827F0B4FCB7490020C8600F46B8689B
:203CC00027F0ADFCB3490020886020680F46B860DBF8181027F0A0FB002846D0084632219F
:203CE00027F081FCCB4827F017FD3EE008380020201B00200B6600208C480020B04A00207A
:203D0000B044002074270020AC4500206C470020AC270020B05100209BF85A0086490870A8
:203D2000CB4999F82480BBF8583089F82400B9F83A70A9F83A3001220092002301930292F4
:203D4000039304909BF85B000590DBF85C0021220423069001200790F2200CF059FF89F8E8
:203D60002480A9F83A7074480470DAF8081021F48071CAF80810DBF80C008A0A4AD3071CA7
:203D800040D0C468F968A1422BD839468F6860B3D0F80880814215D00246434604E0C04664
:203DA0001B5B41001A469368FBB1F2B19942F9D198689060184627F032FCDBF80C0014E097
:203DC0001B5B4200C348006827F029FC4046CBF80C000AE01B5B43001B5B44001B000000AF
:203DE0000000F968091BF960BF68002FC9D14CB1DBF81C1030B10846214627F0F4FBC14854
:203E000027F08AFCDAF8081021F40070CAF8080021F40071C80A07D31FF09AFDDAF808001A
:203E200020F48060CAF8080021F062FADAF804004FF0FF3127F0CAFD0028F7D09AF80000B3
:203E40001EF00AFD041C00F0808127782878C72F0FDCC72F00F0A280923F00F0DD80BF1E19
:203E600000F0D380313F00F0B0807F1E00F0CA80D5E0E03F64D0BF1E06D07F1E00F0BE8012
:203E8000BF1E00F0B680CAE094F84000443080B227F084FC071C00F0C28004F10408381DC1
:203EA0000C22414626F0EAFD20693861207D387594F915007875A07DB875E07D0A2208F189
:203EC0001401F87507F1180026F0D8FD608C788494F8240087F8250094F8250087F82600D3
:203EE00094F8260087F8270094F8270087F8280094F8280087F82900E06AF86294F8300054
:203F000087F83000606B786394F8380087F83800E06BF86394F8402004F1410107F14100CF
:203F200087F8402026F0AAFD384600F06DFF384627F075FB73E0C046784D00203051002027
:203F40002779221D002007B1012027F06BFA6779A7B1E7881FB9002027F064FA17E050882A
:203F6000401CA881874827F0D9FB286B4FF47A7127F039FB834827F0CFFB08E00020A88119
:203F8000804827F0CBFB286B002127F02CFB20F009F844E0A8510020B05000207A4AA17B3C
:203FA00085F87A10278AA5F87C70271D3B6879681360FF28516002DA401CC0B2287000204B
:203FC0001AF0C8FB1FF0E2F829E02079E71C02280BD1E3784BB9607940F002008DF8200071
:203FE0009AF8000008A927F0D3FA38461AF0B2FB15E0A188A01D15F09BFD10E0201D23F0AD
:2040000085FB0CE01FF022FD09E0E01C0BF030F905E0C04620460020201D17F030FB207885
:204020004FF00108712823DC71284FD0652811DC652864D0801F75D042387CD018386ED075
:20404000401E69D0401E012875D9801E5CD06FE0F845002066384FD0801E49D0801E032841
:2040600069D9001F40D0401E3AD0401E34D05FE091280FDC91285ED0723802285BD9C01E55
:2040800020D0401E1AD0401E55D0C01E53D0801E51D04DE092380DD0C01E01284BD930383E
:2040A000062848D91B3846D0801E012843D9093841D03DE0E76A002F3DD035E0A768002F16
:2040C00039D031E06769002F35D02DE0E768002F31D029E0B8450020E768002F2BD023E094
:2040E000E768002F27D01FE0E768002F23D01BE0E768002F1FD017E0E768E7B114E0E76852
:20410000CFB111E0444600202746786908B123F02DFAFF697FB107E0676967B104E0676928
:204120004FB101E0A76837B1384623F01FFA02E04FF0000802E0204625F070FCB8F1010F52
:2041400003D014B1204625F069FCE88900283FF453AD81090AD31EF043F925F0ABFEEA8939
:204160004FF6DF7122F020001140E981C109FFF423AD3078012803D1F07801283FF493AC88
:20418000FEE7C04688450020204500202DE9F04FDFF8ECA2B94C4FF0E0470125ADF12C0DA0
:2041A000DAF804002169C06808931F400570B54807924FF0000505704FF0020000EA02008C
:2041C00008BF002840F0C082DFF8BCB2DFF8BC824FF480301E462F461040374008BF0028A2
:2041E00033D1134628464FF4003210EA060702EA030208BF002A0ED137464FF480023840FD
:2042000002EA030208BF002A00F08F82284608711DF050F989E20871EB2023F0ABFA5B4636
:204220002846414618700878862801D123F0F0FA27F04EFAE1690A682B4613710968E16141
:2042400027F0CCFB26F0B6F86FE22846DAF80070087107F1B8000268DFF8F09217784FB938
:204260004B461F7837B1D0F894048047DAF800002169B830B64E81224B46FF251A7027783E
:204280003570806CA7700023A3815E461D46097AC0893570891E8DB2A842C0F23A82E1692F
:2042A0000831096804F1180001600426A681DAF80020607EA17EE37E04F11906B83200EB5C
:2042C00001206081717823711368ED1EC1F30119ADB219780696002908BFB9F1020F00F0E4
:2042E0001882B9F1020F00F3148261B110F0070F00F00F8241460978862904D100F00701B3
:20430000022940F00682011301F00201022967DA667800F0070002285BD1002E59D1D0698A
:2043200090F88300022851D0E1690C31097805A801700527A78127F0CBF94546064628785B
:20434000862840D1DAF80000403001680F6837B9D0F80C058047DAF80000006C07689DF9A9
:20436000140027F0FBF97877DAF80000016C096800228A77006C9DF914100068C177304620
:2043800027F02CFB2679678927F0A2F941460A7807F01007862A15D1C24D05F11E031A8829
:2043A000521C1A8087220A7027F018FBE879B04206D11FB900201CF00BFB07E01B20FAE771
:2043C000E920F8E70646304627F008FB25F0F2FFA1E141460878862803D123F019FAA778C3
:2043E00066788FB186B9012F00F093816089022F03D110F0070F40F08C81032F05D100F0F3
:204400000701032901D084E16089010980F08181011301F00201022902DA810A80F07981C9
:2044200006994978C1F38108B8F1010F4FEAA111099100F06E81012900F06B81C14AB9F107
:20444000020F0BD0535C12F80870002907EB0301CFB222D0C10920D3BF1E0DE0891808EB92
:20446000020709793A795218C109D7B210D2099958EA010611D0BF1CFFB20EE0A4620020F3
:2044800014010020905200200566002008660020099958EA010608BF0227C0F30020391ACB
:2044A00060718D42C0F23581DAF80010ED1B2D18A8B2D1F850122081743080B2884766781C
:2044C0000028606100F02581002174221BF08BF80020E07062891EB902F0200059460870BD
:2044E0005846617906784FF0000C002E35D0002933D102F00700032808D001282DD1DAF826
:204500000000D0F8D40090F8826036B3DAF80400406906781EB126F061FBFE281AD0DAF88C
:204520000000D0F84C02804750B9DAF80000D0F84402804720B96289617994F803C00CE015
:204540000420E0706289617906E0C04603660020155300200420E07084466569268905F174
:20456000740305F17400AB65069B686093F801B02E8120890029CBF301191E46A5F85C00EF
:204580003078AA8100F0780049EA00004CEA000028744FF0FF03AB730CBF2079002085F87B
:2045A0003A8085F84900099885F83000A089002FA0EB010086B2A68100F0A880E169E78021
:2045C00068463A468919083118F042F9BF19B8B2A0812846027C4FEAAB0111F0030F01F057
:2045E00003076D4602F040083ED0B9F1020F4FF0000301D1D1090BD29DF801209DF80010D5
:2046000001EB0221A0F844100DF10205A0F842106D4EB0F84410728F8A4203D04FF6FF72A3
:204620008A421FD1032F10D06A78297801EB022189B24186328FAD1C01208A4211D04FF67B
:20464000FF728A4218BF181C0BE060692946323027F022F860692F363146323025F0B8FE8A
:2046600008350346002B48D006984078861120D06069B9F1020F03D0017CC90903D309E02F
:2046800058EA070706D16A782978AD1C01EB0221A0F84210032E07D069782A7802EB012213
:2046A000028506E0C84F002060692946283026F0F3FF608900F00700032809D0012825D1BB
:2046C000DAF80010D431086890F88200F0B102E050460168D431D1F8741160698847A8B9AB
:2046E0000020069FE070B97866697878C1F3011100F078000843307408E0DAF80000D0F816
:20470000FC14324888471CF0D5FE04E00EF012FE01E026F0FFF826F0DBFFE1690A680023B2
:2047200013710968E16127F059F9079A089F202100201140384008BF00291BD025F002FE77
:2047400018E0C04688DC0200214A92F90000002803DD92F90000401E10701E4A92F900009B
:20476000002803DD92F90000401E1070284608711CF0A0FE174A92F9000098B1079B089FB9
:2047800002214FF0E0401940384008BF002912D092F9000000280EDCDAF80000D0F84C056C
:2047A000804708E0DAF800700B480021D7F85824017008469047DAF80400C06800210BB0D9
:2047C0000170BDE8F08FC04604480020F050002092520020915200208E5200202DE9F04F16
:2047E000ADF1340D00220024099093480A91011D88460A70402242712146C1738F238371C9
:20480000502646720022C2710272A02282728189827341F43051818121460268017487491E
:20482000C47211404CF210120A43CB490260DFF82CB381F8323022469BF800000B9260B98C
:2048400020461EF0E9FAC44890F83200000911D3204608A98DF8200009E0084690F83200A1
:20486000000907D301200DF121018DF82100522021F0C4FF25F082FFDFF820935FEA000AB5
:2048800040F0C88010F0D6FF5FEA000A40F0B6802046B14A0C90742124322120154626F078
:2048A000DFFD002858D12120214674222B4626F0A3FA002850D1A848408F4FF6FE718142EA
:2048C0004AD00120A44F0C9097F84A00082806D0042804D013F078FA20460C903CE00C9CF4
:2048E00042200DF122018DF8224021F087FF05F12F01432021F082FF05F12C01472021F001
:204900007DFF05F11C014A2021F078FF05F11A014B2021F073FF05F12401304621F06EFF08
:2049200005F11601532021F069FF05F12D01542021F064FF05F11801E12021F05FFF384675
:2049400090F83200000938BF0B9C52200DF122018DF8224021F052FF0B9C14E0DDF82CA0DE
:204960004FE00B9AA60006EBC40621460C23F0190090012022F050F818B9B85D80F0FF0003
:20498000B855641CA4B2B9F80000D9F80470A042E7DC12F033FD9E48001D006800B1804784
:2049A0001FF0FEFF0C98F8B126F0B8FCABF8200028B998F8000000F0F80088F8000095485B
:2049C0000E300078022818BF012004D1624A002182F84A1003208BF80B0039350BF1180056
:2049E000294626F059FE01E04FF0090A874C0020608020F0C7FEBAF1000FAFD0834C4FF0B9
:204A0000010A554890F83C10012707FA01F0CBF8100091E010F00EFF13F0D6F94E4A212004
:204A20007421243226F022FD02A8FF210C221AF0DAFD4D460CE0C046C86400200000FFFFAE
:204A4000214601200C2202AB1FF0ECFB641CA4B22888A042F4DC02A8FF2110221AF0C3FDFF
:204A60000B9C03202146102202AB1FF0DBFB641C152CF6DB6648006800B180470020ADF85C
:204A800008004FF4A17018F081FF071C12D0FF214FF4A1721AF0A7FD384602A9022225F0A7
:204AA000E9FD42204FF4A1713A4626F0DFFC384622F05CFD00200B99ADF81000062202A8B4
:204AC0001AF091FD142018F061FF061C1BD0C54808300068A0B103270224A0B202A9062222
:204AE000801925F0C7FDA41D7F1EF6D104A93046022225F0BFFD4C201421324626F0B6FC26
:204B0000304622F033FD182018F040FF071C10D00B9C182221461AF066FD062021461822DF
:204B20003B461FF07FFB641C032CF6DB384622F01DFD21F027FE354CAA4DBAF1010FA146F1
:204B400076D1344C044EA77B24364FB3012F0ED0022F14D104E0C0466C470020E84900208C
:204B600098F8000000F0F80040F0020005E098F8000000F0F80040F0010088F800009A489B
:204B800024F079FE002808BF002010D003208BF80B0004278BF80A700BE0C046545200200B
:204BA00098F8001001F0F80188F8001002208BF80B0026F09DFCE76B099900F07F000818F9
:204BC000CBF810706430022180B20B90FF2022F03DFB01201BF08CFE88494FF6FE70431C0C
:204BE00048870F46F8870020A1F8483022F070FCA07B012813D10A9801280DD002A80021C8
:204C000008221AF0F0FC02A807E0C0465851002044500020684B0020002021F0B1F9212071
:204C20007421324626F022FC0020022122F00EFB7348AF6872498089544640F0010088816B
:204C400087B9122018F0A2FE0646002EAE606DD04FF6FE70B61F0327411C26F8060F7F1E96
:204C60007180FAD1002C61D106AB4C200021022226F0C2F8002852D1BDF8180000284ED08A
:204C800004284CDA182018F081FE03274FF0020800240646AB681FFA88F14C2006221B19B3
:204CA00026F0AAF888BBA868015B4FF6FE728A422BD056B3009620184188002218230620EE
:204CC00021F0AAFE3069AA6800F2E93333611019418805F10C02880000EBC100A968135030
:204CE000081973694188880000EBC1008018A9684360081941881822334606201FF092FA10
:204D00003046002118221AF06EFC7F1E04F1060408F10608BED116B1304622F027FC394B26
:204D2000712000210822503326F066F825F072FC26F06EF9012068702C4EC9F80C600027D9
:204D4000AF702B48C9F8100023F0A0FF2A482949BAF1000F086014D0284890F8650080B9BE
:204D60003846622102AA1DF08BFE02A8394623F01AFB384617F0B6F902A8394610221AF006
:204D800032FCDBF8140050B10BF114040768206822F0ECFB38460028CBF81400F6D1099814
:204DA0004FF6FF71814217D0012000278BF800000BF1090201468BF80970852026F050FB79
:204DC0000BF1090428B9852039460122234626F013F80B9824F0B2FE24F0F0FA50460DB060
:204DE000BDE8F08FFC3E0020AC4D002021240100D1B00200B84F0020C9BB01006C470020D4
:204E0000C8640020684B00202DE9F04F0746C54C97F824000026ADF1840D0128ADF83C604E
:204E200006D197F828102078012902D148B9B6E2207830B9387D022800F0B182032800F008
:204E4000AE826078CD4D012810D1CA482179007888420BD097F83800E32840F0A082C6482B
:204E6000804626F055F9012800F08F824FF4FA60F860E86926F00DFA40B9E869F96826F0BA
:204E8000B2FB05F1980026F047FC02E0F9680818F86097F8250002288DF8300003D008B99C
:204EA000F86A0D9005E00DA807F11801082225F0E5FD0CA80DF13E010FAA1BF051FD58B913
:204EC00013A807F13401042225F0D8FDBDF83C000DF13E011FF0F6F92078012800F0BC80C1
:204EE000002840F05C82397D31F0010018BF042940F0558268463146242226F051FC38464D
:204F000069460CF039FB97F81780BDF8000010F0070F06D000F0070002280CBF14270B2792
:204F200000E00F279DF81900C01987B2384626F035FC5FEA000900F03282044669460222C3
:204F400025F09CFDBDF80000A41C10F0070F18D000F00700022823D102200DF1080A8DF864
:204F60002400082251460AA825F088FD20460822514625F083FD9DF81000083404F8010B5B
:204F80000EE00DF1040A8DF824600AA80422514625F074FD20460422514625F06FFD241D34
:204FA00005A92046042225F069FD9DF81800241D04F8010B9DF8190004F8010B9DF81900E2
:204FC00068B10799002900F0EA810246204625F055FD9DF819002418079826F020FB08A914
:204FE0002046022225F04AFD9DF8220004F8020FB24CE068FFB250B90C2026F0CFFBE060BB
:2050000000B1866047700146C0F8049015E0E4680834206820B100F1080420680028FAD161
:205020000C2026F0BBFB206018B183680BB1866020684770C0F804902168002900F0AF8145
:2050400081F8008009A809F0B5F8A869322126F0CAFA05F17400A0E197F83800E32805D12F
:20506000206918B18047002800F0998197F83800E2280DD0E3280BD0E02809D0E12807D090
:2050800097F82800012803D0387D032840F08781BDF83C0000280CBFB0460DF13E083146B0
:2050A0002822684626F07CFB0AA83146032226F077FB97F838C0DFF8ECB2BCF1E30F23D007
:2050C00097F8250010F0070F16D000F0070002281AD102A807F11801082225F0CFFC97F8C0
:2050E00030009DF8283097F838C08DF8100003F0F80040F0020005E0F86A9DF82830019095
:2051000003F0F8008DF82800BCF1E30F0CD097F829109DF82800C90000F0F70001F008014D
:20512000014305E0305100209DF8281041F008018DF8281097F826309DF829209DF8280061
:20514000190102F0EF0200F0CF0001F03001022B42F0200241EA00018DF829209DF82A2017
:205160008DF8281002F0F8008DF82A0008DA9BB118E0C046A847002068460020AC450020BF
:2051800097F8273043B1012B0CD19DF8290000F0FC0040F0040003E09DF8290000F0F800C5
:2051A0008DF82900387D032807D1FB6B9DF82900099340F008008DF829009DF829009DF890
:2051C000282097F84030800100F4006100F4F860084302F030019DF82820014302F00800DD
:2051E0009DF82820084302F007017A6B8DF818C0084305923043ADF8000023B18DF81930AF
:2052000007F141000790BBF83A00ADF8200097F91500082805DC10F16D0FB8BF6FF06C0097
:2052200000E00820BB7D6E3040B2002B4FEA60000CBF311C022197F8179040EA81108DF829
:205240002200BDF8000010F0070F06D000F0070102290CBF14270B2700E00F27800A06D2B8
:205260009DF81800E22808BF8DF8196001E03F1DBFB29DF819003F18BFB2384626F08EFA72
:205280005FEA000A00F08B8006466946022225F0F5FBBDF80000B61C10F0070F10D000F02F
:2052A0000700022812D102A93046082225F0E6FB9DF81000083606F8010B07E0A8510020AC
:2052C00001A93046042225F0D9FB361D05A93046042225F0D3FB9DF81800361D06F8010B15
:2052E0009DF8190006F8010B9DF8190060B10799002954D00246304625F0C0FB9DF819000E
:205300003618079826F08BF908A93046022225F0B5FB9DF8220006F8020FBDF80000800AF1
:2053200004D3701C09A9042225F0A8FB85F85B70F220BBF84870E378C5F85CA0A9F10C06F5
:2053400085F85500E188A5F85670002B85F85A6006BF0F204FF6FD71022085F85400B8F10A
:20536000000FA5F84C100AD098F80100800906D305F1580008F10B0124F0C8FF65E60CA82B
:205380001AF0F2FEA5F858005FE6404626F0C6F9286AC82126F027F9404626F0BDF921B0AA
:2053A000BDE8F08F6C4700202DE9F04FCE4C0D46280CADF1140D80F04E82DFF81CA36808FB
:2053C00080F02582E41FC74E207AA90880F0E881A90980F0D281DFF80883E80B80F0868139
:2053E0002078A90B80F04F81BA48DFF8F0920768680980F02A81280928BF85F0080080F0C6
:205400004F82680A80F0BB80E80880F0AE806069E90980F09180280A63D2A80A5CD2C84C79
:20542000280B2CD2E80A28D3142018F0AFFA071C20D000262434B046207A012813D10097A4
:20544000042031464246142321F0E6FA58B9206838606068314614223B46786004201EF0D0
:20546000E1FE84F80880761C0C34282EE4DB384622F07CF885F4806012E2002010E21820C7
:2054800018F084FA071C24D00026B046207A012813D10097062031464246182321F0BCFAEE
:2054A00058B9206838616068314618223B46786106201EF0B7FE84F80880761C0C34032EF7
:2054C000E4DB3846414618221AF08DF8384622F04DF885F40060E3E119F07EF985F4007064
:2054E000DEE11CF075FB2078052819D1E07904211DF044FDE07904211CF070FA062025F0C7
:2055000031F95146087800F00700022801D025F0AFFD23F0D3FC19F05FF923F07BF801E0ED
:2055200023F0CCFC012023F00FF90320012105F005F985F08000B3E1A0B118F0D9FC60699C
:205540000768606922F012F867615FB1FA8802E0F888801AF8803F68002FF9D1E0794021CF
:2055600026F076F885F040009AE1FF20032121F06DFE25F0DFFEC34901200860FEE74A46BC
:2055800092F84A00082818BF04285BD124322120742125F06BFFC44E7068318800241BE06B
:2055A000A30003EBC403C75C37F07F0212D017F07F07C754034405D101A8FF210C221AF020
:2055C00012F801AB012021460C221EF02BFE304631884068641CA4B2A142E1DCB34E4FF09B
:2055E000FF0944460027F06994F8211080291FD161798DF8091022798DF808206388ADF8F3
:2056000006302088ADF8040084F82190217D8DF80C10E2798DF80B20A3798DF80A30A069A8
:2056200004903946102201AB03201EF0FBFDF0697F1C2434152FD7DB00B180470020022153
:2056400021F004FE85F480702AE14FB17968087818B1486800781AF035FE3F68002FF5D198
:2056600025F05CFE208424F0D5FF91480078012806D14A4610784FF40061642225F0E8FFA0
:2056800085F010000CE10C280DD00C2025F06AF82078012803D0022818BF0C2801D1002029
:2056A000207123360DE0022025F05CF82078012818BF022804D101202071002024F03EFAD3
:2056C0002736E07932684FF4005125F0C1FF85F40050E5E050520020CC6400206C4700209E
:2056E00014350020794B0020EF4900200120022123F01CFBC6B22EB3F00018F047F95FEABD
:20570000000921D083464FF0010A444615272079012818BF02280DD18DF804A06088ADF85F
:20572000100001A81EF0E6F920B102A9584625F0B3FF83467F1E04F12404E8D104E0C046BC
:20574000083F00204FF00009B9F1000F12D076B10F204FF6FC778DF80C001F24ADF8047004
:2057600001A932464B465348009415F0C5FC484621F0FCFE85F4804092E050B9207806286E
:2057800002D1072024F0EEFF3078012801D124F0F5F9E07910211DF08DF885F020007FE059
:2057A00000BB2178E07908291AD124F00BFC092024F0D8FF40480078052806D0072809D1E5
:2057C0000720012104F0BAFF04E0012023F002FC1CF0FEF93078012816D124F0CFF913E033
:2057E00010210FE025F08EFDEF2803DB002023F0F1FB09E025F086FD1030C0B225F094FDFC
:20580000E07901211DF056F885F0020048E0012024F0A8FF51460978122011F0070F10D1F5
:20582000211D0978022907D001290AD1082024F099FF25F01DFC04E0082024F093FF15F0E9
:2058400069F828B1207801214FF47A7225F000FF85F0010024E0194E1BE00178491E01292B
:2058600014D9193910D0B93908D02A3903D1316861B188470AE011F0BFFF07E002F06AF9A9
:2058800004E0C0467C05204310F0A4FA384624F0C5F820781CF0E0FF071CDED185F400403F
:2058A00005B0BDE8F08FC04654520020305000206E4B00200C4B0020544D0020FC4D002029
:2058C0002DE9F04FCA4C05462078ADF15C0D032840F03E824FF0000B6846182284F800B0FA
:2058E000082384F801B0594625F0CCFD6846594622F0B4FC20612E22594604F1300019F026
:2059000072FE04F130008146FF210A220C3019F06AFE22F0FBFD294658461FF0D1F904F14D
:205920001801E06025F0DAFD206AE169B1FBF0F2D7B284F83070022FC4BF022784F8307022
:20594000E770B0F5005F04D1E068B1EB473F00D310B901202070FDE1FF2184F83310D84685
:20596000CDF828805D460B950C950D950E950F9513950A46109211921292149215924FF47C
:205980000056E68659461691AF4200F30B81139E002E3AD10F9E002E28D1B8F1020F25DA18
:2059A0000E98022822DA0B9802281FDA0A9887421FD00E9E9EB9B8F1000F0ED10D9E0C9812
:2059C00006430FD15D46AF4213DD284614F024FE6D1CEDB2E7786070F5E7012016E0B8F193
:2059E000000F01D1032011E002200FE05D46AF4201DC58460AE0284614F00EFE6178E778F2
:205A00006D1CEDB201436170F1E705200028A07000F0B180401E70D0401E00F09280401E97
:205A20001DD0801E40F095811498FF2804BF1598149084F8330094F833200C2684F8312021
:205A4000D019401E90FBF7F17943401A84F8320012FB0690808BE0860EF096F987E0002F91
:205A600008BF5D460BD009F10C0138465D4611F80C2FFE2A03D0401E05F10105F7D1AF4267
:205A80003ADD0C2084F83C5015FB0090817E84F83D10C07E84F83E0012F0EEFBE2782D18D1
:205AA00095FBF2F050432D1AE8B284F83200401C90FBF2F15143401A84F831007C2021F040
:205AC000D1F8FF2810D17E2021F0CCF8FF280BD1FF2021F0C7F8FF2806D1782021F0C2F82F
:205AE000FF2808BF94F8310084F833000C2110FB0190808BE0864FE0FEE71098129E84F82A
:205B00003200FF2E00F1010090FBF7F101FB07F1A0EB0100C1B284F8311008D11198FF2868
:205B200004D10C20129111FB009005E012901299880000EBC100484484F83310808BE08603
:205B400007E1DDF8408008F1010084F8328090FBF7F17943401A84F831005FFA88F014F095
:205B60005BFD6070FE215FFA88F022F08DFC584604F096FCEDE084F831B0781E594684F873
:205B800032000C2684F833B011FB0690808B7E21E086584622F078FC94F83200FE2122F07D
:205BA00073FCD6E00C2115FB019706AA0423690325F099FC069807F11606010EB1F1960AFB
:205BC00018D1C0F38541C0F3014040EA8100022810D187F819B09DF818003070FF223A7653
:205BE0009DF81930FB7528461EF0C4F8B8836CE0504A00202846594607AA24F029FA28467B
:205C0000012108AA24F024FA2846022109AA24F01FFADDF818C00CF0FF010CF0FF00FF2941
:205C200009D0FE2907D07E2905D07C2903D0782918BF702909D15FEA0B0706D1CCF38541F7
:205C4000032908BFBAF1000F1ED0284614F0E4FC0746002FE068677038D1690306AA042370
:205C600025F041FC2846594607AA24F0F1F92846012108AA24F0ECF92846022109AA24F083
:205C8000E7F9069800F0FF0030709DF81900069F9DF81E307070C7F30140F070BDF81C00B5
:205CA0004FF6FF718142B37002D128461EF062F8F0809DF822003071BDF8207037819DF846
:205CC00026307371BDF824207281E0683178FF2936D0FE292ED07E2926D07C291ED0782989
:205CE00017D0702910D0A52908D0242904D00F99491CC9B20F9127E0159500E0149513996F
:205D0000491CC9B213911FE00E99491CC9B20E911AE00D99491CC9B20D9115E00C9912957B
:205D2000491CC9B20C910FE00B991195491CC9B20B9109E008F1010710955FFA87F803E0E7
:205D40000A99491CC9B20A91E7786D1CEDB21BE66070607817B0BDE8F08F70472DE9FC47FA
:205D6000D14C0F460546F80B80F0F6816078DFF83C83B90F80F09C81B90880F08E81F90A76
:205D800080F0F980390B80F0C580380907D2F80FC0F01A8227F080471BF084FE14E225F03E
:205DA00097FC814623F08AFE002800F0AD80082025F002FB002840F0A780802025F0FCFA45
:205DC000002840F0A180684616F058FC012803D10098002800F0988000250126E8B224F083
:205DE00061FF48B1837A3BB1867290F9090006FA00F0C0B220F08AFF6D1C032DEED303203F
:205E0000207504F1B40025F05BFC484625F0E6FDCF4800252A460168056050F8081CCD4956
:205E200040F8085C04F1380023F098FD40460068006B8047A168401A010BE069C1F1FF3236
:205E400082422CBF08444FF0FF30E06194F8200020B12069E169B1EBC02F25D923F03EFE70
:205E6000294600B13146081C1BD0D44840F6090101804580417B06F00F0221F00F010A43A9
:205E80004273017B05F00F0321F00F0143EA010202732946416025F003F9418811F4406F66
:205EA000FBD084F82060E5611EF09EFECA4829460560022023F0CAFA022021F02FFF1120BA
:205EC00014F0FAF8207818B96068483025F016FCC248007810B90E2014F0EEF894F82100EC
:205EE00020B184F82150052021F018FFBC48A0612575B4F98C00B4F98E10884214BF0220B5
:205F0000072018F061FB02E0484625F067FD27F0080741E720B1042021F000FF00206070CA
:205F2000656820F0D7FE38B12846ED696FF4807100224FF00073A847E06858B140460068AC
:205F4000006B8047E2686168801AC860000BC8600026E660A34904F13800002223F0FEFC53
:205F60000221A06F217518B104F5807025F0CEFB27F4006710E725F0ABFB064623F09EFD9B
:205F8000216F0028894600F0828000297FD09649042504F138000022257523F0DFFC3046BB
:205FA00025F01CFD04F1B40025F08AFB40460068006B8047E0604FF0010884F8018028465D
:205FC00021F0C4FED9F810006060D9F81000416AC90803D3036A29460022984740461CF0AB
:205FE0009FF9606880F8158060680FF09DF86568D5F808A040F60A02D01F564600F1010CCB
:2060000000E01E46736833B119888A4203D0884218BF8C45F5D100217160727B08F00F031C
:2060200022F00F0213437373D9F80C201288904224D06046904221D02B8E03B3696305F10A
:206040003002518095F83C0001F00F0320F00F00034385F83C3095F83D0008F00F0320F03F
:206060000F00034385F83D307260707B01F00F0520F00F0045EA0001717300E0E160504635
:2060800025F00EF85146404623F0E0F902E0304625F0A4FC27F4806796E00FF00DFEA06F3E
:2060A00008B927F002078FE0505300208C0100104E4A116841F08001116020B1042021F0F6
:2060C0002DFE0020607025F003FB8246D8F85400016804208847D0B1287DC0B1A068B0B14A
:2060E0008146D8F800002E69006B8047A0EB09002861000B2861B04202D28019400828615F
:2061000040F6C41181422CBFB0F5967F2961504625F064FC20F0DEFD78B1EE6928466FF43B
:20612000807100224FF00073B047206F002808BF47F0020701D01BF0B5FC2846AD690021B3
:206140004FF080630A46A84727F000573CE0C04614100440DD30020025F0BAFAD4F888605A
:2061600076B306F1280106C90A234FF0E0450B40154008BF002B23D106F1280191E8000354
:2061800006F1280595E8060006F1280322EA090221EA080183E8060025F020FCB16889B116
:2061A000B9F1000F08BFB8F1000F0BD03069B6F93010B5684B464246A84703E0DC640020DC
:2061C00025F00CFC27F4804727B104F58070394625F09CFABDE8FC87000004602ADC020041
:2061E000B97E0100FD7601009D9A0200CC2108402DE9F04FAE4DDFF8BC92287F0C46E1082E
:20620000ADF1140D80F04B81200C28BF48F2010680F01881600B28BF84F4805080F00E828C
:20622000B84EB01D0088210A80F0CC80200B04D311F064F984F4006000E2E00980F09E808B
:20624000AF68A00B59D26869E10B38BF0020C0F0F581BD4948C96A4648C2098811802F69CC
:2062600038B9384624F05AFC6861B0B987B90B200FE0017B31F07F000FD0A86901F07C013F
:2062800004290ADB40B9384624F048FC686120B9002024F05DFF2DE0686168784FF4804131
:2062A00041F2883225F0D4F9297F6869082919D00188ADF80010017A8DF80810017B491C45
:2062C000C9B231F07F07017306D10188427A684623F074FC686909E0008800210A4621F017
:2062E00093F9F7E7017B41F040010173406924F015FCA86184F48040A0E14FF0000A4FF0BA
:20630000030BD0468FB96878BAF1010F04D04FF400511CF033FE05E04FF400514FF47A7229
:2063200025F096F984F4005088E17E68307818B3F02821DC594642466B461EF056FBD8B15A
:20634000029803889BB985F836808DF80DB08DF80C8003AA0A2059461FF032FE09F104008B
:20636000016885F8368039B13078884704E001884FF0010A491E01803F68C3E71EF0E4FD41
:2063800007462878BFB1401EC0B22870A0B168784FF480411FF0D4FC30B9286924F0BEFBDD
:2063A00010B938781CF0ACF86878402143F6982225F04EF9287810B90B2024F0C9FE84F041
:2063C00040003BE100211EF09BFDB04698F80060FF25CEB14FF6FF7308F1040000219C465A
:2063E00010F8142F52080BD3C7884FB1BC4507D053B10289BF1ABAB29342C4BF0D1C131C6F
:20640000761E01F10101EBD1FF2D18D0A80000EB0510404418300189C088401A80B250B949
:2064200088F80150FF2008F09DF9FF2128460A461FF052FA0020A8F8060023F0FFFB84F05E
:206440008000FBE068781CF007FA071C08BF84F4004000F0F3803878D32810D0297F8142F9
:2064600019D095F83720A96A0A2805D0092812D1696AB81C88470EE03A7161B1F9E73846A2
:20648000C189891B05D0C81E05D1384618F06AFA01E017F087F8384623F0C0FAD2E7697847
:2064A00050B1001F00F0C280801E00F0B580C3E0384D00201050002095F83700810880F042
:2064C0009980C10877D20009C0F0B6800620287724F096FF00286AD01EF036FDEE68071C18
:2064E00065D07068407880083BD33878032100226B461EF07AFA38B970684078410834D248
:206500000E201DE0A85E002002980188B52912DAB421018068784FF47A724FF4005125F02F
:2065200097F84846416829B10078FF2814BF3878FF208847EE6870684078400806D209207C
:2065400024F006FE0CE0C04608CF0200092003218DF80C0003AA8DF80D100A201FF030FDC5
:20656000EE6870684078410866D336490E6816B980081CD360E038781BF0C2FF002600B1E5
:2065800001263046032610B10E2024F0E1FD0C2028706878402143F6982225F059F80A20CC
:2065A0008DF80D6003AA31468DF80C001FE00E2024F0CEFD40E005F11C00052695F83810F6
:2065C0000670890825D395F83A1011BB012700210422EF7019F007F82E771FF011FD02205F
:2065E00003218DF800706A468DF801000A201FF0E7FC21E0042695F838002E7740081BD365
:2066000095F83A0028B123F02DFE3046012104F095F8304600210DE0002085F8360028778D
:2066200032220846042125F013F805E023F01AFE0420012104F082F884F0040005B0BDE8DD
:20664000F08FC046345000202DE9F04FD348D24CDFF84C93DFF84C83ADF1140D0191090CC1
:2066600080F0D4810199490838BF0020C0F0D8816768066825F0B6F94FF47A754FF6FF7261
:206680007043B0FBF5F081B267B13B887888CB1A9BB2984210DDC01A8242C8BF82B2FF68F0
:2066A000002FF2D14FF6FF70904200F092802078012124F0CDFF8CE0B87902287CD025F09E
:2066C00091F997F8382046434946B6FBF5F001F1080338801878904266DD97F83600FF2855
:2066E00008D197F83800401C87F8380097F8370087F8360097F8356097F83930002001210E
:2067000001E0401CC0B283420FDD97F8365001FA00F285F0FF052A42F3D03618814097F8D1
:206720003600F6B2014387F8361097F83400B98F10FB06F2891A89B28842C7BFFF2087F898
:206740003600011C97F8360099F82220FF2818BF97F83A0006D140460078642510FB02F22A
:2067600012FB05F0788046B9388D3E7A40F020003885386C87F82E600BE03A8D4FF6DF709F
:20678000104038853D6C87F82E6097F8342012FB06507862F879CEB287F82D0007F1100071
:2067A0007E8407F011FA10E0B87E97F82A10FA8BE92320F0FFFA05E0387CFF2802D0B86999
:2067C00023F02CF9384621F0A1F9207801211CF071F8019880F0010022E12878012840F023
:2067E000128195F8338095F813A06F6995F831006988022221F01CFE05F11C0405F1020B97
:2068000006460020002E02907ED1687F400879D3A87FCDF80CA024F08BFCBA4605F1100940
:20682000071C63D01C2017F0B1F8061C5CD000211C2218F0D8FEA87F694622F0FAFF9DF815
:20684000010002213075304620F0DAFD6888317DB08095F83100FF23F07103FA01F0707431
:2068600078680078307495F83000B07495F8331011FB00F0303080B222F0B9FF0746B761AE
:2068800027B9304621F042F900262DE01A20387000237B701A467A80E0885946B880B81DC5
:2068A00023F0BCF9E0783F4BF87303F1200000883882608BB88560897882A0783875207B02
:2068C000787599F80000B87599F80100F87599F902003876039A7A76C7F81CA007F130019B
:2068E000B962A07D87F82400304600E000200028064600F08880284886F8088000780121CB
:206900001BF0D8FF002E7ED0307AA8EB0000B0F1FF3F04BF01200290307CFF285ED06078AE
:20692000400828BF4FF00008317DF07C4018404503DCF074FF2088407074B069B17C227DF7
